:020000040800F2
:100000000000022075650008C5650008C565000888
:10001000C5650008C5650008C5650008000000004A
:10002000000000000000000000000000C56500089E
:10003000C565000800000000C5650008EB1F00084A
:10004000C5650008C5650008C5650008C5650008E8
:10005000C5650008C5650008C5650008C5650008D8
:10006000C5650008C5650008C5650008C5650008C8
:10007000C5650008C5650008C5650008C5650008B8
:10008000C5650008C5650008C5650008C5650008A8
:10009000C5650008C5650008C5650008C565000898
:1000A000C5650008C5650008C5650008C565000888
:1000B000C5650008C5650008C5650008C565000878
:1000C000C5650008C5650008C5650008C565000868
:1000D000C5650008C5650008C5650008C565000858
:1000E000C5650008C5650008C5650008C565000848
:1000F000C5650008C5650008C5650008C565000838
:10010000C5650008C5650008C5650008C565000827
:10011000C5650008C5650008C5650008C565000817
:10012000C5650008C5650008C5650008C565000807
:10013000C5650008C5650008C5650008C5650008F7
:10014000C5650008C5650008C5650008C5650008E7
:10015000C5650008C5650008C5650008C5650008D7
:10016000C5650008C5650008C5650008C5650008C7
:10017000C5650008C5650008C565000800000000E9
:08018000C5650008C565000813
:100190000348044B834202D0034B03B11847704716
:1001A0009C2A00209C2A00200000000005480649E7
:1001B000091A891001EBD171491002D0034B03B128
:1001C000184770479C2A00209C2A0020000000004D
:1001D00010B5064C237843B9FFF7DAFF044B13B18F
:1001E0000448AFF300800123237010BD9C2A002037
:1001F00000000000C865000808B5044B1BB10449A5
:100200000448AFF30080BDE80840CFE700000000DD
:10021000A02A0020C865000800B50A4C26680546DB
:1002200085B01C46F06852B1074B0091CDE9013210
:1002300006492B46224600F021F800F09BFD044BB6
:100240001A46F2E70000002064690008746900089B
:100250007069000808B513460022FFF7DDFF00BFF4
:100260000CB400B583B004AB53F8042B019300F039
:1002700065F903B05DF804EB02B070470EB410B539
:1002800083B005AB064C53F8042B0193014620685C
:1002900000F054F903B0BDE8104003B0704700BF50
:1002A0000000002070B50D4E0D4D761BB61006D027
:1002B0000024013455F8043B9847A642F9D1094E71
:1002C000094D761B06F080F9B61006D000240134E3
:1002D00055F8043B9847A642F9D170BDE86900087B
:1002E000E8690008EC690008E8690008844641EA0A
:1002F000000313F003036DD1403A41D351F8043B9E
:1003000040F8043B51F8043B40F8043B51F8043BEF
:1003100040F8043B51F8043B40F8043B51F8043BDF
:1003200040F8043B51F8043B40F8043B51F8043BCF
:1003300040F8043B51F8043B40F8043B51F8043BBF
:1003400040F8043B51F8043B40F8043B51F8043BAF
:1003500040F8043B51F8043B40F8043B51F8043B9F
:1003600040F8043B51F8043B40F8043B51F8043B8F
:1003700040F8043B51F8043B40F8043B403ABDD2FE
:10038000303211D351F8043B40F8043B51F8043BA0
:1003900040F8043B51F8043B40F8043B51F8043B5F
:1003A00040F8043B103AEDD20C3205D351F8043B2F
:1003B00040F8043B043AF9D2043208D0D2071CBFFB
:1003C00011F8013B00F8013B01D30B880380604624
:1003D000704700BF082A13D38B078DD010F003039A
:1003E0008AD0C3F10403D21ADB071CBF11F8013B0A
:1003F00000F8013B80D331F8023B20F8023B7BE759
:10040000043AD9D3013A11F8013B00F8013BF9D283
:100410000B7803704B7843708B788370604670471D
:10042000F0B4860743D0541E002A3ED0CAB2034619
:1004300002E014F1FF3438D303F8012B9D07F8D103
:10044000032C2BD9CDB245EA05250F2C45EA0545ED
:1004500016D9A4F110073F0903F1200606EB071691
:1004600003F1100242E9045542E902551032B2424A
:10047000F8D104F00F040137032C03EB07130DD957
:100480001E462246043A032A46F8045BFAD8221F85
:1004900022F003020432134404F003042CB1C9B265
:1004A0001C4403F8011B9C42FBD1F0BC704714466E
:1004B0000346C5E79368013B002B936005DB136897
:1004C000581C106019700846704710B49469A34214
:1004D00009DB0A2907D01368581C106019700846F8
:1004E0005DF8044B70475DF8044B00F063BB00BF40
:1004F0009BB1F8B5D5180F460646013D541E01E0E4
:10050000AC4208D03A4614F8011F3046FFF7D2FF3C
:10051000431CF5D1F8BD0020F8BD0020704700BF96
:10052000936810B5144613B95360184610BD00F017
:100530000FFE0023C4E9013310BD00BF2DE9F04FC9
:100540009FB0894614461D46039018B18369002B5D
:1005500000F0C180A14B994500F0C380A04B9945A4
:1005600000F0D1809F4B994504BF039BD3F80C90BA
:10057000B9F80C30180740F1BC80D9F81030002BC6
:1005800000F0B78030238DF83230237805950021B4
:1005900020220B918DF83120934E0127002B00F083
:1005A0009280252B254603D118E0252B00F0D7801B
:1005B00015F8013F002BF8D1B5EB040B00F0838058
:1005C00022465B4649460398FFF792FF01307AD0F6
:1005D0000B9B2A785B440B93002A74D000234FF0C6
:1005E000FF3201350693CDE908338DF85B301C935B
:1005F000079205E0069A07FA03F31343554606935C
:10060000AA4605221AF8011B304600F0E9FFD3463E
:10061000831B0028EED1069BD90644BF20228DF80B
:100620005B2029781A0744BF2B228DF85B202A29EA
:100630006DD0A1F13003092B00F2C580099A02E0C8
:1006400055460AF1010A9AF8001002EB820203EB08
:100650004202A1F13003092BD346F1D905F1020A78
:1006600009922E295FD0614C0322204600F0B8FF8A
:10067000002871D0001B069A402404FA00F00243BF
:1006800006920AF101049AF8001059488DF83010CA
:10069000062200F0A5FF002873D0564B002B63D034
:1006A00005AB00934A46544B039806A9AFF300806C
:1006B0008046B8F1FF3F06D00B9B43440B93237851
:1006C000002B7FF46EAFB9F80C305B0618D40B9892
:1006D0001FB0BDE8F08F00F01BFD404B99457FF443
:1006E0003DAF039BD3F80490B9F80C3018073FF5E1
:1006F00044AF4946039800F0BDFA00283FF442AFEA
:100700004FF0FF30E4E7039BD3F8089030E7059AF9
:1007100011680432002905922DDB099169782E2990
:1007200005F1020A9FD19BF801102A2933D1059BBC
:100730009BF802101A6807920433002A05930BF104
:1007400002000BF1030A40DB284C834603222046BB
:1007500000F046FF00288DD15446DA4693E7B5EB0A
:10076000040B3FF43BAF2BE7059B073323F0070354
:1007700008330593A0E7494243F002030991069329
:10078000CCE705AB00934A461B4B039806A900F043
:10079000CFF880468DE7A1F13000002209280792AA
:1007A00001D917E0DA469AF8011002EB820200EB59
:1007B0004202A1F1300009280AF1010BF2D90AF135
:1007C000020A07924FE7AB464BE74FF0FF328346F2
:1007D000079248E7D3460AF1010A44E7D8660008C1
:1007E000B866000898660008A4690008AC690008AB
:1007F000B069000800000000F104000810B4044CC7
:1008000013460A46014620685DF8044BFFF796BE82
:10081000000000202DE9F0470C4691460A698968DE
:10082000DDF820808A42B8BF0A46C9F8002094F853
:10083000431006461F4611B10132C9F80020236853
:1008400099065FD5D9F800200232C9F80020236844
:1008500013F0060F19461DD1E1688A1A002AD8BF85
:10086000194617DD04F1190A002505E0E368D9F8F7
:1008700000209B1AAB420CDD01235246394630461C
:10088000C047013005F10105F0D14FF0FF30BDE860
:10089000F087216894F84330003318BF01238A069B
:1008A0000AD5E1185A1C302081F84300224494F8FC
:1008B000451082F84310023304F1430239463046B2
:1008C000C0470130E1D02368D9F80050216903F016
:1008D0000603042BD4E902201AD08A421FDD4FF010
:1008E0000009521A91441A34002501E04D4516D0F2
:1008F0000123224639463046C047013005F1010543
:10090000F4D1C2E713F0060F0CD1D9F80020A3E709
:10091000401B8A4220EAE079E3DC0028E3DC002087
:10092000BDE8F08794F84330003318BF0123C3E7D4
:100930002DE9F0430C46097E85B06E2906460C9DD4
:100940001746984604F1430C4AD00FD8632900F0AB
:10095000FF8000F2BF8000294ED0582940F0E1808E
:1009600084F845102268DFF844E212E0732900F0B1
:10097000C6807AD86F2900F0DB80702940F0D180E2
:10098000206840F0200222607823DFF824E284F817
:1009900045302B68191D1B682960150602D45006C6
:1009A00048BF9BB2D10744BF42F020022260002B17
:1009B0006DD1D4E9001284F84330002A21F02003DD
:1009C0002360A2607EDB21F0240121601021002A37
:1009D00079D1654608294ED0ACEB050323610EE0C2
:1009E0002B6822686169181D286015061B6802D4EF
:1009F000500600F1C7801960002365462361CDF8D9
:100A000000803B4603AA21463046FFF703FF013032
:100A100020D02A46236939463046C047013019D0D4
:100A200022680398E368920719D51A1A002A16DD7E
:100A300004F11909002504E0E36803981A1AAA4290
:100A40000DDD01234A4639463046C047013005F1E5
:100A50000105F1D14FF0FF3005B0BDE8F0839842B9
:100A6000B8BF184605B0BDE8F083752960D0782975
:100A700057D1226888E72368DB07ADD56268236910
:100A80009A42A9DC302305F8013C013DA4E710217E
:100A9000002284F843206268A260002A2CDB2068D0
:100AA00020F004002060002B91D06546B3FBF1F2EA
:100AB00001FB123013461EF8002005F8012D002B13
:100AC000F4D187E710219EF8003084F8423004F119
:100AD00042057FE7642901D0692922D120682B686B
:100AE000010603F1040245D51B682A60002B4BDB8D
:100AF000DFF8B8E00A21CEE7002BD6D1E3E72B6878
:100B00006268191D29601D680021284600F068FDF3
:100B1000002848D0401B60602061002384F84330E7
:100B20006DE7012384F84210236104F14205F4E7E4
:100B300020682B6810F0800F03F1040213D01B68AB
:100B40002A606F290CBF08210A21DFF860E09FE7C7
:100B50002B681A68191D0123296084F8422023613B
:100B600004F14205D9E7400653BF1B682A601B8881
:100B70002A60E6E7410653BF1B682A60B3F90030DC
:100B80002A60B3E7198037E76268A2602D21002A46
:100B900084F84310C3F10003DFF810E04FF00A01BE
:100BA000BFF67EAF81E76068B6E700BFB8690008AE
:100BB000CC690008F8B50D461446064608B18369AD
:100BC00043B3254B9C422AD0244B9C4229D0244B32
:100BD0009C4208BFF468A389A269A2601A0722D5C3
:100BE000236903B322686169D31AEDB299422F4693
:100BF00029DD0133A168501C0139A1602060157006
:100C000062699A4216D0A389DB0701D50A2D11D05B
:100C10003846F8BD00F07CFA0F4B9C42D4D1746882
:100C2000D9E7B468D7E72146304600F023F838B951
:100C30002369D7E72146304600F040F90028E7D085
:100C40004FF0FF37E4E72146304600F037F900283F
:100C5000F6D122680123CDE7D8660008B8660008FF
:100C600098660008024B0A4601461868FFF7A2BFC3
:100C7000000000203B4B70B51D6806460C460DB1C8
:100C8000AB69DBB1384B9C421ED0384B9C424AD0FA
:100C9000374B9C4208BFEC68B4F90C2093B219079B
:100CA00018D5206908B313F001022CD06369002223
:100CB0005B42A361A26060B3002070BD284600F0D3
:100CC00027FA294B9C42E0D16C68B4F90C2093B20E
:100CD0001907E6D4DD063CD5580726D4206942F032
:100CE0000803A3819BB20028DDD103F42072B2F582
:100CF000007FD8D03046214600F026FCA389206929
:100D000013F00102D2D1990758BF6269A26000288E
:100D1000D2D1B4F90C301A06CFD543F04003A381E9
:100D20004FF0FF3070BDAC68B6E7616B51B104F1B4
:100D30004403994204D0304600F006FDB4F90C207B
:100D40000023636300232069636022F02402206093
:100D5000C5E742F04002092333604FF0FF30A28123
:100D600070BD00BF00000020D8660008B86600080B
:100D70009866000808B5062000F05CFE012000F02F
:100D8000ABFF00BF8B891A072DE9F0410C46804666
:100D90003CD44A68002A54DDE56A002D4ED000227A
:100DA000D8F80060216AC8F8002013F480527CD182
:100DB00001234046A847431C47D0A389E56A216A1E
:100DC0005F0705D56268636B801A0BB1236CC01A8C
:100DD000024600234046A847451C42D0A389226909
:100DE0002260DB044FF00002626000D56065616B39
:100DF000C8F8006011B304F14403994202D04046A0
:100E000000F0A2FC00206063BDE8F0810E69AEB185
:100E10000D680E609A070CBF4B690023AD1B8B60F9
:100E20000AE02B463246A76A216A4046B8470028A6
:100E3000A5EB0005064428DD002DF2DC0020BDE80E
:100E4000F0810A6C002AA7DCF8E7D8F80030002B04
:100E5000B3D01D2B01D0162B29D1C8F8006000207B
:100E6000EDE7D8F800201D2A17D8134BB4F90C1061
:100E7000D340DB4313F0010311D12569C904C4E950
:100E80000053B4D5002AB2D1B0E7A38943F04003A0
:100E9000A3814FF0FF30BDE8F081B4F90C1041F0B0
:100EA0004001A1814FF0FF30C9E7606D88E7A38959
:100EB00043F04003A381C2E7010040200B6923B344
:100EC00010B5044682B008B18369BBB1104B99429A
:100ED00012D0104B994216D00F4B994208BFE168CF
:100EE000B1F90C3013B9002002B010BD204602B099
:100EF000BDE81040FFF746BF6168F1E7019100F0DF
:100F000007F90199E2E7A168EAE70020704700BF0E
:100F1000D8660008B86600089866000820B1054B3E
:100F200001461868FFF7CABF034B0449186800F070
:100F3000B3BA00BF0000002094660008BD0E000890
:100F400000207047014900F0A7BA00BFBD0E00089D
:100F50000020704770B54A1E682505FB02F50E4655
:100F600005F1740100F044FC044640B100210C304E
:100F7000666005F168022160A060FFF751FA204623
:100F800070BD00BF1E4B70B51D68AB69064643B30C
:100F90004835D5E90134013B05D51EE0013B5A1C1B
:100FA00004F1680419D0B4F90C20002AF6D1002508
:100FB000144B6566C4E90055A560C4E90455A561F4
:100FC0002946E360082204F15C00FFF729FAC4E92E
:100FD0000D55C4E91255204670BD286828B1054654
:100FE000D7E7284600F010F8D2E704213046FFF793
:100FF000B1FF28600028F2D10C2304463360EAE7F1
:10100000946600080100FFFF2DE9F84F334B344987
:101010001A68816290424FF00003C0E91233036501
:1010200004BF012383610546FFF7ACFF68602846D3
:10103000FFF7A8FFA8602846FFF7A4FF6E68E860E6
:1010400000240423F3607466C6E90044B460C6E972
:101050000444B461214606F15C000822FFF7E0F980
:10106000DFF888B0AF68DFF888A0DFF88890DFF895
:1010700088801C4BC6F83080C6E9086BC6E90AA90F
:101080002146FB6008227C66C7E90044BC60C7E9D2
:101090000444BC6107F15C00FFF7C2F9EE68124B33
:1010A000C7F83080C7E9087BC7E90AA92146F36081
:1010B0007466C6E90044B460C6E90444B46106F14C
:1010C0005C000822FFF7ACF90123C6E9086BC6E90A
:1010D0000AA9C6F83080AB61BDE8F88F94660008B5
:1010E000450F00080900010012000200A51A0008BF
:1010F000CD1A0008091B0008291B0008024B0349F0
:10110000186800F0C9B900BF94660008BD0E000859
:10111000836903B978E77047704700BF704700BF25
:10112000704700BF704700BF024B0349186800F0CA
:101130008DB900BF00000020410F0008024B034999
:10114000186800F083B900BF00000020510F0008AC
:101150009368002B00F0E4802DE9F04FB1F90C30DA
:101160009BB20C46190783B08246904635D522695A
:101170009AB313F00202D8F800603DD00027D4F8EB
:1011800028B0D4F820C0DFF8C0923D464D452B462C
:101190003A4628BF4B4661465046D5B1D84700284D
:1011A00040F3C680D8F808301B1A07442D1AC8F837
:1011B0000830002B00F0B080D4F820C0D4F828B05C
:1011C0004D452B463A4628BF4B4661465046002DBA
:1011D000E4D1D6E900750836D8E721465046FFF736
:1011E00049FD002840F02A81B4F90C30D8F800609D
:1011F0009BB213F00202C1D113F001095DD1A768BF
:1012000020684D46002D54D09A0540F19B80AF4296
:10121000BB4600F2D88013F4906F2FD0D4E90417A6
:1012200007EB4707A0EB010B07EBD777681C7F1094
:101230005844B8423A4684BF07463A465B0540F1F7
:10124000D3801146504600F0D3FA002800F0F08019
:101250005A4621690190FFF749F8A289019B22F4BF
:10126000906242F08002A281A7EB0B0203EB0B001D
:10127000676123612060A2602F46AB465A4649460B
:1012800000F0FEF9A2682368D21B5B442F46A260DF
:1012900023600025D8F80830DB1BB944C8F80830B3
:1012A000002B39D0B4F90C30A76820689BB2002D10
:1012B000AAD1D6E900950836A4E7334691461046F0
:1012C00017464E469B46002F6BD0002871D0D4E9BC
:1012D00004122068B9454B4628BF3B46884203D9D3
:1012E000A5681544AB4271DC9A4200F39380134623
:1012F000A56A216A32465046A847051E18DDB9EB9B
:1013000005090FD00120D8F808305B1B2E447F1B45
:10131000C8F80830002BD6D1002003B0BDE8F08F0C
:101320000020704721465046FFF7C8FD0028EAD04C
:10133000B4F90C3043F040034FF0FF30A38103B009
:10134000BDE8F08F2369834215D36169A94212D8A1
:101350003C4BA76A9D4294BF2B466FF000434A4620
:1013600093FBF1F3504601FB03F3216AB847071ED4
:10137000DEDDED1B8EE7AF4228BF2F463A464946D9
:1013800000F07EF9A3682268DB1B3A44A360226068
:10139000002BEED121465046FFF790FD0028E8D003
:1013A000C6E70BF1080353E902679B460833002F99
:1013B000F9D03A460A21304600F012F938B301302C
:1013C000A0EB060983E72F46AB4657E731462A468E
:1013D00000F056F923682B44236021465046FFF75E
:1013E0006DFD00288BD0A3E7504600F065FA034658
:1013F00000287FF439AF2169504600F0A5F9B4F90F
:101400000C300C2223F08003CAF8002092E707F189
:1014100001095CE71A463146019300F031F9019B5E
:10142000A1682268C91A1A44A16022601D4666E7B5
:101430000C23CAF80030B4F90C307BE74FF0FF30D2
:101440006BE700BFFEFFFF7F00FCFF7F2DE9F0414F
:1014500010F148071BD088460026D7E90154013D0A
:101460000FD4A389012B05F1FF35204605D9B4F926
:101470000E30013301D0C04706436B1C04F16804F1
:10148000EFD13F68002FE8D13046BDE8F0813E46FD
:101490003046BDE8F08100BF2DE9F84310F1480760
:1014A0001FD0884606464FF00009D7E90154013D98
:1014B00011D4A389012B05F1FF352146304606D909
:1014C000B4F90E30013302D0C04749EA00096B1C61
:1014D00004F16804EDD13F68002FE6D14846BDE82D
:1014E000F883B9464846BDE8F88300BF70B50C469E
:1014F000B1F90E10002996B016461D460FDAA389E1
:1015000000221B062A6005D44FF48063002033605C
:1015100016B070BD40230020336016B070BD6A461F
:1015200000F02EFB0028EADB019B03F47043A3F5D7
:101530000053B3FA83F35B094FF4806200202B6001
:10154000326016B070BD00BF8A8992070B4606D57F
:1015500001F1470201211A60C3E90421704770B507
:1015600082B001AB6A460C460546FFF7BFFF009903
:101570000646284600F03CF9B4F90C30D8B11649BB
:10158000A962019A0099206043F08003A381C4E915
:1015900004011AB93343A38102B070BD2846B4F9DF
:1015A0000E1000F001FBA0B1A38923F0030343F068
:1015B00001031BB2EEE79A05EED423F0030304F116
:1015C000470243F002030121A3812260C4E9042100
:1015D000E2E7B4F90C30DDE7450F00080000000039
:1015E00001F0FF01102A2BDB10F0070F08D010F8D4
:1015F000013B013A8B422DD010F0070F42B3F6D1D8
:10160000F0B441EA012141EA014122F007047FF0F0
:1016100000070023F0E80256083C85EA010586EA47
:10162000010685FA47F5A3FA87F586FA47F6A5FA83
:1016300087F68EB9EED1F0BC01F0FF0102F007028F
:1016400032B110F8013B013A83EA010313B1F8D13A
:101650000020704701387047002D06BF354603381B
:10166000073815F0010F07D1013015F4807F02BF54
:10167000013015F4C03F0130F0BC0138704700BFA5
:101680008842F0B40DD98B1883420AD9841832B13C
:10169000224613F8014D02F8014D9942F9D1F0BCF0
:1016A00070470F2A49D940EA01039B0747D1A2F1AD
:1016B00010031B0901F1200707EB031701F11004C8
:1016C00000F1100554F8106C45F8106C54F80C6CCF
:1016D00045F80C6C54F8086C45F8086C54F8046C28
:1016E00045F8046C1034BC4205F11005EAD1013311
:1016F00002F00F051B01032D1944034421D91F1FBC
:101700000E462C46043C56F804CB47F804CF032C75
:10171000F8D82C1F24F0030404342344214402F09D
:101720000302002ABBD0013B0A4411F8014B03F825
:10173000014F9142F9D1F0BC70470346F1E70346EF
:10174000F1E72A46EDE700BF79B338B551F8043C1C
:101750000C1F002BB8BFE418054600F04DFA234BD0
:101760001A682AB1A2420DD921686018824230D08D
:10177000626028461C60BDE8384000F03FBAA342D2
:1017800003D81A465368002BF9D111685018A042AB
:1017900013D00BD821686018834220D06360546056
:1017A0002846BDE8384000F029BA70470C232B606A
:1017B0002846BDE8384000F021BA2068014450189E
:1017C00083421160ECD1D3E90003014453601160FE
:1017D000E6E7D2E90002014462602160C9E7D3E98B
:1017E00000030144636021605460D9E7B82A0020F7
:1017F000F8B5CD1C25F0030508350C2D38BF0C2598
:10180000002D06463ADBA94238D82A4F00F0F4F9F9
:101810003A6852B113685B1B04D433E023685B1B46
:1018200025D522465468002CF8D1796800293BD090
:101830002946304600F066F8431C2AD0C41C24F028
:101840000304A04205D0211A304600F05BF80130B5
:101850001FD02560304600F0D1F904F10B0020F0D4
:101860000700231DC31A01D05A42E250F8BD0B2BCA
:101870000BD8A24215D063685360EBE70C233360AA
:101880000020F8BD0B2B0BD9144623601C442560A7
:10189000E0E70C233046336000F0B0F90020F8BDDB
:1018A00054683C601446D5E7304600F02BF8786069
:1018B000BEE700BFB82A0020E1B1F8B51446E2B196
:1018C00006460D4600F09CF9A04202D32F4638464A
:1018D000F8BD21463046FFF78BFF07460028F6D0BB
:1018E00022462946FEF702FD30462946FFF72CFF27
:1018F0003846F8BD1146FFF77BBFFFF725FF2746A7
:10190000E5E700BF38B5074C0023054608462360CD
:1019100000F0CCF9431C00D038BD2368002BFBD06D
:101920002B6038BD3C47002010B580210446FFF7EE
:101930005FFF606440B1031F00227C3043F8042F36
:101940008342FBD1002010BD4FF0FF3010BD00BF1F
:10195000436C0BB100207047E6E700BF1F2970B54C
:10196000054608D8436C16460C464BB153F8240084
:1019700043F8246070BD162202604FF0FF3070BD46
:10198000FFF7D2FF08B96B6CF0E74FF0FF3070BD86
:101990001F2938B521D8436C05460C466BB153F866
:1019A000212052B1012A12D0511C12D0002520460C
:1019B00043F824509047284638BD284600F070F878
:1019C000224601462846BDE8384000F055B80020C0
:1019D00038BD16230360012038BD162303604FF085
:1019E000FF3038BD1F2921D838B5436C05460C4659
:1019F00083B153F8242003EB84034AB1511C0ED069
:101A0000012A11D0002520461D609047284638BD88
:101A1000012038BDFFF788FF18B96B6CE9E7022099
:101A200038BD4FF0FF3038BD032038BD4FF0FF30D8
:101A3000704700BF024B01461868FFF7A9BF00BFFF
:101A400000000020024B0A4601461868FFF786BFD7
:101A500000000020034B1868436C0BB10020704756
:101A600062E700BF00000020024B01461868FFF744
:101A7000B9BF00BF0000002038B50B46074C054633
:101A8000114618460023236000F0F8F8431C00D0EC
:101A900038BD2368002BFBD02B6038BD3C470020AD
:101AA00000F0DCB810B50C46B1F90E1000F0B0F83B
:101AB000002803DB636D0344636510BDA38923F431
:101AC0008053A38110BD00BF002070472DE9F04175
:101AD0001646B1F90C201F46D3050C460546B1F950
:101AE0000E1007D50022022300F070F8B4F90C2084
:101AF000B4F90E1022F48052A2813B4632462846A9
:101B0000BDE8F04100F014B810B50C46B1F90E1064
:101B100000F05CF8A389421C0EBF23F4805343F409
:101B200080536065A38110BDB1F90E1000F016B8A6
:101B300070B50D46084C114606461A462846002345
:101B4000236000F0C1F8431C00D070BD2368002B57
:101B5000FBD0336070BD00BF3C47002038B5074C58
:101B6000002305460846236000F068F8431C00D0B7
:101B700038BD2368002BFBD02B6038BD3C470020CC
:101B800038B50B46074C054611461846002323601E
:101B900000F05CF8431C00D038BD2368002BFBD05C
:101BA0002B6038BD3C47002038B5074C0023054664
:101BB0000846236000F05AF8431C00D038BD236863
:101BC000002BFBD02B6038BD3C47002070B50D4684
:101BD000084C114606461A4628460023236000F0AA
:101BE00055F8431C00D070BD2368002BFBD0336038
:101BF00070BD00BF3C470020704700BF704700BF6A
:101C000051F8043C181F002BBCBF0B58C01870477C
:101C100070B50D46084C114606461A462846002364
:101C2000236000F03BF8431C00D070BD2368002BFC
:101C3000FBD0336070BD00BF3C470020024B5822F0
:101C40001A604FF0FF3070473C470020024B58228B
:101C50001A604FF0FF3070473C470020024B58227B
:101C60001A604FF0FF3070473C470020024B58226B
:101C70001A600020704700BF3C470020024B5822EA
:101C80001A604FF0FF3070473C470020024B58224B
:101C90001A604FF0FF3070473C470020024B58223B
:101CA0001A604FF0FF3070473C470020044A054956
:101CB0001368002B08BF0B46184410601846704785
:101CC000C02A002040470020024B58221A604FF0E3
:101CD000FF3070473C470020FEE700BF53B94AB9C8
:101CE000002908BF00281CBF4FF0FF314FF0FF3024
:101CF00000F072B9ADF1080C6DE904CE00F006F801
:101D0000DDF804E0DDE9022304B070472DE9F04777
:101D1000089E04468846002B4BD18A42154667D957
:101D2000B2FA82F24AB1C2F1200701FA02F320FAB4
:101D300007F7954047EA030894404FEA154E230CF5
:101D4000B8FBFEF71FFA85FC0EFB178843EA084331
:101D500007FB0CF1994209D9EB1807F1FF3080F02D
:101D60001B81994240F21881023F2B445B1AA4B2B6
:101D7000B3FBFEF00EFB103344EA034400FB0CFC03
:101D8000A44509D92C1900F1FF3380F00781A4453F
:101D900040F2048102382C4440EA0740A4EB0C04D2
:101DA00000271EB1D4400023C6E900433946BDE8F0
:101DB000F0878B4209D9002E00F0EB800027C6E99E
:101DC000000138463946BDE8F087B3FA83F7002FA3
:101DD00047D18B4202D3824200F2FA80841A61EB2F
:101DE000030301209846002EE0D0C6E90048DDE755
:101DF00002B9FFDEB2FA82F2002A40F08F80491B5E
:101E00004FEA154E1FFA85F80127B1FBFEFC230CA3
:101E10000EFB1C1143EA014308FB0CF1994207D960
:101E2000EB180CF1FF3002D2994200F2CD808446CB
:101E3000591AA3B2B1FBFEF00EFB101443EA04449E
:101E400008FB00F8A04507D92C1900F1FF3302D296
:101E5000A04500F2B6801846A4EB080440EA0C4006
:101E60009FE7C7F1200CBB4022FA0CFE4EEA030E9E
:101E700001FA07F420FA0CF521FA0CF34FEA1E4898
:101E80002543B3FBF8F92C0C08FB19331FFA8EFA23
:101E900044EA034309FB0AF49C4202FA07F200FAFF
:101EA00007F10BD91EEB030309F1FF3080F08780A7
:101EB0009C4240F28480A9F1020973441B1BADB21D
:101EC000B3FBF8F008FB103345EA034400FB0AFAC1
:101ED000A24508D91EEB040400F1FF336BD2A245E2
:101EE00069D90238744440EA0940A0FB0289A4EB96
:101EF0000A044C45C2464B4654D351D0002E69D0FB
:101F0000B1EB0A0564EB030404FA0CFCFD40FC4051
:101F10004CEA0505C6E90054002747E7C2F1200353
:101F200020FA03F7954001FA02F021FA03F34FEA91
:101F3000154E3843010CB3FBFEF71FFA85F80EFB74
:101F4000173341EA034107FB08F38B4204FA02F41A
:101F500007D9691807F1FF3C2FD28B422DD9023FD8
:101F60002944CB1A81B2B3FBFEF00EFB103341EAD9
:101F7000034100FB08F38B4207D9691800F1FF3CCD
:101F800017D28B4215D902382944C91A40EA0747AB
:101F90003BE73746304609E70746E7E61846FBE6E3
:101FA0004145ABD2B8EB020A69EB0E020138134689
:101FB000A4E76046E9E7184695E76746D1E781461A
:101FC0007CE702382C4447E7ACF1020C2B442FE7A6
:101FD000384608E73746E9E6704700BF08B5FA20FB
:101FE00002F0F6FE02F07CFEFEE702F0DFBE00002B
:101FF00082B00C4B002100915A6C42F480425A642A
:102000005A6C02F480420092009A01911A6C42F0DC
:1020100080521A641B6C03F080530193019B02B041
:10202000704700BF0038024010B594B01022002164
:102030000AA8FEF7F5F91422002103A8FEF7F0F92B
:1020400000211F4B01911A6C42F080521A641B6CE4
:1020500003F080530193019B1A4B02911A6842F4DA
:1020600080421A601B6803F480430293029B0121A3
:102070004FF480330224CDE908134FF48003082085
:10208000CDE90E43C023CDE91003042308A8129420
:10209000139302F08BFA08B1FFF7A0FF0F23CDE9ED
:1020A000033405904FF4A0524FF48053032103A84A
:1020B000CDE9062302F04EFC0028EDD114B010BD8E
:1020C00000380240007000401FB502F055FEFFF7D7
:1020D000ABFF1D4B00220092196B41F00101196307
:1020E000196B01F00101009100990192196B41F007
:1020F00002011963196B01F0020101910199029229
:10210000196B41F004011963196B01F0040102918C
:10211000029903921A6B42F080021A631B6B03F060
:1021200080030393039B00F097FC00F099FB04F0FD
:102130008FF900F059FE00F081FE00F081FA04F002
:10214000D3F900F021FCF6E70038024030B5039DDA
:1021500000242C601F4DA84235D00DD844F62064D1
:10216000A04234D04CF25034A0422ED042F210742F
:10217000A04208D1962007E0174DA8421FD007D8EB
:10218000164CA0421DD0032008604FF4402111E0FE
:10219000134DA8420AD0134DA842F4D10320086081
:1021A0004FF4A02111601C60002030BD02200860A7
:1021B0004FF4302111604FF480121A60F4E70620CA
:1021C000E2E70C20E0E70F20DEE71E20DCE74B20F3
:1021D000DAE700BFA086010090D0030048E80100C4
:1021E00000350C0040420F0070B58CB005460E461D
:1021F0000468142200216846FEF712F90DF10B0362
:1022000005AA3146284602F0D0FF40BB099A082AA9
:1022100025D8079B2BBB059B0193089B2BB19DF8F1
:10222000083043F002038DF80830164B164E8DF837
:102230000920E31A5C425C4141F2344500F04EFC57
:1022400005FB046541F228420090AA5892B1694604
:102250002046904700280DDAAB690133AB610CB022
:1022600070BD069B01939DF8083043F001038DF883
:102270000830D2E741F2344303FB0464236901339D
:102280002361ECE700680040640000202DE9F04382
:1022900041F23443314C4343E21802F5A15189B075
:1022A0000F6841F21C4105465258BA4253D054F8C7
:1022B000039000211426182202A806FB0736FEF719
:1022C000AFF8002301214846019302F05EFF002889
:1022D00041D1A31941F2344893F824201B6A12F02B
:1022E00001011BBF23F060430393C3F30A030423DC
:1022F00014BF0493029308FB05F84FF0140303FB8B
:102300000787274402F0020297F82530059206F16C
:10231000270208BF04910693224401AB02A9484654
:1023200002F0C3FEB8B9019B002B14DBA04441F2BC
:102330002C4358F8033023B106F11C012144E8B2C4
:10234000984741F2344303FB054404F5A154236844
:102350000133DBB2236009B0BDE8F08364000020E4
:102360002DE9F0418AB080460D461746002128220B
:1023700068461C46109EFEF753F841F2344000FBBD
:1023800008F01C4B0D2D185830DC02681A4B9A428D
:102390004FF0010308BF0E359F42079320D124F070
:1023A0006044630B0093E400730BF600A4B2B6B272
:1023B00044F0040446F004060194029303960023BB
:1023C00004930123089369460E230595099302F0AF
:1023D0008FFD003018BF012040420AB0BDE8F081F7
:1023E0006401A4B2760100940296E8E74FF0FF3052
:1023F000F3E700BF6400002000680040F0B519B3A7
:1024000041F23443114C5843261841F21C4C06F556
:10241000A15256F80C3012685F1CFFB2BA4205D1C7
:10242000F3680133F3604FF0FF30F0BD142202FB7C
:1024300003030D461C440FCD1C340FC42B682360CE
:1024400046F80C700020F0E70846EEE76400002034
:10245000044A41F2344303FB002041F22843C150B7
:10246000704700BF64000020044A41F2344303FB7C
:10247000002041F22C43C150704700BF640000208F
:1024800030B541F234435843194B1C5887B00023F0
:102490000122A3602376E37623770D4605AB6276AF
:1024A000A276627702A9009303AA04AB2846FFF73D
:1024B0004DFE059BE360029B6360039B2361049BCD
:1024C0006361204602F098FC18B14FF0FF3007B06E
:1024D00030BD48F61331204602F0DDFE0028F4D16D
:1024E000204602F089FD003018BF01204042EEE78F
:1024F0006400002008B541F234435843094B0029D9
:10250000185814BF4FF000430023836002F074FC9E
:1025100030B1054B054A064840F26311FDF77CFED9
:1025200008BD00BF6400002030680008F86600089D
:102530003967000841F2344358430B4B10B51C581F
:1025400041B1204602F058FD20460721BDE8104069
:1025500002F0F8BD2046072102F0F4FD2046BDE858
:10256000104002F074BD00BF6400002070B541F25D
:1025700034435843114B86B01C580E4605AB1546E4
:10258000009303AA04AB02A93046FFF7DFFD95B91B
:10259000029B6360059BE360039B2361049B636173
:1025A000204602F029FC30B1054B064A06484FF49C
:1025B000D071FDF731FE06B070BD00BF6400002091
:1025C000306800080C6700083967000810B541F250
:1025D00034446043134C2058134C41609DF808105C
:1025E000042928BF04210139102A28BF102254F8D9
:1025F0002110C160013A0D49082B51F822200261D7
:1026000028BF0823013B0A4A52F82330436102F0F5
:10261000F3FB30B1074B084A08484FF4E471FDF76B
:10262000FBFD10BD640000204C6700085C670008DB
:102630009C670008306800082167000839670008B7
:102640002DE9F04100F048FA0446184802F034FE43
:10265000174802F031FE0020FFF718FE0120FFF7B7
:1026600015FE144A13681B1BFA2B1AD91460124E5C
:102670000024254641F2304841F22447A31953F87B
:10268000082052B1A159D8590968D1F818C060453D
:1026900003D08969D9512846904704F5A1541434D0
:1026A0000DB1BDE8F0810125E8E700BFCC2800208E
:1026B000F4280020C42A00206400002030B50368FC
:1026C000354A93429BB02CD1344B1A6C12F00072F5
:1026D00009D101921A6C42F000721A641B6C03F06B
:1026E00000730193019B2D4B2D4C1A6B42F002029B
:1026F0001A631B6B0293029B0FCC06AD0FC554F8F7
:10270000043B28482B6006A902F0C4F90FCC0BAD9E
:102710000FC523682B600BA9224802F0BBF91BB040
:1027200030BD214A9342FAD11C4B1A6C12F0007250
:1027300009D103921A6C42F000721A641B6C03F008
:1027400000730393039B154B1A6C12F0806209D13E
:1027500004921A6C42F080621A641B6C03F080636E
:102760000493049B0D4B114C1A6B42F002021A6346
:102770001B6B0593059B0FCC10AD0FC554F8043BA4
:1027800008482B6010A902F085F90FCC15AD0FC5D4
:1027900023682B6015A9BFE70064004000380240A1
:1027A000E065000800040240006800400866000878
:1027B0000368064A9A1A53425341054A41F234418A
:1027C00001FB03235A6801325A60704700680040D9
:1027D00064000020FFF7ECBFFFF7EABF70477047C7
:1027E00070470021FFF700BD0121FFF7FDBC7047D6
:1027F000704770477047000010B5044602F05AFE5B
:102800002268154BA2EB030CDCF1000343EB0C0335
:10281000C20407D5114941F2344202FB0312916808
:1028200001319160410407D50C4941F2344202FB69
:102830000312916801319160C20307D5074A41F242
:10284000344101FB03239A6801329A602046BDE8B7
:10285000104002F031BE00BF00680040640000205C
:102860002DE9F041294B2A4C1A6B2A4FDFF8A8803A
:1028700042F001029CB01A631A6B0092009A1A6B24
:1028800042F004021A631A6B0192019A1A6B42F029
:1028900004021A631B6B02932646029B0FCE03AD04
:1028A0000FC533682B6003A9384604F1140602F003
:1028B000F1F80FCE08AD0FC533682B6008A940466C
:1028C00004F1280602F0E6F80FCE0DAD0FC533680F
:1028D0002B600DA9404604F13C0602F0DBF80FCE58
:1028E00012AD0FC5503433682B6012A9384602F080
:1028F000D1F80FCC17AD0FC523682B6017A9384648
:1029000002F0C8F81CB0BDE8F08100BF00380240FA
:1029100030660008000802400000024004282DE94B
:10292000F0410E46904605DD134B144A144826210B
:10293000FDF772FC134D04012F19BB68B98113B95F
:1029400000F0CAF8B860731E012B06D92B190022BB
:102950005A6045F80480BDE8F081012E05EB0403C0
:102960000CBF3222C822B8F1FF3F5A60F1D000F00C
:10297000B3F88044EDE700BFCE670008BC670008ED
:10298000DE670008C82A00202DE9F84300F0A4F80B
:102990002E4C2F4D2F4F804600264FF40009A36880
:1029A000002B36D06168A8EB03028A4231D3A2899A
:1029B000501E032807D8DFE800F010100202D11ED5
:1029C0004A424A41A2730023A360721EA37B032ADA
:1029D00029D8DFE802F0341B2E13A27B0B44A3603E
:1029E000236882F00102A2735A1CEED04345ECD852
:1029F000002204213046FFF791FFE6E71BB14FF4B8
:102A00008063AB6105E04FF08063FAE743B10423D4
:102A1000BB610136052E04F11004C0D1BDE8F88376
:102A20004FF48023F4E70BB10823F1E74FF40023C0
:102A3000EEE70BB14023E4E74FF48003E1E70BB18D
:102A40008023DEE7C5F81890E3E700BFC82A00201E
:102A5000000802400000024013B51C4B002000900B
:102A60001A6C42F002021A641A6C02F0020200921E
:102A7000009A01905A6C42F480325A645B6C03F401
:102A800080330193019B124B2F229A621A684FF6F2
:102A9000FF4422401A601A681A605A6842F0200205
:102AA0005A600C4A906211682140116011681160EF
:102AB000916841F017019160116841F001011160C6
:102AC0001A6842F001021A6002B010BD00380240DC
:102AD000000400400040014002F074B910B5054AFE
:102AE000054C516A606A536A8B42FAD140EA03404E
:102AF00010BD00BF004001400004004030B5044656
:102B000089B01422002103A8FDF78AFC2268144B27
:102B10009A4223D1134C144800250195236B43F0AE
:102B200002032363236B03F002030193019B4FF421
:102B300040420223CDE9032303210C23CDE90613F0
:102B40000DEB030101F0A6FF0295236B43F0005348
:102B50002363236B03F000530293029B09B030BD43
:102B600000000440003802400004024000F571718A
:102B7000D0F8040402F0FEBC1C2303FB0103D0F8D0
:102B80000404D3F8082202F026BD1C2303FB010332
:102B9000D0F804049A6C02F051BDD0F8040402F09D
:102BA000D9BDC16810B5044621B1022901D0FFF793
:102BB00015FA0121D4F8040402F0B6FDD4F8040497
:102BC000BDE8104002F088BD10B50446D0F80404FA
:102BD00002F0ADFD2268D2F8003E43F00103C2F8D6
:102BE000003E236A23B1034A136943F006031361CD
:102BF00010BD00BF00ED00E0D0F8040402F0A0BD5D
:102C0000D0F8040402F0B4BDD0F8040402F0AEBD64
:102C1000D0F8040402F0AEBDD0F8040402F0ACBD5C
:102C200008B50378012B32D11A4B1B49C3F80404B1
:102C30000622C3E90012C0F8C4320022022118465D
:102C4000C3E90312C3E90612C3E90822C3E90B2250
:102C50005A6300F0D3FA08B1FFF7C0F940F201114E
:102C60000C4800F0B9FF812200210A4800F094FFCF
:102C700081220121074800F08FFF812202210548AF
:102C800000F08AFF81220321024800F085FF002026
:102C900008BD00BF603E00200000044008B5D0F829
:102CA000C40200F032FB032896BF024B0320185CDD
:102CB00008BD00BFF067000808B5D0F8C40200F0F6
:102CC00043FB032896BF024B0320185C08BD00BFDE
:102CD000F067000810B51C46D0F8C402134622461F
:102CE00000F01EFE032896BF014B0320185C10BDA8
:102CF000F067000808B5D0F8C40200F049FE0328C8
:102D000096BF024B0320185C08BD00BFF0670008A7
:102D100008B5D0F8C40200F026FF032896BF024B86
:102D20000320185C08BD00BFF067000808B5D0F8A4
:102D3000C40200F0A8FE032896BF024B0320185CD3
:102D400008BD00BFF067000808B5D0F8C40200F065
:102D5000D4FE032896BF024B0320185C08BD00BFB9
:102D6000F067000811F0800FD0F8C4324FF01C0259
:102D70001BBF01F07F0102FB013102FB013191F821
:102D80003E0008BF91F8FE017047000008B5D0F87A
:102D9000C40200F0B1FD032896BF024B0320185C6B
:102DA00008BD00BFF067000808B5D0F8C40200F005
:102DB0004AFE032896BF024B0320185C08BD00BFE3
:102DC000F067000808B5D0F8C40200F010FE032830
:102DD00096BF024B0320185C08BD00BFF0670008D7
:102DE000D0F8C40200F027BE08B5012210491148EE
:102DF00002F071FB08B1FFF7F1F80F490D4802F03E
:102E000082FB08B1FFF7EAF80A4802F091FB08B12B
:102E1000FFF7E4F84FF47A7001F0DAFF054802F0AA
:102E200085FB18B1BDE80840FFF7D8B808BD00BF62
:102E3000C8290020684200208C290020014800F0A9
:102E4000A3BA00BF603E0020044BD3F8C4321B6815
:102E5000D3F80808C0F30D20704700BF6842002077
:102E6000084A08B5D2F8BC32014600F00F0003440E
:102E7000002018711046FFF74BFFB0FA80F04009B0
:102E800008BD00BF68420020F8B51E4FD7F8BC52FD
:102E9000044616460DB9002032E003784BB1012BF1
:102EA000F9D1437803F00F032B441B79002BF2D1A7
:102EB0000370637803F00F032B441B792BB1124B83
:102EC000124A13484921FDF7A7F9A368B342E2D398
:102ED00032466068FDF70AFA61780A4801F00F028D
:102EE000AB1801251D71142303FB02773346BE6125
:102EF0006268FFF759FFE36825701E44E6602846C4
:102F0000F8BD00BF6842002004680008F4670008AC
:102F1000326800086F230380004870471C29002096
:102F20000A2303800048704750680008002070475B
:102F300038B5D0F8BC3205460C460BB9032038BD75
:102F4000FFF74EFF012C0DD182B21049204603F04D
:102F500085F90E4A4FF4007321462846FFF732FFE9
:102F60000020ECE7022C07D182B20949204603F089
:102F700075F94023064AEFE7032CDFD182B20549F9
:102F8000204603F06BF94023024AE5E76B2B002053
:102F90006B2D0020AB2D0020F8B5D0F8BC320D46CB
:102FA000D3B1142202FB010296698EB1D0F8C4722B
:102FB0001C2404FB0174676CB6FBF7F407FB146474
:102FC00034B9946123462246FFF7EEFE2046F8BD51
:102FD0002B4400201871FAE70320F8E708B503F046
:102FE000AFF8002008BD08B50B7803F06003202B74
:102FF00002D0402B02D02BB9002006E0BDE80840EB
:1030000003F040B802F0E7FD032008BD2DE9F843C6
:103010000024124F05464FF01408A1467B7BA342C3
:1030200004DC0020C5F8BC02BDE8F883C4EBC4038F
:103030003B4428461E7D3146FFF76AFE314628464E
:10304000FFF758FE06F00F0308FB035332064CBF90
:10305000A3F82490A3F864910134DFE71C29002031
:103060002DE9F047294C00260546A4F112074FF040
:103070000208B1467B7BB3421BDC254CC5F8BC4241
:1030800004F113024FF4007301212846FFF79AFE62
:1030900004F21322402302212846FFF793FE402327
:1030A00004F2532203212846FFF78CFE0020BDE8DE
:1030B000F087E27894F802A0022A06D12B7C012B3B
:1030C00018D14023237184F80590A38851462846DF
:1030D000FFF700FE14220AF00F0302FB03531AF05D
:1030E000800F4FF0010214BF9A84A3F864210136C7
:1030F0000734BFE71BB9237184F80580E5E7054B6A
:10310000054A0648E621FDF787F800BF2E29002072
:10311000582B002030680008436800087C680008CD
:1031200008B506290CBF03480348044902F05EFDB8
:10313000024808BD5A68000872680008182B002071
:103140006F230380004870471C2900206F230380F1
:10315000004870471C29002012230B80004870474C
:10316000E429002004230B8000487047F829002040
:1031700010B5044C04480A46214602F037FD2046AB
:1031800010BD00BF38450020B068000810B5044CE1
:1031900004480A46214602F029FD204610BD00BF22
:1031A00038450020C968000810B5044C04480A4698
:1031B000214602F01BFD204610BD00BF384500200F
:1031C0008F68000810B5044C04480A46214602F0F6
:1031D0000DFD204610BD00BF38450020986800084E
:1031E000054BD3F8882042F47002C3F888204FF0D2
:1031F00000629A60704700BF00ED00E0F0B5044641
:103200008BB060B390F8BD33056803F0FF021BB9C3
:1032100080F8BC23FFF772FC032384F8BD33EB6B0B
:10322000254613F4807355F8100B08BF236100F096
:10323000ABFD0FCD6E460FC60FCD0FC695E8030050
:1032400086E803002546271D97E80E0055F8100B69
:1032500000F0E0FC064620B1022384F8BD330125CE
:1032600050E00146206800F095FD3046D4F804C0D7
:103270001C264FF0010E0146C2B2944500F1010038
:103280001CD800231C261946D8B2844503F101033B
:1032900022D80FCD6E460FC60FCD0FC695E803009E
:1032A00086E8030097E80E00206800F0B5FD0123D2
:1032B000054600B3022284F8BD23D0E706FB024393
:1032C000C3E9111183F83DE083F83C20A3F84220C4
:1032D00083F83F101965CFE706FB004282F8FD1125
:1032E00082F8FC0182F8FF11C2F80412C2F8081239
:1032F000C2F81012C8E784F8380084F8BD3320689B
:1033000001F0DEF828460BB0F0BD90F8BC33012B7D
:1033100010B5044616D00123006884F8BC33A36AB4
:10332000012B06D1A369012B1EBF836B43F48033AD
:10333000836301F0B9F8206800F020FD002084F8D4
:10334000BC0310BD0220FCE790F8BC33012B70B524
:10335000044616D0012680F8BC63006800F014FD16
:10336000206801F071F8054628B1002384F8BC33C9
:103370003546284670BD206801F0A2F884F8BC5399
:10338000F7E70225F5E700002DE9F04F056887B063
:103390000446284601F0CFF80290002840F0218131
:1033A000206801F099F8002800F01B81206801F0E6
:1033B00093F8820748BF2268206842BF536903F030
:1033C0000203536101F088F8C3062AD52268936985
:1033D00023F0100393612E6AC6F34343022B06F0D9
:1033E0000F0840F0018147F6F0731E4214D01C27ED
:1033F00007FB0847C6F30A163246D7F808122846D4
:1034000000F0C0FFD7F808323344C7F80832D7F8C5
:1034100014321E44C7F814622268936943F0100303
:103420009361206801F058F8070300F1EC802068F0
:1034300001F052F846030BD5206801F059F82646F2
:103440008246002705F51069BAF1000F40F0898126
:10345000206801F041F8002815DAD5F8043823F087
:103460000103C5F8043894F8F433012B40F01482BA
:10347000002184F8F413204600F0B2FB226853695F
:1034800003F000435361206801F026F801050BD5D5
:10349000D5F80838DA0702D52046FFF795FB2268F1
:1034A000536903F400635361206801F015F8C30405
:1034B00035D505F500667368206823F00103736055
:1034C000102100F07FFC606805F510634FF67F3136
:1034D000029A904240F0E481F36943F00113F361F2
:1034E000236B002B00F0F881D6F8843043F00B03F7
:1034F000C6F88430736C43F00B037364D5F800385E
:10350000217C206823F4FE63C5F8003804F571724D
:1035100001F026F82268536903F480535361206850
:1035200000F0DAFF870416D5206801F008F820685B
:1035300000F02CFDE060256801F0A6FA227B014630
:10354000284600F0A7FB2046FFF72BFB22685369B3
:1035500003F400535361206800F0BEFF060707D54F
:103560002046FFF71AFB2268536903F008035361F2
:10357000206800F0B1FFC50208D500212046FFF702
:1035800043FB2268536903F480135361206800F001
:10359000A3FF800208D500212046FFF731FB2268F7
:1035A000536903F400135361206800F095FF410054
:1035B00007D52046FFF72CFB2268536903F08043B0
:1035C0005361206800F088FF42070AD523685D68D0
:1035D0006B0702D52046FFF71FFB226853682B4379
:1035E000536007B0BDE8F08F062B7FF415AF0822BB
:1035F00004F5717128461C2700F0C4FE07FB08473C
:10360000C6F30A1603E72068DFF8E492DFF8E4B2B5
:1036100000F066FF00268046B8F1000F3FF407AFC8
:1036200018F0010F61D05FFA86FA5146206800F069
:1036300067FF0746F8071CD5730105F530621A4489
:1036400020680121916000F530622169D0F840C006
:10365000134401299A686DD1110706D5CC4508D9C4
:10366000100406D54FF4004202E0910641D5202215
:103670009A60380720D5730105F530621A44082195
:1036800091602268D2F840A002F530621344CA4526
:103690009A6804D9110444BF4FF400429A6020464E
:1036A000FFF764FACA4507D92169012904D104F555
:1036B0007172206800F054FFFA0641BF05F53063CF
:1036C00003EB461310229A60BB0641BF05F5306339
:1036D00003EB461320229A60B80441BF05F530631E
:1036E00003EB46134FF400529A6001364FEA580834
:1036F00092E712F0280FBCD1CC4501D91204B1D405
:103700001C2202FB06421B69D2F80412C3F3120307
:10371000CB1AC2F81432D2F808321944C2F808128F
:1037200086B9D4F810326BB904F57172012100F03A
:1037300017FF07E0DC450AD1110493D4920601D5A6
:1037400020229A6051462046FFF716FA91E7002E94
:10375000F8D1D4F81032002BF4D104F5717231464F
:10376000E5E71AF0010F74D05FFA87FB594620682D
:1037700000F0CFFE10F0010F804620D0D5F834388D
:103780002169012007F00F0200FA02F223EA020386
:10379000C5F8343809EB4713814298600BD1D6E95C
:1037A00011231344B36437B9236D23B904F571723F
:1037B000206800F0D5FE59462046FFF7E6F918F0DC
:1037C000080F1EBF09EB471308229A6018F0100F6C
:1037D0001EBF09EB471310229A6018F0400F1EBF5E
:1037E00009EB471340229A6018F0020F1EBF09EB45
:1037F000471302229A6018F0800F2AD0D6E91432BB
:103800009A4226D89B1A726C21680391934228BF72
:10381000134603339B08049301F5106303EB47132E
:103820000593059B0498996989B28142D6E91432BF
:1038300014D293420DD8039B07F00F0203F5006BDF
:103840000121D3F8343801FA02F223EA0203CBF85B
:10385000343001374FEA5A0A1C36F5E59342EAD96B
:10386000002BE8D0A3EB0208736C0398984528BF9F
:10387000984608F103039B080493237C00935A465F
:103880001FFA88F3B16C00F091FCB36C4344B3644D
:10389000736D43447365C4E72046FFF7ADF9EDE56A
:1038A00099601A6822F400121A601A6842F00062E5
:1038B0001A60C3F80812D3F8002222F40012C3F8E9
:1038C0000022D3F8002242F00062C3F80022029ADC
:1038D000013202922033FBE5736943F4005343F055
:1038E0002B037361336943F00B03336106E600BFBA
:1038F0000A30544F0A31544F90F8BC23012A10B5B6
:1039000004460BD0012280F8BC2384F838100068EC
:1039100000F0BAFD002084F8BC0310BD0220FCE7D3
:1039200070B501F00F05044611F0800FC5EBC5001E
:103930004FEA80004FF01C061FD006FB054600F141
:103940003C010120214486F83D008A604A780D70D0
:10395000CB7002B1CD80022B04BF00230B7194F811
:10396000BC33012B12D0012384F8BC33206800F053
:1039700018FB002084F8BC0370BD06FB054600F56B
:10398000FE710020214486F8FD01DEE70220F3E706
:1039900010B5044601F00F00C0EBC00311F0800F1A
:1039A0004FEA83034FF01C0216D002FB004203F1E2
:1039B0003C010123214482F83D30087094F8BC3367
:1039C000012B12D0012384F8BC33206800F028FBBF
:1039D000002084F8BC0310BD02FB004203F5FE7119
:1039E0000023214482F8FD31E7E70220F3E738B5F0
:1039F00001F00F051C2404FB050104FB050401F57F
:103A0000FE71C4F810320023C4F80822C4F814323E
:103A100084F8FD3184F8FC5103690068012B08BF6C
:103A2000C4F80C22DAB21DB900F04CFB002038BDFE
:103A300000F0D0FBFAE71C2301F00F0103FB0101AA
:103A4000D1F81402704738B501F00F051C2404FBAF
:103A5000050104FB05043C31236500236365012354
:103A6000A26484F83D3084F83C5003690068012B5F
:103A700008BFE264DAB21DB900F024FB002038BDB3
:103A800000F0A8FBFAE738B5436801F00F059D4246
:103A900004462ED811F0800F4FF01C021FD002FBFD
:103AA000050102FB050301223C3381F83D20012280
:103AB0009A701D7094F8BC1391421CD084F8BC23FA
:103AC0001946206800F06CFC2DB904F57172217C58
:103AD000206800F045FD002084F8BC0338BD02FBDF
:103AE000010302FB0101002203F5FE7381F8FD21B1
:103AF000DDE70120F2E70220F0E738B5436801F086
:103B00000F029A4204462AD8C2EBC20311F0800F7A
:103B10004FEA83034FF01C0018D000FB024003F172
:103B20003C010123214480F83D3000258D700A704E
:103B300094F8BC33012B14D0012384F8BC332068E3
:103B400000F059FC84F8BC53284638BD00FB024005
:103B500003F5FE710023214480F8FD31E5E70120E3
:103B6000F3E70220F1E790F8BC33012B10B50446CF
:103B700010D0012380F8BC330B06006807D501F094
:103B80000F0100F01FF9002084F8BC0310BD00F005
:103B90002BF9F8E70220F9E7006870B51204446ACF
:103BA00019B922438262002070BD836A4D1E04EB66
:103BB000134400235E1CDBB29D4205D83F3100EB6D
:103BC000810022434260EEE7403300EB83035B68F1
:103BD00004EB13443346EDE7036800205962704755
:103BE000704700000A4B013B0FD00269002AFADA45
:103BF0000369074A43F001030361013A05D00369F1
:103C000013F00103F9D1184670470320704700BF35
:103C1000410D030084B038B505AD85E80E000A9B60
:103C2000012B044625D1836B23F480338363C3685F
:103C300023F4840323F04003C360C36823F44013D8
:103C4000C360119B012B02BFC36843F48013C360A0
:103C5000FFF7C8FF089B012B07D1A36843F00603B9
:103C6000A360A36843F02003A360BDE8384004B01C
:103C70007047C36843F04003C360FFF7B3FF0E9B78
:103C800023B9A36B43F48033A363E3E7A36B23F46B
:103C90008033F9E7022A58D12E4B2F4A0B44934226
:103CA00047D92E4B2E4A0B44934244D9A1F57403B5
:103CB0002C4AA3F5105393423FD9A1F1837302F527
:103CC000C332A3F5E743A032934238D9264B274AA3
:103CD0000B44934235D9264B02F592220B4402F550
:103CE000787293422FD9234B02F5C3220B4402F57D
:103CF0002072934229D9A1F1B77302F5B712A3F547
:103D0000585302F55872934221D91B4B02F51222E7
:103D10000B4402F5F862934294BF07230623C2685E
:103D200022F47052C260C26842EA8323C36000205A
:103D300070470F23F3E70E23F1E70D23EFE70C2382
:103D4000EDE70B23EBE70A23E9E70923E7E708237D
:103D5000E5E700BF405327FFFF340C00401E1BFF68
:103D60003F420F007F4F120060B6E5FE5FE3160092
:103D700000D3CEFEC05BB3FEE05459FE836843F02F
:103D80000103836000207047836823F00103836090
:103D90000020704708B5C368012923F0C043C36001
:103DA00008D1C36843F00053C360322001F010F81B
:103DB000002008BD19B9C36843F08043F4E701202F
:103DC000F7E70000890141F02001064A0161013A4C
:103DD00005D0036913F02003F9D11846704703207A
:103DE000704700BF410D03001023064A0361013AEA
:103DF00005D0036913F01003F9D11846704703206A
:103E0000704700BF410D0300D0F800381943C0F8D7
:103E1000001800207047000084B02DE9F8430446E4
:103E200009A880E80E000023139D0F46194603F1F0
:103E3000400204EB820201330F2B5160F7D104F5ED
:103E40000066002D6CD1736843F002037360A36BAE
:103E500043F40013A363A36B23F40023A363A36BB6
:103E600023F48023A3630023C4F8003ED4F8003871
:103E7000C4F800380E9B012B5CD10B99002957D157
:103E80002046FFF7C1FF10212046FFF79BFF0146A8
:103E90002046FFF7A9FF00284ED1081C18BF0120BB
:103EA0000023336104F5106273611946F3614FF02A
:103EB000904C4FF0006E4FF67F38BB423ED1002150
:103EC00004F530620F464FF0904C4FF0006E4FF605
:103ED0007F388B4245D1336923F4807333610023EB
:103EE000A3616FF0804363610C9B1BB9A36943F02E
:103EF0001003A361A269244B1343A3610F9B1BB161
:103F0000A36943F00803A361012D01BFA36943F036
:103F1000804343F00403A361BDE8F84304B0704755
:103F2000A36B23F40013A363A36B43F4002399E76B
:103F30001946A5E70321A3E70120B1E7D2F80090D5
:103F4000B9F1000F0BDA3BB9C2F800E0116101339F
:103F5000C2F808802032B0E7C2F800C0F6E711606E
:103F6000F4E7D2F80090B9F1000F0BDA39B9C2F8D2
:103F700000E017610131C2F808802032A9E7C2F8D9
:103F800000C0F6E71760F4E700383C80D0F8083846
:103F900013F0060004D013F0020F14BF02200F200C
:103FA000704730B50D78012405F00F039C404B7825
:103FB00000F50062012B00EB4510D36918D11C43BA
:103FC000D461D0F800391A0410D48B68C978D0F8BD
:103FD0000029C3F30A0343F0805343F4004343EA48
:103FE000814343EA85531343C0F80039002030BDB4
:103FF00043EA0444D461D0F8003B1B04F6D48B6838
:10400000C978D0F8002BC3F30A0343F0805343F47C
:10401000004343EA81431343C0F8003BE6E7000056
:1040200010B50A784978012900EB421302F00F011C
:1040300000F5006020D1D3F80029002A0BDAD3F86C
:10404000002942F00062C3F80029D3F8002942F0A9
:104050008042C3F800290122C46B8A40D243144035
:10406000C463C1690A40C261D3F80019134A0A4007
:10407000C3F80029002010BDD3F8002B002A0BDA6A
:10408000D3F8002B42F00062C3F8002BD3F8002BCA
:1040900042F08042C3F8002B4FF48032C46B8A4058
:1040A000D2431440C463C1690A40C261D3F8001B03
:1040B000034A0A40C3F8002BDCE700BF007833EC6A
:1040C0000078F3EF4B78F0B50C784D69354E364FEC
:1040D000012B00EB441444D104F51063B5B91D69FC
:1040E0002E401E611D6945F400251D611D692F408C
:1040F0001F61012A21D10A6902B15A61D4F800393D
:1041000043F00443C4F800390020F0BDD3F810C0D8
:104110000CEA07071F611F693E401E618E68AE42B0
:104120001D6938BF4E6145F400251D614D691E694A
:10413000C5F3120535431D61DBE7D4F8003943F0C0
:104140000443C4F800394B69002BDDD00B78D0F85C
:10415000344803F00F02012393402343C0F834385E
:10416000D2E704F5306318693840186118693040A7
:104170001861886805B148611D6945F400251D6115
:104180001D69C0F312002843012A186102D1CA68D0
:1041900002B15A61D4F8003B43F00443C4F8003B39
:1041A000B2E700BFFFFF07E00000F8FF10B59DF881
:1041B00008404CB9033300EB02309B0800F58050F7
:1041C00001EB8303994201D1002010BD51F8042B6B
:1041D0000260F7E7F7B54D780C784B69CE78DFF8D9
:1041E0009CC1DFF89CE1012D00EB44147CD104F567
:1041F00010652F693BBB07EA0C072F612F6947F455
:1042000000272F612F6907EA0E072F61012A41D18C
:104210000B6903B16B61012E0CD1D0F8083813F48F
:10422000807FD4F800390CBF43F0005343F0805333
:10423000C4F80039D4F8003943F00443C4F8003915
:10424000002003B0F0BD07EA0E072F612F6907EACF
:104250000C07D1F808C02F610CEB0307013FB7FB37
:10426000FCFC454FD5F810E007EACC4747EA0E07BB
:104270002F61D5F810C0C3F3120747EA0C07012ECF
:104280002F61C3D12F6927F0C0472F612F6947F0F5
:104290000057BAE7D4F80059012E45F00445C4F898
:1042A00000590CD0002BCBD00B78D0F8344803F059
:1042B0000F02012393402343C0F83438C0E7D0F8FD
:1042C000085815F4807FD4F800590CBF45F000550C
:1042D00045F08055C4F800590C7800929BB22246F4
:1042E000C968FFF763FFABE704F530673D6905EA8E
:1042F0000E053D613D6905EA0C053D618D681BBBFE
:104300003B69C5F312051D433D613B6943F400233E
:10431000012A3B6102D1CB6803B17B61012E0CD134
:10432000D0F8083813F4807FD4F8003B0CBF43F07A
:10433000005343F08053C4F8003BD4F8003B43F0F3
:104340000443C4F8003B7BE7DFF82CC0D7F810E04B
:104350002B44013BB3FBF5F30CEAC34C4CEA0E0CC7
:10436000C7F810C09BB2D7F810C06B43C3F3120359
:1043700043EA0C03CCE700BF0000F81FFFFF07E093
:104380000000F8FF0332920801EB820200F5805032
:10439000914201D108467047036841F8043BF7E7B2
:1043A0004A780B78012A00EB431012D1D0F800298B
:1043B000002A06DB2BB1D0F8003923F08043C0F887
:1043C0000039D0F8003943F40013C0F80039002058
:1043D0007047D0F8002B002A06DB2BB1D0F8003B49
:1043E00023F08043C0F8003BD0F8003B43F40013B7
:1043F000C0F8003BEBE70B784A7800EB4310CB7832
:10440000012AA3F10203DBB20FD1D0F80029012B5E
:1044100022F40012C0F8002905D8D0F8003943F082
:104420008053C0F8003900207047D0F8002B22F4E8
:104430000012012BC0F8002B9EBFD0F8003B43F0C8
:104440008053C0F8003BEEE710B500F5106304465A
:1044500000F52E614FF67F329A60C3F808222033B0
:104460008B42F9D10022C4F810282046C4F8142841
:10447000C4F81C28FFF7B8FC28B920461021BDE875
:104480001040FFF79FBC10BDD0F8003823F4FE6346
:10449000C0F80038D0F80038090101F4FE61194372
:1044A000C0F800180020704708B5D0F8043823F091
:1044B0000203C0F80438032000F08AFC002008BD85
:1044C00008B5D0F8043843F00203C0F804380320DC
:1044D00000F07EFC002008BD4269806910407047F2
:1044E000D0F8183800F50060C0691840000C70471B
:1044F000D0F8183800F50060C069184080B27047E5
:1045000000EB411100F50060D1F8082B4069104024
:10451000704710B5D0F81048D0F8343800EB41108F
:1045200001F00F01CB4000F51060DB018068DBB2C9
:104530002343184010BD406900F001007047D0F8D7
:10454000003923F4FF6323F00703C0F80039D0F8E3
:10455000043843F48073C0F804380020704700002A
:1045600030B5056C104CA54200F5306303D9D0F886
:10457000004B002C16DB00241C611C6944F4002451
:104580001C611C6944F018041C611C69012944F079
:10459000C0441C6101BF5A61D0F8003B43F0802346
:1045A000C0F8003B002030BD0A30544F2DE9F341E4
:1045B000044608B901203FE00368DD0710D42368F2
:1045C00098075AD423681A0700F19C8023685B0778
:1045D00000F1BA80A069002840F01B8100202BE088
:1045E000A74B9A6802F00C02042A07D09A6802F0DE
:1045F0000C02082A0AD15B68590207D5A04B1B6838
:104600009A03DCD56368002BD9D1D3E763689C4D4E
:10461000B3F5803F13D12B6843F480332B6000F057
:10462000D1FB974D06462B689B03C8D400F0CAFB0C
:10463000801B6428F7D9032002B0BDE8F081B3F5F0
:10464000A02F04D12B6843F480232B60E3E72A6872
:1046500022F480322A602A6822F480222A60002B09
:10466000DDD100F0AFFB06462B689F03A7D500F015
:10467000A9FB801B6428F7D9DDE7814B9A6812F00B
:104680000C0F07D09A6802F00C02082A11D15B685F
:104690005E020ED47A4B1A68950702D5E268012AA9
:1046A00088D11A68216922F0F80242EAC1021A6030
:1046B00088E7E268734BB2B101221A6000F082FB16
:1046C0006F4D06462B68980707D52B68226923F0A3
:1046D000F80343EAC2032B6074E700F073FB801B0E
:1046E0000228EFD9A7E71A6000F06CFB644D06467C
:1046F0002B6899077FF566AF00F064FB801B0228EA
:10470000F6D998E76269604B7AB101221A6000F02D
:1047100059FB5B4D06466B6F9F073FF557AF00F0A7
:1047200051FB801B0228F6D985E71A6000F04AFB8E
:10473000534D06466B6F98077FF548AF00F042FB7C
:10474000801B0228F6D976E74D4B1A6C12F0805286
:1047500028D101921A6C42F080521A641B6C03F04B
:1047600080530193019B0126484D2B68D9051BD529
:10477000A368434D012B27D12B6F43F001032B6717
:1047800000F020FB3E4D074641F288382B6F9B0717
:1047900039D5002E3FF41EAF394A136C23F08053F5
:1047A000136417E70026DFE72B6843F480732B6060
:1047B00000F008FB07462B68DA05D9D400F002FBAD
:1047C000C01B0228F7D936E7052B04D12B6F43F025
:1047D00004032B67D0E72A6F22F001022A672A6FB1
:1047E00022F004022A67002BCAD100F0EBFA41F252
:1047F000883807462B6F9807CBD500F0E3FAC01B2B
:104800004045F7D917E700F0DDFAC01B4045BDD998
:1048100011E71B4DAB6803F00C03082B47D01C4E6F
:1048200000230228336035D100F0CCFA07462B680C
:1048300099011ED4D4E907321343626A43EA821312
:10484000E26A43EA0263A26A0D4C5208013A43EA63
:1048500002436B600123336000F0B4FA054623681D
:104860009A013FF5BBAE00F0ADFA401B0228F6D925
:10487000E1E600F0A7FAC01B0228D8D9DBE600BFAA
:104880000038024000004742800E4742007000405E
:104890006000474200F096FA04462B689B017FF5C2
:1048A0009DAE00F08FFA001B0228F6D9C3E601285E
:1048B0003FF4C2AE6868E36900F480029A427FF474
:1048C00079AE226A00F03F0393427FF473AE626ACE
:1048D00047F6C073034093427FF46CAEA26A00F4C3
:1048E000403393427FF466AEE36A00F07060C01A12
:1048F00018BF0120A0E600BF134908B58B6803F07C
:104900000C03042B03D0082B03D0104800E0104800
:1049100008BD4A684B68496813F4800314BF0C480B
:104920000A48C1F3881118BF002302F03F02A1FB1F
:104930000001FDF7D3F9044B5B68C3F30143013376
:104940005B00B0FBF3F0E3E7003802400024F40022
:1049500000127A002DE9F0410D46044610B90120FD
:10496000BDE8F081434B1A6802F00F028A4228D357
:1049700021688F072DD4C80740D43E4B1A6802F037
:104980000F02AA4265D8226851076BD4130707D5D6
:10499000394A2169936823F4604343EAC103936071
:1049A000FFF7AAFF344B354A9B68C3F30313D35C6C
:1049B000D840334B1860334B186800F0B9F9002029
:1049C000CEE7CAB21A701B6803F00F038B42C6D140
:1049D000CEE7294B11F0040F1EBF9A6842F4E05253
:1049E0009A600E0742BF9A6842F460429A609A68E1
:1049F000A06822F0F00202439A60BCE762681E4B96
:104A0000012A1CD11B6813F4003FA8D01A4EB368CA
:104A100023F003031343B36000F0D4F941F2883864
:104A20000746B368626803F00C03B3EB820FA4D0AF
:104A300000F0C8F9C01B4045F3D9032090E7911E50
:104A400001291B6802D813F0007FDEE713F0020F84
:104A5000DBE7EAB21A701B6803F00F03AB427FF486
:104A60007EAF90E70449E0688B6823F4E05303438A
:104A70008B608BE7003C024000380240D66800089B
:104A8000FC290020042A0020014B1868704700BF51
:104A9000FC2900202DE9F04F85B00B68DFF8AC81D0
:104AA000684ADFF8AC91019300230124019D9C40EA
:104AB0002540AC4240F0B0804C6824F0100C4FEA26
:104AC000430E03260CF1FF3706FA0EF6012F6FEAAC
:104AD000060611D8876807EA060ACF6807FA0EF7B4
:104AE00047EA0A078760476827EA050AC4F3001700
:104AF0009F4047EA0A074760C76807EA060A8F68C7
:104B000007FA0EF747EA0A07BCF1020FC76016D191
:104B10004FEAD30A00EB8A0A03F0070BDAF8207099
:104B20004FEA8B0B4FF00F0C0CFA0BFC27EA0C0C26
:104B30000F6907FA0BF747EA0C07CAF820700768F5
:104B40003E4004F0030707FA0EFE4EEA0606066032
:104B5000E60061D54FF0000BCDF80CB0D8F84470EA
:104B6000394E47F48047C8F84470D8F8447007F4C9
:104B700080470397039F23F0030707F1804707F55A
:104B80009C3703F0030ED7F808A04FEA8E0E4FF0C3
:104B90000F0C0CFA0EFCB0422AEA0C0C43D006F5BE
:104BA0008066B04241D006F58066B0423FD006F53F
:104BB0008066B0423DD006F58066B0423BD04845A5
:104BC0003BD006F50066B04239D006F58066B042AB
:104BD00014BF0826072606FA0EF646EA0C06BE6043
:104BE0001668EF4314F4803F0CBF3E402E4316601E
:104BF000566814F4003F0CBF3E402E435660966842
:104C000014F4801F0CBF3E402E439660D668A40269
:104C100054BF3E402E43D6600133102B7FF445AF86
:104C200005B0BDE8F08F5E46D5E70126D3E7022642
:104C3000D1E70326CFE70426CDE70526CBE70626F6
:104C4000C9E700BF003C01400000024000380240BC
:104C500000140240074AD36823F4E0631B041B0CD2
:104C600043F0BF63000243F4003300F4E060034309
:104C7000D360704700ED00E0174B70B5DC68C4F3FB
:104C80000224C4F10705042D04F1040328BF042500
:104C90004FF0FF36062B06FA05F38CBF033C0024C9
:104CA00021EA0303A34006FA04F422EA04040028DC
:104CB00043EA0403A8BF00F160404FEA0313BCBFFE
:104CC00000F00F00054ADBB2AABF00F561401354A3
:104CD00080F8003370BD00BF00ED00E014ED00E08F
:104CE000BFF34F8F0549064BCA6802F4E0621343D5
:104CF000CB60BFF34F8F00BFFDE700BF00ED00E0CA
:104D00000400FA050138B0F1807F0AD2064B074A49
:104D10005860F02182F823100020072298601A6062
:104D200070470120704700BF10E000E000ED00E098
:104D300038B50E4A0E4B054618784FF47A73B3FB1C
:104D4000F0F31068B0FBF3F0FFF7DCFF044658B94E
:104D50000F2D09D8024629464FF0FF30FFF78CFF90
:104D6000044B20461D6038BD0120FCE7FC290020D3
:104D7000002A0020042A002008B50B4B1A6842F4D0
:104D800000721A601A6842F480621A601A6842F46B
:104D900080721A600320FFF75DFF0020FFF7C8FF55
:104DA000FDF726F9002008BD003C0240034A044BF1
:104DB00011681B780B441360704700BF3847002010
:104DC000002A0020014B1868704700BF38470020B8
:104DD00038B50446FFF7F6FF631C1CBF054B1B7874
:104DE000054618BFE418FFF7EDFF401BA042FAD3B9
:104DF00038BD00BF002A002038B5044600286ED018
:104E000090F820300BB9FDF759FC2268136823F0A5
:104E100002031360FFF7D6FF054623685A6891071F
:104E200051D41A6842F001021A60FFF7CBFF054621
:104E300023685A68D20754D5227E012A1A680CBF0B
:104E400042F0800222F080021A60627E012A1A6813
:104E50000CBF42F0400222F040021A60A27E012AFA
:104E60001A680CBF42F0200222F020021A60E27E93
:104E7000012A1A680CBF22F0100242F010021A60D8
:104E8000227F012A1A680CBF42F0080222F00802B1
:104E90001A60627F012A1A680CBF42F0040222F0F5
:104EA00004021A60D4E902210A4321690A436169B4
:104EB0000A43616801390A43DA6100200123606214
:104EC00084F8203038BDFFF77DFF401B0A28A4D9A5
:104ED000636A43F400336362052384F820300120C1
:104EE000F0E7FFF76FFF401B0A28A1D9F0E70000A9
:104EF00090F82030013B012B30B574D83D4BD3F8EE
:104F0000002242F00102C3F80022D3F8002222F46A
:104F10007C52C3F80022D3F80022486A42EA0022F9
:104F2000C3F800224869D3F81C5200F01F02012484
:104F30009440E2431540C3F81C52CD69002D35D191
:104F4000D3F80C521540C3F80C52CB688D8845EA53
:104F50000345C30003F1804303F5C8430888C3F841
:104F600040528D6840EA0540C3F844028869214BED
:104F700088BBD3F804021040C3F80402086970BB70
:104F8000D3F814020240C3F814220B6A012B194B08
:104F900002BFD3F81C221443C3F81C42D3F80022EA
:104FA00022F00102C3F80022002030BD012DDDD126
:104FB000D3F80C522543C3F80C520B688D8845EA90
:104FC0000345C30003F1804303F5C8438889C3F850
:104FD00040528D68C6E7D3F804022043CCE7D3F8EB
:104FE00014222243CFE7436A43F480234362012023
:104FF000DBE700BF0064004038B590F82030012B9B
:1050000004461FD10268022380F82030136823F081
:1050100001031360FFF7D6FE05462368586810F0B9
:10502000010001D1606238BDFFF7CCFE401B0A28A9
:10503000F3D9636A43F400336362052384F82030B4
:105040000120F0E7436A43F400234362F8E738B5F0
:1050500090F82030022B044622D10268136843F0F6
:1050600001031360FFF7AEFE054623685A68D207B6
:1050700008D51A6822F002021A60012384F8203051
:10508000002038BDFFF79EFE401B0A28EDD9636A59
:1050900043F400336362052384F820300120F0E7F5
:1050A000436A43F480134362F8E7F0B590F8205068
:1050B0000668013D012DB46840D814F0E05F39D096
:1050C000C4F30164032C4FF0010505D1436A43F496
:1050D00000034362012027E0A5401D60D1E90207DB
:1050E00004F1180308BB086847EA40501B0124017B
:1050F000F05033190869097DC3F88401012902BF02
:10510000D3F8841141F48071C3F884113444516898
:10511000C4F88C111268C4F88821D3F8802142F0B9
:105120000102C3F880210020F0BD4D68384340EAF9
:10513000C500DBE7436A43F40013CAE7436A43F45C
:105140008023C6E790F82030013B012B17D8CA070F
:1051500041BF0268936843F0800393608B0741BFAF
:105160000268936843F40043936011F004011FBF89
:105170000268936843F40003936000207047436A19
:1051800043F4802343620120704790F82030013BB4
:10519000012B08D803689B68890631EA030314BF12
:1051A00001200020704700207047F0B590F82040A3
:1051B000013C012C6BD8066841B9F468A40707D1FB
:1051C000436A43F400134362012055E03469F5E774
:1051D0000C013519D5F8B07107F004079760002F5E
:1051E0004BD1D5F8B0717F0D1760D5F8B07107F0CD
:1051F0000207D760D5F8B47107F00F071761D5F82B
:10520000B471D5F8B4512644C7F307272D0C976124
:105210005561D6F8B8211A7002682244D2F8B82134
:10522000120A5A7002682244D2F8B821120C9A70FD
:1052300002682244D2F8B821120EDA7002682244C1
:10524000D2F8BC211A7102682244D2F8BC21120A99
:105250005A7102682244D2F8BC21120C9A71026879
:105260001444D4F8BC21120EDA71036851B9DA681B
:1052700042F02002DA600020F0BDD5F8B071FF08DE
:105280005760B2E71A6942F020021A61F3E7436AF5
:1052900043F4802397E790F82030013B012B05D899
:1052A000026853691943516100207047436A43F40F
:1052B00080234362012070472DE9F84F03685E693F
:1052C000D3F804909F68D3F80CB0D3F810A0D3F8AB
:1052D000188016F00104054622D017F0010407D00B
:1052E0000122B9079A6040F1A380FDF761FA00241A
:1052F000FB0509D52B684FF48072B8059A6040F120
:10530000A5802846FDF766FAFB0309D52B684FF404
:105310008032B8039A6040F1A7802846FDF75CFA16
:10532000330707D51BF0100F1FBF2B68102244F462
:105330000074DA60770708D51BF0080F05D02B68DA
:105340000822DA602846FDF752FAB00706D52B6826
:10535000DB68990702D02846FDF743FA720607D5A5
:105360001AF0100F1FBF2B68102244F480641A61DA
:10537000B30608D51AF0080F05D02B6808221A6169
:105380002846FDF735FAF70606D52B681B699807FE
:1053900002D02846FDF728FAB10308D519F0100FFE
:1053A00005D02B6810225A602846FDF722FAF20336
:1053B00008D519F0080F05D02B6808225A60284636
:1053C000FDF718FA33042AD519F0040F2A6824D0FF
:1053D000F70504D518F0010F18BF44F00104B0051B
:1053E00004D518F0020F18BF44F00204710504D56B
:1053F00018F0040F18BF44F0040433050DD518F05D
:1054000070030AD0302B4CD03CD8102B43D0202B2B
:1054100044D0936923F070039361042353602CB14B
:105420006B6A1C436C622846FDF7E6F9BDE8F88F0D
:105430007A0705D417F0080405D1FDF7CFF957E72F
:105440004FF4006454E74FF4805451E7790502D5D6
:1054500044F4005458E73A0502D544F4804453E735
:105460002846FDF7BCF94FE7790302D544F4004420
:1054700056E73A0302D544F4803451E72846FDF755
:10548000AFF94DE7502B0FD0602B10D0402BC0D17F
:1054900044F04004BDE744F00804BAE744F01004C7
:1054A000B7E744F02004B4E744F08004B1E744F4E3
:1054B0008074AEE7406A704790F82030013B012BC2
:1054C0008BBF436A002343F4802343628ABF436255
:1054D000184601207047A0B1D0F8B83213B10023AC
:1054E000C0F8B832D0F8CC3213B10023C0F8CC32B7
:1054F00009B1C0F8B412012380F89C320270FDF7A4
:105500008FBB0320704737B500240546ADF8064031
:1055100051B1C0F8B8128B6A0DF106009847C5F872
:10552000CC02204603B030BD0320FBE7FDF7B6BB3D
:10553000D0F8B83210B5044613B15B6801799847CA
:10554000D4F8CC3213B10023C4F8CC322046BDE8E5
:105550001040FDF7B1BBD0F8B8320BB11B6818474B
:105560000320704708B5D0F8B8320BB15B68984794
:10557000002008BD38B5044600F2AA25284600F0F0
:1055800016FB012394F8AA12C4F89432B4F8B0328E
:10559000C4F8983201F01F03032B15D8DFE803F09D
:1055A0000E02080E29462046BDE8384000F046BAF3
:1055B00029462046BDE8384000F067BA2946204613
:1055C000BDE8384000F0F0B8204601F08001BDE8A9
:1055D0003840FDF7ABBB70B50446164609BBD0F8A2
:1055E0009432032B0ED1D0F85C31D0F86021934275
:1055F0000AD99B1A9A42C0F85C3128BF1A46314634
:1056000000F034FB002070BDD0F8B8321B6923B124
:1056100090F89C22032A00D19847204600F02EFBE8
:10562000F0E7D0F8B8329B6933B190F89C22032A96
:1056300002D1BDE8704018470320E4E770B5044686
:1056400016460D46D9BBD0F89432022B0ED1D0E9C4
:1056500007239A4213D9D21AC261314600F0EFFAF9
:105660002B462A4629462046FDF7ACFB94F8A0328B
:10567000012B4FF0000001D184F8A00270BD0CD1C5
:1056800083699A4209D8D0F89822934205D20A46F3
:1056900000F0D5FAC4F89852E2E7D4F8B832DB68E3
:1056A0002BB194F89C22032A01D1204698478021EF
:1056B0002046FDF73BFB204600F0EBFAD6E7D0F89A
:1056C000B8325B6933B190F89C22032A02D1BDE85D
:1056D000704018470320D1E7012370B580F89C3251
:1056E000D0F8BC3200210446C0F894124160C0F8E2
:1056F000A4121BB1D0F8B8325B689847002240254D
:105700001146012640232046FDF7E4FAA4F864611F
:10571000C4F860512B46002280212046FDF7DAFABA
:10572000A6842562002070BD01740020704790F8A7
:105730009C3280F89D32042380F89C320020704710
:1057400090F89C32042B04BF90F89D3280F89C3274
:105750000020704708B590F89C22032A04D1D0F8A5
:10576000B832DB6903B19847002008BD00207047BC
:105770000020704700207047012208B580F89C2265
:10578000D0F8B82212B1526801799047002008BDC4
:1057900010B580210446FDF7C9FA20460021BDE876
:1057A0001040FDF7C3BA0000F7B50B7803F06003B3
:1057B000202B04460E4612D0402B10D0002B58D17F
:1057C0004B78092B55D8DFE813F009012701540065
:1057D0001E0154008A0014005400F200A900D4F8FD
:1057E000B83231469B68204698470546284603B0A4
:1057F000F0BD49880023ADF806300B0A013B062BAB
:1058000037D8DFE803F0041C293636576100D0F89A
:10581000B4321B68207C0DF106019847F288002AFB
:1058200000F0F680BDF806301BB39A4228BF1A4636
:10583000ADF806200146204600F0F4F968E0027C4D
:10584000D0F8B83232B99B6A0DF1060098470223AE
:105850004370E3E7DB6AF7E7C9B2052921D8DFE83F
:1058600001F0030C1014181CD0F8B4325B68002B44
:10587000D0D12046FFF78CFF4AE0D0F8B4329B68C5
:10588000F5E7D0F8B432DB68F1E7D0F8B4321B6941
:10589000EDE7D0F8B4325B69E9E7D0F8B4329B6940
:1058A000E5E7D0F8B8329B6B002BE2D00DF1060291
:1058B0009847B3E7037C002BDBD1D0F8B8320DF169
:1058C00006005B6B9847A9E7037C002BD1D1D0F889
:1058D000B8320DF106001B6B98470723B8E78B8899
:1058E000002BC6D1CF88002FC3D14D887F2DC0D8C3
:1058F00090F89C32032BBCD0E9B280F89E12FDF7E1
:1059000045FA204600F0BAF925B1022384F89C320A
:1059100000256BE7012384F89C3267E78D78464EBB
:10592000012D357003D9FFF733FF03255EE790F8AB
:105930009C32022B08D0032B16D0FFF729FF3178B9
:105940002046FFF70FFEF0E7002D61D001214160F6
:10595000FFF701FE0546204615B1FFF719FF45E7A1
:1059600000F08CF90323D6E755B9022380F89C3266
:1059700045602946FFF7F6FD204600F07FF935E740
:105980004168012944D0C9B2FFF7ECFD317861606C
:105990002046FFF7E0FD0546002839D02046FFF7F6
:1059A000F7FE21792046FFF7DDFD0223B3E7CA8821
:1059B000012A7FF45EAF90F89C32002B3FF459AF80
:1059C000022B04D9032B7FF454AF011D33E70146AA
:1059D000002541F8085F00F025F907E790F89C32B0
:1059E000013B022B3FF645AFCB88022B7FF441AF42
:1059F0000123C360D0F8A4320BB10323C360022299
:105A000004F10C0117E74B88012B81D1C0F8A432B7
:105A1000204600F033F97BE790F89C32013B022BE3
:105A20003FF627AF4B88012B4FF000057FF4DEAE29
:105A3000C0F8A452A0E700BFEC2D002070B50B7891
:105A400003F06003202B04460E4602D0402B00D00A
:105A5000B3B994F89C32013B022B11D83379022B55
:105A60000ED8D4F8B83231469B6820469847F38860
:105A700005461BB910B9204600F000F9284670BD54
:105A80002046FFF785FE0025F8E770B50B7803F098
:105A90006003202B04460D4614D0402B12D06BB966
:105AA0006A788B88012AD9B221D040D3032A05D144
:105AB00090F89C32022B31D0032B0BD02046FFF7FD
:105AC00067FE12E0D4F8B832294620469B68BDE84C
:105AD000704018476B882BB94A0603D0EB880BB986
