:020000040800F2
:10000000001800208D3800080D3900080D3900084F
:1000100000000000000000000000000000000000E0
:100020000000000000000000000000000D39000882
:1000300000000000000000000D390008190500084C
:100040000D3900080D3900080D3900080D39000878
:100050000D3900080D3900080D3900080D39000868
:100060000D3900080D3900080D3900080D39000858
:100070000D3900080D3900080D3900080D39000848
:100080000D39000800000000000000000D390008D4
:10009000000000000D3900080D3900080D39000876
:1000A000000000000D3900080D3900080D39000866
:1000B0000D390008000000000D3900080D39000856
:1000C0000448054B10B5834203D0044B002B00D0ED
:1000D000984710BD08010020080100200000000022
:1000E00006480749091A8B10C90FC91810B54910DD
:1000F00003D0044B002B00D0984710BD080100200E
:10010000080100200000000010B5074C2378002BE8
:1001100009D1FFF7D5FF054B002B02D0044800E0C2
:1001200000BF0123237010BD080100200000000063
:1001300010390008054B10B5002B03D004490548C1
:1001400000E000BFFFF7CCFF10BDC046000000007C
:100150000C0100201039000870B50C4D0C4E761BB8
:10016000B61005D0002408CD01349847A642FAD134
:1001700003F0CEFB074D084E761BB61005D00024C9
:1001800008CD01349847A642FAD170BD883A0008DC
:10019000883A0008883A00088C3A0008F0B5C6464C
:1001A00000B50F2A41D903270D003E0005430C007E
:1001B00003002E402F423DD11500103D2D09A846C9
:1001C0002D01AC46844427681D001F6067685F608E
:1001D000A7689F60E7681034DF6010336545F2D18F
:1001E00045460F230C2401352D01491913404519AB
:1001F000144222D08C59AC5104369C1B032CF9D8E4
:10020000043B9B0801339B00ED18C91803231A40D7
:10021000561E002A06D00023CC5C1A00EC54013391
:100220009642F9D180BCB846F0BD0500561E002AA2
:10023000F1D1F7E70500561EEDE71A00F6E7C046D4
:10024000F0B50500830749D0541E002A45D00300AD
:100250000326CAB202E00135013C3ED301332A70C5
:100260003342F8D1032C30D9FF220A40150215433E
:100270002A0415430F2C34D92700103F3F093E01B3
:10028000B4461E001A00103666441560556095602D
:10029000D5601032B242F8D101373F01DB190F2788
:1002A0000C22274022403C00002A0ED03E1FB608F8
:1002B000B400A4461A001C1D644420C2A242FCD112
:1002C00003240136B6009B193C40002C05D0C9B26E
:1002D0001C19197001339C42FBD1F0BD03001400BE
:1002E000C0E72700E2E7C04602B47146490849006A
:1002F000095649008E4402BC7047C04602B471469C
:1003000049084900095C49008E4402BC7047C04658
:1003100003B47146490840004900095A49008E4417
:1003200003BC7047002243088B4274D303098B42FD
:100330005FD3030A8B4244D3030B8B4228D3030CB5
:100340008B420DD3FF22090212BA030C8B4202D357
:100350001212090265D0030B8B4219D300E0090A7F
:10036000C30B8B4201D3CB03C01A5241830B8B4288
:1003700001D38B03C01A5241430B8B4201D34B0371
:10038000C01A5241030B8B4201D30B03C01A5241D6
:10039000C30A8B4201D3CB02C01A5241830A8B425B
:1003A00001D38B02C01A5241430A8B4201D34B0244
:1003B000C01A5241030A8B4201D30B02C01A5241A8
:1003C000CDD2C3098B4201D3CB01C01A524183095C
:1003D0008B4201D38B01C01A524143098B4201D396
:1003E0004B01C01A524103098B4201D30B01C01AC1
:1003F0005241C3088B4201D3CB00C01A524183083B
:100400008B4201D38B00C01A524143088B4201D367
:100410004B00C01A5241411A00D2014652411046C7
:100420007047FFE701B5002000F006F802BDC046A6
:100430000029F7D076E770477047C0460120174B78
:1004400086B09969014399619A69024080200192BE
:10045000019AD96940050143D961DA6902408020D7
:100460000292029A5969C003014359615A690240D4
:1004700080200392039A59698002014359618021C7
:100480005A69C90202400492049A5A690A435A619D
:100490005B690B400593059B06B070470010024056
:1004A00030B58DB01822002106A8FFF7C9FE8022C2
:1004B000174C5202636B13436363636B1342FCD0AC
:1004C0000723002502930121043B02A8039304950E
:1004D000059502F083F880228021236B0905934360
:1004E0002363E26906A80A43E261E36906950B40CB
:1004F0000193019B80239B050793064B0895099365
:1005000022230A93023B0B9302F0F4F80DB030BDA6
:10051000001002407FBB000010B502F04BF910BD87
:1005200010B502F037F902F045F9FFF7B9FF00F016
:1005300031FA00F097FC01F0BBF801F07BF80022E3
:100540000421012000F0BEFC00220421100000F074
:10055000B9FC00F017FA00F0E3FC01F08BF8F8E7C3
:1005600003000220032B01D8014AD05C7047C0462B
:1005700078390008084B026882B09A4209D180207D
:10058000064A0004D1690143D161D3690340019354
:10059000019B02B07047C046005C00400010024062
:1005A0008C2310B59B00C1184033C05802F0E8FD01
:1005B00010BD4B01C318FC331A6C9C2310B59B0073
:1005C000C05802F00DFE10BD4B01C318DA6B9C231E
:1005D00010B59B00C05802F049FE10BD9C2310B519
:1005E0009B00C05802F0ECFE10BD70B59C250400C5
:1005F000AD000121405902F0C8FE605902F09BFE97
:1006000070BD00009C2310B504009B00C05802F090
:10061000BFFEA369002B04D00623024A11690B43D5
:10062000136110BD00ED00E0836910B50400002BDC
:1006300006D00621054A13698B431361FFF730FF8B
:100640009C239B00E05802F0AFFE10BD00ED00E0DF
:10065000F8B59C2305001D489B00C550B0261C4BD7
:100660000024022703600623B600A85187600761B3
:1006700043608461C461046201F078FBA8592200E0
:100680002100182301F03BFFA859220058238021A4
:1006900001F035FFA85922009823012101F02FFF16
:1006A000A8592200D823812101F029FF8C23390089
:1006B000A85922005B0001F022FFAC23A8592200B8
:1006C00082215B0001F01BFF2000F8BD2401002007
:1006D000005C0040B02310B59B00C05801F0A8FB9F
:1006E000FFF73EFF10BD10B514001A002300B02420
:1006F000A400005901F0C1FBFFF732FF10BDB02389
:1007000010B59B00C05801F0E8FBFFF729FF10BDB2
:10071000B02310B59B00C05801F0EFFEFFF720FF9B
:1007200010BDB02310B59B00C05801F083FEFFF749
:1007300017FF10BDB02310B59B00C05801F0B1FEEB
:10074000FFF70EFF10BDB0239B00C2584BB2002B29
:1007500006DA7F231940490152182A32107870476F
:10076000490151182B31FF310878F8E7B02310B553
:100770009B00C05801F06FFBFFF7F2FE10BD10B5F3
:10078000B024A400005901F0EEFBFFF7E9FE10BD14
:1007900010B5B024A400005901F0C3FBFFF7E0FE40
:1007A00010BDB02310B59B00C05801F0D5FB10BDA3
:1007B000122301480B8070471C00002004230148CD
:1007C0000B80704730000020022301480B807047E7
:1007D00090390008122301480B8070477C390008CB
:1007E00000207047AE229200825803000220002AA7
:1007F00006D0123048431B1800205218D861907759
:10080000704700002E23038000487047340000200A
:100810000A23038000487047A439000800200A29F1
:1008200002D13223014813807047C046B039000816
:10083000AE239B00C35870B505000C00002B01D1FE
:10084000022070BDFFF7ADFF012C0DD10B4E81B220
:100850002D36300000F06EFD1023320021002800FC
:10086000FFF796FF0020ECE7022CE9D1034E81B29E
:100870003D36300000F01EFE4023EEE75C0600200F
:10088000F8B504000027104E0F4B5B7BBB4204DC25
:10089000AE2300209B00E050F8BD357D20002900EC
:1008A000FFF72DFF072314222B4053436DB2E318AB
:1008B000002D04DA00229A6101370736E4E70022AE
:1008C000FC33DA65F8E7C04634000020F8B50400D0
:1008D00000271A4D194B5B7BBB4213DC184DAE232E
:1008E0002A009B00E5500121102320002D32FFF744
:1008F0004FFF2A004023022120003D32FFF748FF2E
:100900000020F8BDEB7D2E7DAA7D1B021343310034
:100910006A7D2000FFF7E7FE07231422334053438C
:1009200076B2E318002E04DA133A9A6101370735DC
:10093000D0E7FC33133ADA65F8E7C046340000200C
:100940005C0600202E2303800048704734000020FE
:100950002E2303800048704734000020020008481E
:1009600010B5036B0C00002B02D00024200010BD3A
:100970000B0001638121FFF702FF0028F5D1F5E7A5
:100980009803002010B5024801F004FB10BDC046DA
:100990002401002010B5074C00222000064902F077
:1009A000B1FB0649200002F0C7FB200002F0CDFB9E
:1009B00010BDC04698030020000000206400002005
:1009C000AE2301000F2206489B00C3580A409B1823
:1009D000002210B59A77FFF79BFE4342584110BDA5
:1009E0009803002010B54B78002B16D14C88002CB2
:1009F00013D110220A4902F013FF0121220008003E
:100A000000F060FA22000121200000F05BFA822051
:100A1000FFF7D6FF8120FFF7D3FF002010BDC046AF
:100A200092390008F8B5AE2315001E4A9B00D7582E
:100A30000400002F01D10020F8BD0378002B0DD059
:100A40000020012BF8D10F2263781340FA18927F0F
:100A5000824202D05B00DD53EEE72270A368AB4216
:100A6000E9DB2A006068FFF799FB0F230126617814
:100A70000B40FA18967707220A40944614226046E3
:100A800042430848B3408218D5610022DA53ABB222
:100A90006268FFF774FEE36830005D19E560267058
:100AA000CAE7C0469803002030B504000D008FB09F
:100AB0001C22002107A8FFF7C3FB1422002102A873
:100AC000FFF7BEFB2900200003AB07AA02F06EF976
:100AD000002822D1099B0193002B20D1079B019371
:100AE00002930A9B0193022B05D102AB5A7B402350
:100AF000134302AA53730B9B02AA137300F000FE68
:100B000002AB1882FE230B4CDB00E358002B01D014
:100B100002A89847E3680133E3600FB030BD089B3B
:100B20000193029302AB5A7B80235B42134302AAD8
:100B30005373D6E7DC06002070B598B02822002158
:100B40000EA8FFF77DFB80202A4B8004D9692A4C30
:100B50000143D961DA6902400192019A8022596900
:100B6000D2021143596159691140029102995969A0
:100B7000114359615B6904A91A400392039B220047
:100B80000B0061CA61C321CA21C31C4D1434280063
:100B900001F022FE09A90A0049CC49C209CC09C2C8
:100BA000280001F019FE164C0025200002F060F824
:100BB000144B2000236010236360134BA560A361D6
:100BC00080235B00A383E5602561656101F0F5FE8C
:100BD00001230EA9200015931693149512951395D1
:100BE000179501F074FF2000084902F062F918B06F
:100BF00070BDC046001002402839000800040048BB
:100C0000A00000200064004000010001138F0000DC
:100C100070B506256843124C6060181C042B00D97F
:100C20000420C0B20F4B01388000C358E3600B1C96
:100C3000102900D91023DBB20B49013B9B005B5804
:100C40002361131C082A00D90823DBB2074A013BA1
:100C50009B009B582000636101F0AFFE70BDC04651
:100C6000A0000020E4390008F4390008343A0008F4
:100C7000FE23024ADB00D0507047C046DC0600204D
:100C8000014A024BD0507047DC060020F4070000F8
:100C9000030070B5002810D0FD220F49D2008858FB
:100CA000441C632800D100240C4A8A58A24205D172
:100CB00001208B68404201338B6070BD1422424397
:100CC0008A18183261CB61C2100024CB24C0FD23E6
:100CD000DB000020CC50F0E7DC060020EC07000031
:100CE000431E984110B5C3070248836001F065FEBA
:100CF00010BDC046A000002010B5094C002807D048
:100D0000200001F058FF0721200002F028F810BD54
:100D10000721200002F023F8200001F07CFFF6E715
:100D2000A0000020F0B5224F89B0380002F0D7F8BB
:100D3000FD23204C204DDB006659E358B34231D0EF
:100D40001822002102A8FFF77BFA00230193143335
:100D50007343E3189A1DD17FD27F9B6952B2002A58
:100D600022DADB00DB08039304230493142272438A
:100D7000A3180533DB7F4911069302231C32194067
:100D800005913800A21801AB02A901F087FF0028E5
:100D900008D1019B002B05DB6259531C632A00D14B
:100DA0000300635109B0F0BD5B055B0D0293DDE705
:100DB000A0000020DC060020EC07000010B5002198
:100DC000FFF772FE10BD10B50121FFF76DFE10BDDB
:100DD000024A1368013313607047C046DC060020E6
:100DE00010B5FFF7F5FF10BD10B5FFF7F1FF10BD0F
:100DF000024A5369013353617047C046DC06002044
:100E000010B5FFF7F5FF10BD7047704770B50400CF
:100E100002F066F9A8210200490200200F4B0A42A5
:100E200003D05968043001315960510701D50121BF
:100E30000843C021C9000A4201D002221043084AD7
:100E40009D58002D06D0002804D01A695968D2B2E6
:100E5000C9B2A847200002F045F970BDDC060020A9
:100E6000F4070000F0B58027144DBF026B698DB008
:100E70003B436B616B6902A93B400093009B0B00F5
:100E80000F4A51CA51C39026F60511CA11C330004A
:100E900001F0A2FC07A90A006B69094C3B436B6196
:100EA0006B6914341F400197019B29CC29C209CCDE
:100EB00009C2300001F090FC0DB0F0BD00100240FE
:100EC0005039000870B50E000500140000F012FC47
:100ED0000A236B4311495E52CB18DA88002A02D1EB
:100EE00001320243DA80F21E0A23012A08D90022C5
:100EF0006B43CB189A800A20454349194C8070BD3A
:100F00003222032E00D096326B43CB189A80002CED
:100F1000F1D0001901240443A4B2ECE7D40E002060
:100F2000F8B500F0E7FB902706000025214CFF05EF
:100F3000E288002A18D0B31AA1889BB28B4213D33F
:100F40002388022B06D8002B07D0013B5A4253417D
:100F5000237202E0033B012B0BD90023E380237AA9
:100F6000002D18D0012D1ED001350A34032DDFD1FC
:100F7000F8BD0123207A521858401A436388207222
:100F8000E280002BEBD0B342E9D8002202212800F6
:100F9000FFF798FFE3E7002B02D00223BB61E3E7F2
:100FA00080239B02FAE7002B01D0BD61DCE78023A0
:100FB0005B02F3E7D40E0020044B9972DA72C20789
:100FC00003D51022197A0A431A727047D8000020FC
:100FD00010B5244B04009A7F012A2AD17F2020409B
:100FE00014280ED805280ED906380E280BD8FFF77E
:100FF00085F90B0D0A0A0A0A0A0A0F11160A0A0ACB
:1010000018001F280FD010BD9976FCE7D976FAE7B3
:101010001977F8E7FF2900D180395977F3E7197676
:10102000F1E75976EFE749B200220029EBDB9A7726
:10103000E9E7002AE7D11F3202401820044209D113
:1010400004300442DFD0501F0228E8D8FFF74CF9E3
:10105000E9DCDE001F2AD6D149B20029D3DA1E3AD4
:10106000E5E7C046D800002000B51B4A937F012B5E
:1010700022D17F21084014280CD8FFF73FF90F290F
:101080002929292911132929292929291517192934
:1010900029291B001F3843425841C301180000BDD5
:1010A000937EFBE7D37EF9E7137FF7E7537FF5E7FE
:1010B000137EF3E7537EF1E7002B09D11F2108408F
:1010C0000728EBD8FFF710F906EAEAEAF4F6ECEEA7
:1010D0000023E3E70123E1E7D8000020F8B505008D
:1010E0000F003E2901D90020F8BD124E3F21845B3C
:1010F000402223000B40D31A9BB29F4211D964189F
:101100008C43E4B200190021FFF79AF802232B5513
:1011100000232A195370E0220234E4B29200AC5347
:10112000AB52E023A85B9B00C1199942DBDC281875
:10113000DAE7C0468203000030B5074D3F23425B2B
:1011400014009C43230001339BB2C45C5218013449
:10115000C454425330BDC0468203000070B5040041
:1011600000F0CEFA164E0500A25B022A13D8154CE9
:10117000E088002801D1002070BD281A80B2112813
:10118000F9D9002210481100FFF74CFC0028F2D0DA
:101190000020E080F0E73F233F3221000A489A43D5
:1011A000FFF740FC0028E6D0E0210223002289005E
:1011B000237062706252A353024B0120DD80DBE793
:1011C00082030000D8000020C8000020F7B5404C82
:1011D00005002378002B17D0437B9B0604D4ED2217
:1011E00003210120FFF76EFE3A4E10213000FFF779
:1011F00075FF00280FD13000FFF7B0FF002804D1A1
:101200000223227A13432372F7BD10213000FFF727
:1012100065FF0028F8D02B7B1A1C082B00D9082268
:101220000D2169566B7BD2B2002901DA20210A43D5
:101230005B0601D510231A43202102706C7B2B68BA
:101240000A4236D0DB000C4201D01F390B43052780
:10125000190A43708170190C1B0EC170037105309F
:101260002B8AE02101936B4689001C79735A047024
:10127000002B2AD1019B841C1B0A43700237735A2E
:1012800001337352D30608D42000291D2A7BFEF7B0
:1012900085FF297BCF196418FFB26B7B9B0603D5B2
:1012A000AB7B01372370FFB23000B9B2FFF744FFC8
:1012B000AAE75B019BB20C4201D001210B434370B2
:1012C0001B0A837003270330CAE7441C0137D6E7A3
:1012D000D8000020F20E002070B505210500FFF7B0
:1012E000FDFE041E22D000F00BFA422301262370DB
:1012F000E0703E3B000A0521207163702800A67053
:10130000FFF71AFF03212800FFF7E8FE00280DD0A1
:10131000074C0321227A237C4670134040228370BD
:1013200002702800FFF708FF0023237270BDC0463B
:10133000D800002013B5040001291AD94378022BE4
:1013400018D0032B0DD0012B13D1007801380B28B6
:101350000FD8FEF7D3FF82880E930E960E0EA00EC6
:101360000EA50378032B04D180784F4B9873FFF7B9
:10137000B7FC13BD007801380B28FAD8FEF7B4FF8C
:1013800006F92F58F9F9F9F95C616569E27846497F
:101390000F200A73A37801AC4B73694618405B06B3
:1013A0005B0F01300133C87023703F2313400133BA
:1013B000CB8068466B46920901324A71CA88053370
:1013C000CA780630033122780088097822781B78A1
:1013D00080B2C9B2D2B2DBB2FFF71AFCC9E7A37878
:1013E000314C04212370002B00D10239002202204D
:1013F000FFF768FD2078FFF77FFC2378002B09D0EA
:1014000000F07EF9A0802948FFF766FF23780221CB
:10141000002B00D1012100221000FFF753FD21789D
:1014200000224B1E994101200131FFF74BFDA0E73F
:10143000A2781D4BDA779CE7E178A078FFF7C8FD2A
:1014400097E7A278184B5A7093E7A278164B1A7454
:101450008FE7A278144B9A708BE7134B1A7BE270DC
:101460005B7BA37005E0104B11495869FEF75AFFEA
:10147000A07010212000FFF771FA7AE70A4BDB7F9A
:10148000EFE7094B1B6A1A0EA2701A0CE2701A0AD7
:1014900022716371EDE7A078FFF7E6FDE070E8E701
:1014A000014B9B78DDE7C046D8000020F20E0020FB
:1014B00040420F00F0B58DB001290AD943780239B6
:1014C00004930023871C8CB20293029B049A9342DC
:1014D00001D10DB0F0BD002CFBD0402140223B7863
:1014E0000093631E9BB20193009B19401342F0D1FD
:1014F00007AD28002C3AFEF7A3FE4C4B1B78002BBF
:10150000E7D02022009B134258D0019B032BE0D947
:10151000B9787B78FA780902194312041143012241
:101520003B797E1D1B060B431A4003928022DB0889
:101530006A732B60053C0F25009BA4B21D40291C3B
:10154000082D00D9082107ABCAB21973A9B20591B9
:10155000A542BED80099C90640D4310008A8FEF7BC
:101560001DFE059B7619E41AA4B2039B002B06D03E
:10157000002CAED0327807AB013C9A73A4B200F0D5
:10158000BFF807AB1882ED2203210020FFF79AFC79
:1015900000F0B6F81026050007A8FFF779FB002831
:1015A00021DB039B002B2ED0202206AB5B7C07A8FF
:1015B000134306AA5374FFF709FE24E0019B012B95
:1015C00000D886E7BB787A781B02134301221A40C1
:1015D0005B0903922B60FE1C033CACE740215A7B65
:1015E0000A435A73C1E7FFF79DFB00F089F80F4AE1
:1015F000401B117A80B2314202D10D4B9842CBD9B7
:1016000001230B431372E1B28CB2002900D160E7D1
:10161000019B019A1B1B9BB29A4200D259E70133EE
:101620009BB2FF18029B0133DBB24DE7D8000020CC
:101630008C5B00000122E0210020094B10B59A7755
:10164000084B89005852921807491A805A52FFF7DE
:1016500073FA0648FFF70CFB0548FFF711FB10BDB6
:10166000D8000020F20E002082030000CD110008F7
:10167000B90F000810B500F043F80A4A0A4C137875
:10168000002B09D093880949C31A9BB28B4203D916
:1016900090802000FFF720FE2000FFF75FFDFFF79E
:1016A00041FB10BDD8000020F20E00208C5B000032
:1016B00002200C4A82B0D1690143D161D3690A4A40
:1016C00003400193019B094B09499A621A680A4039
:1016D0001A601A681A60012219680A431A6002B077
:1016E0007047C04600100240FF07000000040040A1
:1016F000FFFC000010B501F069F880B210BD0000D9
:10170000014B586A80B270470004004070470000E7
:101710000230C38F024A1343C38700207047C0467C
:1017200080BF00000230C38F024A1340C3870020ED
:101730007047C0467F40000084B010B5040004929A
:1017400001220593831C0020DA87A21D5034D8871C
:101750000391D0872080DA8F03490A43DA8710BCCF
:1017600008BC04B01847C04680BF0000F7B50E782B
:10177000794AB300C3181C8805001440CA78009247
:1017800001220192009A032A09D81000FEF7B6FD43
:10179000023B3936802292001443009A01926F4A2C
:1017A0006F4F1443A4B21C801C883C403443144344
:1017B000A4B21C80F4000E7B2C195035002E00D0F2
:1017C0005FE0CE88487876087600002824D0298803
:1017D0000C198021C900641826801988490604D58F
:1017E00019880F405F490F431F8000995E4C012903
:1017F0000BD019880C402021614008E0C022D200A3
:1018000014430022CAE78022F9E7198821400A43DD
:1018100092B201981A80FEBD28880969844653480F
:10182000A4448444604606802D8851482C1924180D
:10183000002913D121884F4D0D404F492943218064
:101840001988490404D519880F404C490F431F805B
:1018500019884B4C0C40C0218901CDE73E2906D8A0
:1018600001264D0831406D18AD022580E8E71F269E
:101870004D0931404E4271416D1A3F49AD020D4351
:10188000F3E71E883F483E4006438020C000844660
:101890001E802E883619B44460460E89760876007C
:1018A00006802D8831482C194D8924186D086D004B
:1018B0002580802449782C4D314EE401002921D126
:1018C0001988214204D019882C4C394021431980B1
:1018D00019882D4C490604D519883940214389B20D
:1018E000198019880F403C43A4B21C8019883140EC
:1018F000C026B6014E401643B6B21E8019880D4070
:101900002A4385E719888C4660462049204204D046
:101910001C883C400C43A4B21C801C88600604D583
:101920001C8810483C4004431C801C8827403943D5
:1019300089B21980009901290AD0198829402025E7
:101940004D401543ADB21D8019880E4032435FE70C
:1019500019880D40F5E7C0468F89FFFF8080FFFFA3
:101960008F8FFFFFC0800000BF8FFFFF04040000C7
:1019700006040000FF83FFFF0080FFFF80C000001F
:101980008FBFFFFF80810000C080FFFF80C0FFFF8E
:10199000F0B50B780A7B9B00C0184D78324B002ABB
:1019A0001DD10288002D0FD0520605D502882F497F
:1019B0000A402F490A43028002882E490A401343F5
:1019C0009BB203800020F0BD520405D50288274950
:1019D0000A4029490A43028002882849EEE780210B
:1019E000224A244E254CC901002D1DD105880D42E7
:1019F00004D00188204D1140294301800188204DE9
:101A0000490604D501881140294389B20180018823
:101A10000A401543ADB20580028814401C43A4B2AD
:101A2000048002883240CAE70788164D0F4204D06E
:101A300001881140294389B201800188490604D5F3
:101A400001880B4F11403943018001880A4015433A
:101A5000ADB20580028832401A4392B202800288F9
:101A600014402343ACE7C0468080FFFF8F8FFFFF09
:101A7000C0800000BF8FFFFF80C000008FBFFFFF4E
:101A8000C080FFFF80C0FFFF0B780B4A9B00C0188F
:101A90004B78002B09D003880849194010234B408C
:101AA00013439BB203800020704703880449194008
:101AB00080235B01F3E7C0468080FFFFBF8FFFFFFD
:101AC0008FBFFFFF0B7B002B19D10B789B00C01839
:101AD0004B78002B15D003885B0605D50388104A88
:101AE0001340104A13430380CB78012B07D003889F
:101AF0000D4A1A40202353400C4A13430380002010
:101B0000704703885B0405D50388054A1340084ADB
:101B1000134303800388074A1A40C0239B01EAE766
:101B20008F8FFFFFC0800000BF8FFFFF808000000D
:101B300080C000008FBFFFFF002902D180234C30FE
:101B4000038000207047802258300388120213431C
:101B50000380002070470630C08F80B2704700209D
:101B6000704730B580240133E40012195B088018F7
:101B70005B00CB18401A4418994200D130BD4A7816
:101B80000D7812022A4322800231F4E7F8B54C782E
:101B900006000D008B690A69087B0021012C55D1D4
:101BA0009A4201D2991A13003700A9619CB269695F
:101BB000503700281AD12300EA883000FFF7D1FF00
:101BC0002B783988DB00514A5B18F3189B181C806E
:101BD00028784F4A8000361833881A403023534003
:101BE0004C4A002013439BB23380F8BD2B789A00F7
:101BF000B2181088DA00430617D53B889B18464A6E
:101C00009B199B181C806A8923003000FFF7A9FFED
:101C10006A782B78002A10D19B00F3183F491A8864
:101C20000A403F490A431A80D2E73B889B18374A4B
:101C30009B199B181C802A89E6E7012AC8D19B00C2
:101C4000F31836491A880A403649EBE79A4201D21E
:101C5000991A1300A9612978002812D13200503254
:101C60001488CA002C49701800191218002B33D0A0
:101C70003E2B40D8012459081C40091989021180C3
:101C800030E0002C2ED13000CA0050301F490488AB
:101C9000711809195218002B05D11188224C0C40DB
:101CA0002249214306E03E2B0DD8012459081C404F
:101CB000091989021180184A00882978B218C900C8
:101CC00012188A18D2E71F241C4067427C41590928
:101CD000091B8902154CE4E7138813491940134B7B
:101CE0000B4313802878124A8000361833881A4034
:101CF000C0239B0173E71F241C40590963425C41C8
:101D00000A4B091B89021943B9E7C04602040000C7
:101D1000BF8FFFFF8080FFFF060400008F8FFFFF53
:101D2000C080000080C00000FF83FFFF0080FFFF35
:101D30008FBFFFFFF0B580255C08ED00521926002B
:101D40000D008018471A7A19002E07D16400001977
:101D50000919DB0701D503880B70F0BD1288013E1D
:101D600092B22A70120A6A700235ECE7F0B50400EC
:101D7000012587B0002831D02C4D435DDAB2002B0D
:101D800004D18A239B00C254FEF7F4FB032363555E
:101D90002068FFF7C7FC00230126180061688B420A
:101DA0001FD30023180099422CD823006A46103311
:101DB00043CB43C203CB03C2A268E36861682068D7
:101DC000FFF7BAFC0023621DD377012262551D0084
:101DD000E369934202D1200000F0A8FB280007B07D
:101DE000F0BD5A01A218170029373E70013F3B7021
:101DF000D386F8709063D0639A1C5201013310515E
:101E0000DBB2CCE75A01A21816002A36FF36307032
:101E1000FC32013E3370F070D06310641A000A3255
:101E2000520101331051DBB2BDE7C0462902000068
:101E300070B58A25AD00435D04000220012B09D056
:101E4000012363552068FFF77EFE2068FFF760FCE2
:101E50000020605570BD70B58A25AD00435D04005B
:101E60000220012B08D001236355631DD977206818
:101E7000FFF762FE0020605570BD70B507260E406A
:101E8000740149B20500001900291EDA210001245D
:101E900028316918293004700A614A780E70CB70B5
:101EA000002A00D0CE81022B01D100230B718A249D
:101EB000A4002B5D0220012B06D001232B5528689E
:101EC000FFF754FC0020285570BD21002931FF3157
:101ED0002A3000246918FF30DDE770B504000720C0
:101EE0000840430149B2E218002913DA2833E11807
:101EF000012329328A251370AD000870635D02202A
:101F0000012B06D0012363552068FFF741FD002017
:101F1000605570BD2933FF332A32E118FF320023A8
:101F2000E8E7F8B5072421404C0106193700FC37D3
:101F30007B64330000252A332936FF33FF36BD6426
:101F40003A641D70317021002931FF314118006859
:101F5000FFF71CFE2800F8BD072319400A3149018C
:101F600040184068704770B5072421404D0144195E
:101F7000236400262300E2630122666429332834A7
:101F80001A7021702900283141180068FFF7FEFD02
:101F9000300070BDF7B504000068FFF7DCFD802756
:101FA000030400D5DCE02068FFF7D5FD43050CD520
:101FB0002368AF490633DA8F20000A40DA87FEF73C
:101FC00014FB00212000FFF746FF2068FFF7C3FD48
:101FD000430405D52368A7490633DA8F0A40DA8718
:101FE0002068FFF7B8FD830405D52368A2490633AE
:101FF000DA8F0A40DA872068FFF7ADFDC3041CD5ED
:10200000042123680233DA8F8A43DA87DA8F49188A
:102010008A43DA8798239B00E25C012A04D10021DD
:102020002000E15400F096FA2000FEF7FDFA236844
:1020300092490633DA8F0A40DA872068FFF78BFD72
:10204000030515D5082220688D4D831CD98F0A43BE
:10205000DA87811DCA8F2A40CA870422D98F0A4392
:10206000DA87FFF778FDC30402D42000FEF7CAFA2E
:102070002068FFF770FD8025284220D09820236833
:102080008000991DCA8FAA43CA87225C002A00D00B
:10209000BFE104219A1CD58F54332943D1870821ED
:1020A000D58F2943D18701213C2221541B88200050
:1020B0009B08134099229200A35000F04BFA20682D
:1020C000FFF749FD830508D523686E490633DA8F8B
:1020D00020000A40DA87FEF781FA2068FFF73BFD0F
:1020E000C30505D5236868490633DA8F0A40DA87C5
:1020F000F7BD0F250F21D38F9AB21D400B4200D0A0
:10210000D4E01023110019401A4230D103885F4AED
:1021100013408022120213430380030050331A88B5
:10212000230028331B78DB00C3189B18584A200073
:102130009B181B88E26B9B059B0D6364D318E363BC
:10214000FEF742FA631DDA7F002A09D0206C0028CE
:1021500006D18022D97F114322684C321180D87772
:102160002068821DD38F1BB2002BC2DB1BE70288C5
:1021700080211600090193B20E400A4221D00300CB
:102180005033198894235B00E35C424ADB00C31898
:102190005B189B1822008C211B8829329B059B0D04
:1021A000FF328900D3616118D288FFF7C3FD22682E
:1021B0003949138820000B403B431380FEF7F0F9A8
:1021C000CEE71BB2002BCBDA0388334A250013403D
:1021D0003B43038003005033198894235B00E35C86
:1021E0002C4ADB00C3185B189B181B8829359B05FC
:1021F0009B0DFF35EB61002B0DD0696900290AD0DA
:10220000EA88FFF797FD6B69EA6931009B182000A7
:102210006B61FEF7CEF921681E4A0B0050331B8814
:102220008A18D2182B69002B0FD113881B4818402D
:102230001B4B034313800B881A4A1A40C0239B018F
:102240005340194A13430B808AE73E2B06D80125D9
:1022500058082B40C01880021080ECE71F25580951
:102260002B405D426B41C01A0D4B80021843F3E7CF
:10227000FFFBFFFFFFBFFFFFFFDFFFFFFFEFFFFFE2
:10228000FFF7FFFFFFFDFFFFFFFEFFFF0F8FFFFFC9
:1022900002040000060400008F0F0000FF83FFFF10
:1022A0000080FFFF8FBFFFFF80800000AB00C218DF
:1022B0000093138899B21BB20091002B3DDA13886A
:1022C000564906000B403B4313806B01E3181A008C
:1022D0003532FF32117850360C3A002956D1127837
:1022E0003688D20092194E49121852181288920557
:1022F000960D002A08D01A00FC331900FE32330074
:10230000128E096CFFF716FD690163181800FC3086
:10231000826C019392198264026C436C92199C4600
:102320000264002B02D0C06B864266D2611829314C
:10233000FF3120000978FEF73CF9009B3B4200D1B9
:102340000EE72368AA0099180A8836486D010240F2
:1023500080200002651902430A8029001A002831F2
:10236000097850321288C8001B189B182E4A20008A
:102370009B181A88EB6B9205920D6A649A182B6C65
:10238000EA63002B42D1FEF71FF9E9E611788A00D3
:1023900082181288C900520421D532888218521836
:1023A0002149521812889205960D002A08D01A0069
:1023B000FE32528EFC3319003300096CFFF7BAFC71
:1023C0006B01E3182933FF331A78236892009A18B7
:1023D000138816490B4016490B43138094E7328843
:1023E000821852180E49521812889205960D002A2A
:1023F000E6D01A00FE32928EDCE7019B20002933E2
:10240000FF3319786346FFF78CFD96E7FFF7ABFDC6
:10241000A6E62000FEF7F6F851E6C0468F0F000052
:10242000060400000F8FFFFF020400008F8FFFFFE4
:10243000C080000070B504000725636801200D40CE
:102440009D4223D84BB2002B21DA6B011900020008
:102450002831E318611829331A7001228A238A70FF
:102460000D709B00E65C022096420FD0E25420687B
:10247000FFF70AFB002D05D18C239B002068E11893
:10248000FFF76DFB8A2300209B00E05470BD4B01D9
:102490001900E3182931FF312A3300226118FF3374
:1024A000DAE770B504000F23626801200B40934205
:1024B0001BD806300840430149B2E218002915DA5A
:1024C0002833E1180123293200258A261370B6002B
:1024D00008708D70A35D0220012B06D00123A35547
:1024E0002068FFF7EFFA2800A55570BD2933FF33A8
:1024F0002A32E118FF320023E6E70020704710B5CA
:102500000C060BD50724214049012831411898B207
:10251000002A07D10A73C880002010BD4901293163
:10252000FF31F3E701228B600A73F5E703680200CD
:102530009A20012110B58000982411500020A40099
:10254000105554331A8811430222198019880A43FE
:102550001A8010BD7047000030B589B010221A49AA
:10256000684604ADFDF71AFE102228001749FDF752
:1025700015FE0C20164A53681840082809D00C286C
:1025800020D00438431E9841124B4042184009B0F5
:1025900030BD0F206C46D26A990C01400240645C49
:1025A000A95CC02280255202002013406D02AB427C
:1025B000EDD0934204D10848FDF7B4FE6043E6E74E
:1025C0000448F9E70448E2E7643A0008753A00086D
:1025D0000010024000127A00006CDC02F7B5040023
:1025E0000F00002801D10120FEBD01223B4D2B68C8
:1025F00013408B421CD321688B0722D4CB072FD4E6
:1026000001232A681A40BA4259D82368344D5B071F
:102610005CD4FFF7A1FF6B68324A1B061B0FD35C2B
:10262000D840314B1860002000F090F80020DBE724
:102630002B6893430B432B602B6813408B42D2D102
:10264000D9E7274A4B0704D5E0235068DB00034352
:102650005360F02053688343A06803435360CDE781
:1026600062681F4E012A1AD133689B03BBD5032130
:1026700073688B431343736000F0A8F801900C2338
:1026800072681A4063689B009A42B9D000F09EF8C5
:10269000019BC01A154B9842F1D90320A4E7022AE6
:1026A00003D133689B01E2D49DE7032A03D1736B06
:1026B000DB03DCD497E733689B07D8D493E72A6819
:1026C0009A432A602A681A429FD08CE76B68084AAE
:1026D0001340E26813436B609BE7C0460020024052
:1026E00000100240543A0008FC000020881300004B
:1026F000FFF8FFFF8022114B1205196910B50A433C
:102700001A611A690E490A401A61426803680D4944
:10271000134382681343C2681343026912041343CC
:10272000094A53601468436921401B020B4313603C
:10273000602311680B43136010BDC04600100240B7
:10274000FFFFFFF7FFC0FFFF006C004070B5050002
:10275000FA200D4B80001978FDF7E4FD0B4B0100CA
:102760001868FDF7DFFD00F00DF904000120002CD2
:1027700009D1032D07D802382200290000F0D8F82B
:102780002000034B1D6070BD00010020FC000020F4
:10279000040100201023064A10B5116800200B43E5
:1027A0001360FFF7D3FFFDF749FE002010BDC046C0
:1027B00000200240034A044B11681B785B18136029
:1027C0007047C046F815002000010020014B186832
:1027D0007047C046F81500200023F0B587B00A689E
:1027E0001400DC4001D107B0F0BD012614009E406A
:1027F00034400294324200D18EE04A6815000192C2
:10280000102295430395022D0DD107240F251C405E
:10281000A400A540DA0892008218176AAF430D6938
:10282000A5402F43176203225C00A240D543AC466B
:10283000032507689743019A2A40A240039D3A4323
:10284000013D0260012D0FD8624685681540CA68B7
:10285000A2402A4382604568019AB54301261209C5
:1028600032409A402A4342606546C2682A408D68D9
:10287000A54080242A43C260019A640522424BD0BD
:102880000125264A90279469FF052C43946192699B
:102890009C082A400592059A214AA400A4180F22F8
:1028A00002351D40AD00AA40A66896430022B842FA
:1028B00008D01C4F0132B84204D01B4F0132B8423D
:1028C00000D00332AA403243A260184A029C166824
:1028D000029D019FE4433543FF0301D435002540A9
:1028E00015605668029D019F3543BF0301D4350032
:1028F000254055609668029D019F3543FF0201D433
:10290000350025409560D568029E019F2E43BF0289
:1029100001D425402E00D660013360E7001002404C
:102920000000014000040048000800480004014085
:1029300030B5FF2503242A000440E400A2408901A9
:102940002940D243A140C3B200280ADBC0240B4B6C
:1029500080088000C018A40003591A401143015197
:1029600030BD0F200340083B05489B089B001B1807
:10297000D86902401143D961F2E7C04600E100E0A6
:1029800000ED00E08022431E5204012093420DD24C
:10299000C021074A07485360036A09061B021B0A45
:1029A0000B43036200200723906013607047C0460A
:1029B00010E000E000ED00E07047F8B504000120F1
:1029C000002C64D02518EB7F002B02D12000FFF7EC
:1029D000F3FF022722681368BB431360FFF7F6FE7C
:1029E000060023685A683A4244D101271A683A43DC
:1029F0001A60FFF7EBFE060023685A683A4247D098
:102A0000217E8022012949D119680A431A60617E1A
:102A10004022012946D119680A431A60A17E20226A
:102A2000012943D119680A431A60E17E1022012965
:102A300040D1196891431960217F082201293DD1B5
:102A400019680A431A60617F042201293AD1196882
:102A50000A431A60E168A26800200A4321690A4318
:102A600061690A43616801390A43DA6101236062DE
:102A7000EB770CE0FFF7AAFE801B0A28B1D9802370
:102A8000626A9B021343636205230120EB77F8BD62
:102A9000FFF79CFE801B0A28AED9F0E71968914326
:102AA0001960B4E7196891431960B7E71968914351
:102AB0001960BAE719680A431A60BDE719689143BB
:102AC0001960C0E7196891431960C3E7704770B592
:102AD000431CDB7F013B012B66D880240368012067
:102AE000A4001A59872602431A514A69E23CFF3C66
:102AF0001440A040B6009C59C54384439C51CC6906
:102B0000002C35D1103E9C59D2002C409C51CC68F1
:102B10004E682404B6B2344390269A18B6009451F5
:102B20008C680E682404B6B234439126B6009451E2
:102B300081228C699200002C2FD19C582C409C50F3
:102B400085220C699200002C2AD19C5825409D506A
:102B50000A6A012A04D1872189005A581043585023
:102B60008021012089005A58824300205A5070BDAC
:102B7000012CDDD18326B6009C59D20004439C5120
:102B80000C684E682404B6B2344390269A18B600F6
:102B900094518C68CE682404C5E79C580443CEE762
:102BA0009C5804439C50D3E78023426ADB021343C2
:102BB00043620120DBE7F7B5461CF37F0400DDB27A
:102BC000012B21D10133F37702682F001368AB4347
:102BD0001360FFF7FBFD019023685A6813003B4028
:102BE0003A4202D11D0063620CE0FFF7EFFD019B4A
:102BF000C01A0A28F0D98023626A9B0213436362D9
:102C00000523F3772800FEBD8023426A1B0313438C
:102C100001254362F6E7F8B5451CEB7F0400022B63
:102C200020D101260268136833431360FFF7CEFDFD
:102C3000070023685A68324206D0022100201A6831
:102C40008A431A60EE77F8BDFFF7C0FDC01B0A2863
:102C5000EFD98023626A9B02134363620523EB77FB
:102C60000120F0E78023426A5B0313434362F7E7E6
:102C700010B504000120002C0FD02000FFF7CBFF7F
:102C80002000FFF723FF8023002022681B02116829
:102C90000B43136060620134E07710BDF0B5441C53
:102CA000E67F0568013EAC68012E54D866014ED51A
:102CB000A401A40F032C06D18023426A1B041343F2
:102CC000436201203DE00120A040186023008E688F
:102CD000CF681833002E35D10868400538431B01F2
:102CE0005851C2200E6924012B1940001E50097D45
:102CF000012903D11E58FF313143195056791179FA
:102D0000907936022C190E43000406432000D17935
:102D10008D3009063143FF30016051781578907885
:102D20000902D2780D430004C021284312068934D9
:102D30000243FF3422600122490058580243002018
:102D40005A50F0BD48683E43C0003043C7E7802377
:102D5000426A9B03B3E78023426ADB02AFE710B508
:102D6000421CD27F0300013A012A18D8CA0704D5B1
:102D7000802200688468224382608A0705D5802209
:102D80001868120284682243826000204A0705D531
:102D90001A68802391681B040B43936010BD802246
:102DA000416AD2020A4342620120F7E7F7B5441CA8
:102DB000E47F013C012C00D977E004680194019D77
:102DC0000324002909D1EE68264208D18023426AF3
:102DD0009B031343436201205EE02E69F4E7D8268B
:102DE000019D0C012C1904257600A7592F409760EE
:102DF00053D1A7597F0D176002270F25A6593E40D2
:102E0000B337FF37D660E6592E401661E659E459CC
:102E1000360A240C5461F6B2019C96610A01A51889
:102E2000B935FF352C681C700468A418B934FF3418
:102E30002468240A5C700468A418B934FF34246838
:102E4000240C9C700468A418B934FF342468240E40
:102E5000DC700468A418BD34FF3424681C71046855
:102E6000A418BD34FF342468240A5C710468A418D3
:102E7000BD34FF342468240C9C710468A218BD3250
:102E8000FF321268120EDA7102682023002908D17D
:102E9000D0680343D3600020FEBDA759FF085760E8
:102EA000AAE711690B431361F5E78023426ADB024D
:102EB0008FE7421CD27F0B00013A012A05D8026835
:102EC000002051691943516170478023426ADB0237
:102ED000134343620120F7E7704770477047F0B52E
:102EE000036885B05E695A689F680192DA683400A9
:102EF00002921A69050003929A6900920122144015
:102F0000164222D03C001440174206D09A60BB07FC
:102F100000D4AAE0FDF75CFF002480235B001F4281
:102F200007D02A689360BB0500D4AEE02800FDF707
:102F300057FF80235B021F4207D02A689360BA03C1
:102F400000D4B1E02800FDF74FFF330708D5102368
:102F5000029A1A4204D08022920014432A68D36055
:102F6000730708D50823029A1A4204D02A68280059
:102F7000D360FDF73DFFB30706D52B68DB689B07E1
:102F800002D02800FDF71AFF730608D51023039A14
:102F90001A4204D08022D20014432A681361B30677
:102FA00008D50823039A1A4204D02A68280013611E
:102FB000FDF726FFF30606D52B681B699B0702D099
:102FC0002800FDF700FFB30308D51023019A1A4229
:102FD00004D02A6828005360FDF716FFF30308D5D4
:102FE0000823019A1A4204D02A6828005360FDF78A
:102FF0000CFF33042FD5019B2A685B0729D5F30505
:1030000004D501230099194200D01C43B30504D50F
:1030100002230099194200D01C43730504D50423F0
:103020000099194200D01C43330512D57021009B32
:1030300000980B4008420CD0402B49D040D8202BA0
:1030400048D0302B48D0102B41D0702193698B434E
:10305000936104235360002C05D06B6A28001C4345
:103060006C62FDF7D3FE05B0F0BD7B0707D40823E3
:103070003C001C401F4205D1FFF72EFF4DE7802486
:1030800024014AE78024640147E77B0503D58023B8
:103090009B011C434DE73B0502D58023DB01F8E78C
:1030A0002800FFF71AFF44E77A0303D580231B02A9
:1030B0001C434AE73A03FBD42800FFF70FFF44E71D
:1030C000502B0BD0602BC0D180235B0000E0082385
:1030D0001C43BAE71023FBE72023F9E78023F7E737
:1030E000406A7047431CDB7F013B012B03D8002360
:1030F0004362180070478023426ADB021343436235
:103100000120F7E7022310B5002813D0AD239B0060
:10311000C458002C01D00024C450002902D0AC2394
:103120009B00C150A72301219B00C1540270FDF7F1
:103130008FFA0023180010BD03000220002903D0DD
:10314000AD22002092009950704710B5FDF7C2FAE9
:10315000002010BDAD239B00C35810B5002B01D13A
:10316000022010BD1B6898470028FAD0F8E7AD236D
:1031700010B59B00C3585B689847002010BD000045
:10318000AA239B0070B5C5180400280000F034FB8A
:10319000A52301221F209B00E250104BE25A163B50
:1031A000E2501033E15C0840032811D82900FDF7F4
:1031B000A5F80B02070B200000F060FA002070BD9C
:1031C000200000F083FAF9E7200000F013F9F5E79A
:1031D0007F2320009943FDF7A4FAEFE7AE02000039
:1031E00070B50D0004001100002D2ED1A5239B0009
:1031F000C258032A22D102005532FF32D368106927
:1032000083420AD91B1AD36082B2984200D99AB27B
:10321000200000F01BFB280070BDAD239B00E3588D
:103220001B69002B06D0A7229200A25C032A01D1C1
:1032300020009847200000F011FBECE7052AEAD1B6
:103240002900C550FDF76DFAE5E7AD239B00C35893
:103250009B69002B08D0A7229200825C032A03D12D
:10326000290098470025D6E70225D4E7F8B50D00D8
:1032700004001100002D4DD1A5239B00C358022B43
:1032800041D1036A466AB34213D99B1B03629AB2C7
:1032900000F0D4FA2B002A0029002000FDF778FA6C
:1032A000A8239B00E25C012A01D10022E2542800FD
:1032B000F8BDC76931003800FDF7BAF800290DD113
:1032C000BE420BD8A626B600A3599F4206D22A00BA
:1032D0002900200000F0B2FAA551DBE7AD239B00E6
:1032E000E358DB68002B06D0A7229200A25C032AD9
:1032F00001D12000984780212000FDF712FA20001C
:1033000000F0B8FACCE704229343C9D18021FDF73D
:1033100008FAC5E7AD239B00C3585B69002B08D0B2
:10332000A7229200825C032A03D129009847002536
:10333000BDE70225BBE7002270B504001100402361
:10334000FDF7D1F9230001254026FC338021DD65FE
:103350009E66002233002000FDF7C5F9A723002157
:103360009B00A5616662E554083BE1501033616043
:10337000E1501433E3588B4205D0AD239B00E35852
:1033800020005B689847002070BD017400207047E2
:10339000A7239B00C15C034A81540422C25400202D
:1033A0007047C0469D020000A7239B00C25C042A10
:1033B00002D1024A825CC254002070479D02000084
:1033C000A72310B59B00C35C032B06D1AD239B0044
:1033D000C358DB69002B00D09847002010BD10B502
:1033E00004008021FDF79DF900212000FDF799F9E7
:1033F00010BD000060220B7873B513400D0019005A
:10340000921820390400114212D0002B00D0A3E002
:103410006878092800D99FE0FCF77AFFFD001B01BE
:103420009E0013019E00900012009E00E700B10074
:10343000AD239B00C35829009B689847002076BDA8
:1034400000236A46D3806988080A0138062800D913
:1034500082E0FCF753FF04172681814C5700AC2310
:103460009B00E358207C1B686A46911D98476B4679
:10347000D98800295DD0EA88002A4FD1200000F0C9
:10348000EDF9DBE7AD23227C9B00E358002A06D14F
:103490009B6A6A46901D984702234370E7E7DB6A00
:1034A000F7E7C9B2052917D8AC2308009B00E358F9
:1034B000FCF724FF03080A0C0E105B68002B4BD0AE
:1034C000207CD1E79B68F9E7DB68F7E71B69F5E744
:1034D0005B69F3E79B69F1E7AD239B00E3589B6BC6
:1034E000002B39D06A46200006329847BFE7237C7C
:1034F000002B31D1AD236A469B00E358901D5B6BD6
:103500009847B4E7237C002B26D1AD236A469B0065
:10351000E358901D1B6B98470723BEE70B1C914295
:1035200000D9131C69469AB2CB800100200000F03C
:1035300077F9EB88002B00D080E79FE7AB88002B62
:103540000AD1EB88002B07D16E887F2E04D8A725DF
:10355000AD00635D032B03D12000FFF740FF6DE753
:10356000444BF1B2E1542000FDF700F9200000F0D7
:1035700075F90223002E00D1012363555EE7A97877
:103580003D4D29700129E7D8A7239B00E25C022A60
:1035900009D0032A15D02000FFF721FF2000297849
:1035A000FFF7E5FD4AE7002900D167E70121032283
:1035B0006160E2542000FFF7CDFD022800D05DE7F6
:1035C000CAE7002906D102222000E2546160FFF719
:1035D000CEFD53E76168012900D14FE7C9B2200051
:1035E000FFF7C5FD29786160E4E7EA88012AB3D1D5
:1035F000A7239B00E35C022B06D8002BACD0002352
:103600002100A360083102E0211D032BA4D120007A
:1036100000F006F912E7A7239B00E35C013B022BB5
:103620009AD8EB88022B97D1013BE360A9239B003A
:10363000E358002B01D00323E360210002220C3168
:10364000E5E76B88012B00D0F8E6A9229200A35091
:1036500014E7A7239B00E35C013B022B00D97BE727
:103660006B88012B00D0E9E6A92300229B00E250E1
:1036700004E7C0469E020000FC15002060230A7883
:1036800070B5134004000D00402B01D0530619D42F
:10369000A7239B00E35C013B022B13D82B79012B62
:1036A00010D8AD239B00E35829009B682000984761
:1036B000EB88002B04D1002802D1200000F0CEF8C6
:1036C000002070BD2000FFF78AFEF9E70A780B00A2
:1036D00060210A4070B504001000491820380842E3
:1036E00029D0002A37D198885A78C1B2012A45D00A
:1036F000032A29D0002A2ED1A7239B00E35C022BAA
:1037000056D0032B27D10F2214230A405A43A21864
:1037100000065DD59269002A1DD07F250D40013538
:103720005D437F230A0065191A4019425AD12A6065
:103730000222290048E0AD229200A2581900200080
:1037400092689047002070BDA7229200A25C022AD6
:1037500024D0032A03D02000FFF741FEF2E75A8865
:10376000002A07D14A0605D0DB88002B02D12000B1
:10377000FCF7D7FF200000F071F8E3E7A7229200E2
:10378000A25C022A0AD0032AE5D15B88002BD9D19A
:103790004B06EFD02000FCF7CDFFEBE74B06DAD06D
:1037A0002000FCF7BEFF80212000FCF7BAFFC9E72C
:1037B0004B06D0D121005531FF31030601D54139E7
:1037C000FF39002302220B60200000F029F8B9E73E
:1037D000FC32D26D002ABED07F250D405D435535A9
:1037E000FF359EE72000FCF7AEFF002802D0012342
:1037F0002B609DE728609BE70B7803704B78437044
:10380000CA788B7812029B1843804A790B7912028E
:103810009B188380CA798B7912029B18C3807047EA
:103820001300A52210B50224920084500A00C3613F
:1038300000210362FCF7A3FF002010BD10B51300A8
:103840000A000021FCF79BFF002010BD10B51300FB
:103850000A000021FCF79CFF002010BDA5230422D4
:103860009B0010B5C25000231A001900FCF787FF17
:10387000002010BDA52305229B0010B5C2500023D7
:103880001A001900FCF784FF002010BD134885467C
:1038900013480168090E134A914205D11248134991
:1038A000016013481349016013481449144A002366
:1038B00002E0D458C4500433C4188C42F9D3114ADE
:1038C000114C002301E013600432A242FBD3FDF748
:1038D0001DFFFCF741FCFCF723FEFEE7001800206B
:1038E000040000001F00000018100240010000004A
:1038F000000001400000000000000020080100203E
:10390000903A00080801002000160020FEE70000A1
:10391000F8B5C046F8BC08BC9E467047F8B5C0462E
:08392000F8BC08BC9E4670478C
:103928000001000002000000000000000300000089
:103938000400000000020000020000000000000077
:103948000300000004000000020000000100000065
:10395800000000000100000000000000010000005D
:10396800010000000000000001000000000000004D
:103978000002010212035000430041004E002D00D6
:103988005500530042000000FE0300000804000830
:1039980007000402E0070100000000000A06000119
:1039A80000000040010000003203500045004100C3
:1039B8004B002D00530079007300740065006D0002
:1039C800200054006500630068006E0069006B0009
:1039D800200047006D006200480000000000000061
:1039E80000000001000000020000000300000000C9
:1039F80000000100000002000000030000000400B5
:103A08000000050000000600000007000000080094
:103A18000000090000000A0000000B0000000C0074
:103A280000000D0000000E0000000F000000000064
:103A380000001000000020000000300000004000DE
:103A4800000050000000600000007000000000004E
:103A58000000000001020304060708090203040528
:103A6800060708090A0B0C0D0E0F101000010203BF
:103A78000405060708090A0B0C0D0E0F10000000BC
:043A880035010008FC
:043A8C000901000824
:103A9000B1070008BD070008C9070008C9070008EA
:103AA00000000000D507000800000000120100011E
:103AB00000000040720C0C00FF540A0400010000DA
:103AC0000403090409022E000101008064090400B6
:103AD0000004000000000705810210000007050136
:103AE00002100000070582024000000705020240A4
:103AF00000000000CD08000881080008E509000862
:103B000000000000E1070008E50700083108000890
:103B10000000000000000000000000000508000890
:103B20005109000845090008110800081D0800088F
:103B300000640040000000000000000000000000E1
:103B40000000000000000000000000000000000075
:103B5000000000000000000000820000761200203B
:103B600080030000000000000000000000000000D2
:103B70000000000000000000000000000024F4002D
:103B800000000000000000FFFFFFFFFF00127A00AE
:083B9000010000000400000028
:040000050800388D2A
:00000001FF
