:020000040800F2
:1000000000180020493D0008C93D0008C93D00080E
:1000100000000000000000000000000000000000E0
:10002000000000000000000000000000C93D0008C2
:100030000000000000000000C93D0008E3040008C3
:10004000C93D0008C93D0008C93D0008C93D000878
:10005000C93D0008C93D0008C93D0008C93D000868
:10006000C93D0008C93D0008C93D0008C93D000858
:10007000C93D0008C93D0008C93D0008C93D000848
:10008000C93D00080000000000000000C93D000854
:1000900000000000C93D0008C93D0008C93D000836
:1000A00000000000C93D0008C93D0008C93D000826
:1000B000C93D000800000000C93D0008C93D000816
:1000C0000448054B10B5834203D0044B002B00D0ED
:1000D000984710BD0401002004010020000000002A
:1000E00006480749091A8910CB0F591810B549104D
:1000F00003D0044B002B00D0984710BD0401002012
:10010000040100200000000010B5074C2378002BEC
:1001100009D1FFF7D5FF054B002B02D0044800E0C2
:1001200000BF0123237010BD040100200000000067
:10013000CC3D0008054B10B5002B03D00449054801
:1001400000E000BFFFF7CCFF10BDC046000000007C
:1001500008010020CC3D000870B50D4E0D4DAD1BC3
:10016000AD1006D00024A300F35801349847A542EF
:10017000F9D103F02BFE084E084DAD1BAD1006D093
:100180000024A300F35801349847A542F9D170BD6B
:10019000F03E0008F03E0008F03E0008F43E000883
:1001A000F0B50F2A38D90D0005430C000300AD0748
:1001B00036D110271500BC46103D2D092E013618EA
:1001C000B444276866681F605E60A768E6689F6041
:1001D000DE60103310346345F3D10F2401352D0157
:1001E000491914404519032C1CD90023CE58EE5050
:1001F0000433E61A032EF9D80323043CA40801347F
:10020000A4002D1909191A4005D00023CC5CEC5428
:1002100001339342FAD1F0BD0500002AF5D1FAE787
:100220000500F2E72200F8E7F0B5830746D0541E38
:10023000002A42D0CEB20200032502E01A00013C9F
:100240003BD3531C16702B42F8D1032C2DD9FF221F
:100250000A40150215432A0415430F2C16D927000E
:10026000103F3F093E01B4461E001A001036664496
:10027000156055609560D5601032B242F8D10F22FA
:1002800001373F01DB191440032C0ED9261FB60895
:10029000B700BC461A001F1D674420C2BA42FCD1F9
:1002A00003220136B6009B191440002C05D0C9B2B8
:1002B0001C19197001339C42FBD1F0BD14000300DE
:1002C000C3E7C04602B471464908490009564900CF
:1002D0008E4402BC7047C04602B4714649084900CA
:1002E000095C49008E4402BC7047C04603B47146A5
:1002F000490840004900095A49008E4403BC704730
:10030000002243088B4274D303098B425FD3030A54
:100310008B4244D3030B8B4228D3030C8B420DD367
:10032000FF22090212BA030C8B4202D312120902F5
:1003300065D0030B8B4219D300E0090AC30B8B4233
:1003400001D3CB03C01A5241830B8B4201D38B03E1
:10035000C01A5241430B8B4201D34B03C01A524186
:10036000030B8B4201D30B03C01A5241C30A8B42C9
:1003700001D3CB02C01A5241830A8B4201D38B02B4
:10038000C01A5241430A8B4201D34B02C01A524158
:10039000030A8B4201D30B02C01A5241CDD2C309CA
:1003A0008B4201D3CB01C01A524183098B4201D346
:1003B0008B01C01A524143098B4201D34B01C01A31
:1003C000524103098B4201D30B01C01A5241C308A9
:1003D0008B4201D3CB00C01A524183088B4201D318
:1003E0008B00C01A524143088B4201D34B00C01A04
:1003F0005241411A00D20146524110467047FFE770
:1004000001B5002000F006F802BDC0460029F7D073
:1004100076E770477047C0460120174B86B0996950
:10042000014399619A69024080200192019AD96939
:1004300040050143D961DA69024080200292029AA4
:100440005969C003014359615A69024080200392EF
:10045000039A596980020143596180215A69C9028E
:1004600002400492049A5A690A435A615B690B403C
:100470000593059B06B070470010024030B599B057
:100480002C2200210DA8FFF7CFFE1022002101A889
:10049000FFF7CAFE1822002105A8FFF7C5FE80233A
:1004A0005B021593802301240225DB020BA816931F
:1004B0000B940C94149502F005F807230193002384
:1004C000210001A803930493029502F091FA80237E
:1004D0009B020593802305A80A9302F015FB19B02F
:1004E00030BD10B502F0DAFB10BD10B502F0C6FB4E
:1004F000FFF7C4FF00F066FA00F0B8FC01F030F836
:1005000000F0F4FF00220421012000F0CDFC0022C5
:100510000421100000F0C8FC00F04CFA00F0F2FCDE
:1005200001F000F8F8E70000084B026882B09A4238
:1005300009D18020064A0004D1690143D161D36901
:1005400003400193019B02B07047C046005C00402D
:10055000001002408C2310B59B00C1184033C058D6
:1005600003F078F810BD4B01C318FC331A6C9C23C0
:1005700010B59B00C05803F09DF810BD4B01C31887
:10058000DA6B9C2310B59B00C05803F0D7F810BD60
:100590009C2310B59B00C05803F078F910BD70B5CE
:1005A0009C240500A4000121005903F054F92859A6
:1005B00003F027F970BD00009C2310B504009B00D8
:1005C000C05803F04BF9A369002B04D00623024A5C
:1005D00011690B43136110BD00ED00E0836910B594
:1005E0000400002B06D00621054A13698B431361D2
:1005F000FFF744FF9C239B00E05803F03BF910BD3C
:1006000000ED00E0F8B59C2305001D489B00C55097
:10061000B0261C4B0024022703600623B600A85115
:100620008760076143608461C461046201F058FB24
:10063000A85922002100182301F015FFA859220013
:100640005823802101F00FFFA8592200982301218F
:1006500001F009FFA8592200D823812101F003FFEE
:100660008C233900A85922005B0001F0FCFEAC236A
:10067000A8595B002200822101F0F5FE2000F8BDA0
:1006800020010020005C0040B0239B00C05810B542
:1006900001F088FB0223032801D8024B1B5C1800E1
:1006A00010BDC046043E000810B514001A00230017
:1006B000B024A400005901F09AFB0223032801D8BA
:1006C000014B1B5C180010BD043E0008B0239B00CA
:1006D000C05810B501F0BBFB0223032801D8024B20
:1006E0001B5C180010BDC046043E0008B0239B00F0
:1006F000C05810B501F0B5FE0223032801D8024B03
:100700001B5C180010BDC046043E0008B0239B00CF
:10071000C05810B501F044FE0223032801D8024B53
:100720001B5C180010BDC046043E0008B0239B00AF
:10073000C05810B501F069FE0223032801D8024B0E
:100740001B5C180010BDC046043E0008B0234AB22E
:100750009B00C358002A06DA7F22114049015B182A
:100760002A331878704749015B182B33FF33F8E7B9
:10077000B0239B00C05810B501F027FB02230328CB
:1007800001D8024B1B5C180010BDC046043E000897
:1007900010B5B024A400005901F09FFB02230328E8
:1007A00001D8024B1B5C180010BDC046043E000877
:1007B00010B5B024A400005901F06DFB02230328FA
:1007C00001D8024B1B5C180010BDC046043E000857
:1007D000B02310B59B00C05801F078FB10BD00009D
:1007E000122301480B8070471C000020042301489D
:1007F0000B80704730000020022301480B807047B7
:100800001C3E0008122301480B807047083E000878
:1008100000207047AE239B00C35802000220002B2B
:1008200006D012304843121800205B18D061987728
:10083000704700002E2303800048704734000020DA
:100840000A23038000487047303E000800200A2930
:1008500002D13223014813807047C0463C3E000855
:10086000AE239B00C35870B505000C00002B01D1CE
:10087000022070BDFFF7ACFF012C0DD10B4E81B2F1
:100880002D36300000F0BCFC10233200210028007F
:10089000FFF78EFF0020ECE7022CE9D1034E81B276
:1008A0003D36300000F064FD4023EEE7580600209E
:1008B000F8B50500002614270F4B5A7BB24204DC22
:1008C000AE2300209B00E850F8BD072272439B181E
:1008D0001C7D28002100FFF7F9FE072323407B43FE
:1008E00064B2EB18002C03DA00229A610136E3E7C8
:1008F0000022FC33DA65F9E734000020F8B5040083
:1009000000271A4D1235194B5B7BBB4213DC184D87
:10091000AE232A009B00E5502D3210230121200038
:10092000FFF746FF2A0040233D3202212000FFF757
:100930003FFF0020F8BD6B79AE782A791B02134384
:100940003100EA782000FFF7AFFE0723142233407E
:10095000534376B2E318002E04DA133A9A61013752
:100960000735D0E7FC33133ADA65F8E734000020A6
:10097000580600202E2303800048704734000020D2
:100980002E230380004870473400002002000848EE
:1009900010B5036B0C00002B06D101630B00812105
:1009A000FFF7F6FE002800D00024200010BDC0464E
:1009B0009403002010B5024801F0A6FA10BDC0460D
:1009C0002001002010B5074C00220749200002F04A
:1009D00003FE0649200002F019FE200002F01FFE6F
:1009E00010BDC046940300200000002064000020D9
:1009F000AE2301000F2206489B00C3580A409B18F3
:100A0000002210B59A77FFF771FE4342584110BD9E
:100A10009403002010B54B78002B16D14C88002C85
:100A200013D110220A4903F058F9012122000800CD
:100A300000F03AFA22000121200000F035FA82206D
:100A4000FFF7D6FF8120FFF7D3FF002010BDC0467F
:100A50001E3E0008F8B5AE2316001D4A9B00D7586D
:100A60000400002F01D1002031E00378002B0CD0CE
:100A7000012BF8D10F2243781340FA18927F002AF5
:100A800002D05B00DE53EEE70270A368B342EADBFC
:100A900032006068FFF784FB0F23012561780B406B
:100AA000FA18957707220A4094461422604642437A
:100AB0000748AB408218D6610022DA53B3B26268AD
:100AC000FFF766FE2800E36825709E19E660F8BD12
:100AD0009403002030B504000D008FB01C220021CB
:100AE00007A8FFF7A1FB1422002102A8FFF79CFB37
:100AF00003AB07AA2900200002F0CAFB002822D17C
:100B0000099B0193002B20D1079B019302930A9B21
:100B10000193022B05D102AB5A7B4023134302AA57
:100B200053730B9B02AA137300F042FD02AB1882B1
:100B3000FE230B4CDB00E358002B01D002A89847A2
:100B4000E3680133E3600FB030BD089B019302936B
:100B500002AB5A7B80235B42134302AA5373D6E74E
:100B6000D806002070B5002592B02900282208A8D8
:100B70000595FFF759FB8020224B8004D969012697
:100B80000143D9618021DA69C90202400192019AC8
:100B90005A691D480A435A615B690B400293029BE4
:100BA000C0239B00039302230493013303A90693FC
:100BB0000133079302F084F8144C200002F0CAFAC3
:100BC000134B200023601023A5606360E56025615E
:100BD000656125766676A576E6762577667702F0F6
:100BE00064F908A920000E950F960C9510960D95A6
:100BF000119502F0E4F90749200002F0CCFB12B095
:100C000070BDC0460010024000040048A000002053
:100C100000640040138F000070B506256843124C35
:100C20006060181C042B00D90420C0B201380F4B9F
:100C30008000C358E3600B1C102900D91023DBB2DD
:100C4000013B0B499B005B582361131C082A00D908
:100C50000823DBB2074A013B9B009B5820006361DD
:100C600002F023F970BDC046A0000020703E0008CD
:100C7000803E0008C03E0008FE23024ADB00D05040
:100C80007047C046D8060020014A024BD05070473A
:100C9000D8060020F407000070B5031E10D0FD2315
:100CA0000F4ADB00D458611C642900D100210D4B90
:100CB000D3588B4206D193680133936001235B4282
:100CC000180070BD14236343D318183370C870C361
:100CD0001C0028C828C4FD23DB00D1500023EFE707
:100CE000D8060020EC0700000300581E834110B511
:100CF0000248DB07836002F0D8F810BDA000002096
:100D000010B5094C002807D0200002F0CCF90721CB
:100D1000200002F096FA10BD0721200002F091FA9F
:100D2000200002F0EAF9F6E7A0000020F0B5224F1B
:100D300089B0380002F044FBFD23204C204DDB003D
:100D40006659E358B34230D01822002102A8FFF7B9
:100D50006BFA0023019314337343E3189A1DD17F78
:100D60009B694AB2002A22DADB00DB0803930423E2
:100D7000049314227243A3180533DB7F49110693B1
:100D800002231C3219400591A21801AB02A93800B8
:100D900002F0F6F9002808D1019B002B05DB63590E
:100DA0000133642B00D10300635109B0F0BD5B0532
:100DB0005B0D0293DDE7C046A0000020D8060020AE
:100DC000EC07000010B50021FFF784FE10BD10B540
:100DD0000121FFF77FFE10BD024A13680133136043
:100DE0007047C046D806002010B5FFF7F5FF10BDCC
:100DF00010B5FFF7F1FF10BD024A5369013353618B
:100E00007047C046D806002010B5FFF7F5FF10BDAB
:100E10007047704770B5040002F0CCFBA822520264
:100E200010490023104203D04B6801334B60042368
:100E3000420701D501221343C022D200104201D043
:100E400002221343084A8D58002D07D0002B05D0ED
:100E50000A694968D2B2C9B21800A847200002F056
:100E6000ABFB70BDD8060020F40700007FB50C2254
:100E7000002103A8FFF7D8F98020094AC002516970
:100E800001435161536901A903400093009B03236F
:100E900004480193023B029301F012FF07B000BD2A
:100EA000001002400004004870B50E000500140058
:100EB00000F078FB0A236B43114A9E52D318D9885D
:100EC000002902D101310143D980F11E0A230129F1
:100ED00008D900216B43D31899800A235D43521926
:100EE000548070BD3221032E00D096316B43D3184D
:100EF0009980002CF1D0001901240443A4B2ECE73E
:100F0000D00E0020F8B500F04DFB002506000227AA
:100F10001D4CE288002A17D0B31AA1889BB28B42DD
:100F200012D32388013B032B07D81800FFF7D4F90D
:100F3000020211115A42534123720023E380002D13
:100F400019D02900012D17D001350A34032DE0D125
:100F5000F8BD0123207A521858401A436388207242
:100F6000E280002BEBD0B342E9D800223900280000
:100F7000FFF79AFFE3E73900227A0448531E9A41AB
:100F8000D2B201F047FFDFE7D00E00200004004896
:100F9000044B9972DA72C20703D51022197A0A43F8
:100FA0001A727047D8000020F7B505000E003E29E0
:100FB00001D90020FEBD13483F212C5A40222300B6
:100FC0000B40D31A9BB201909E4212D964188C43F5
:100FD000E4B22F1900213800FFF726F902232B5520
:100FE0000023019A0234E4B27B70AC52E0229200FA
:100FF000AB52019BE85AE02386199B009E42D8DC45
:101000002818D7E78203000030B5064D3F22435B26
:101010001C00944322000132845C5B180134845428
:10102000435330BD8203000070B5040000F0C0FAE5
:10103000164E0500A25B022A13D8154CE388002B3C
:1010400001D1002070BDC51AADB2112DF9D9002211
:1010500010481100FFF7FEFC0028F2D00020E080CD
:10106000F0E73F233F329A4321000A48FFF7F2FCA2
:101070000028E6D0E021022300228900237062705C
:101080006252A353024B0120DD80DBE782030000A4
:10109000D8000020C8000020F7B5404C0500237898
:1010A000002B17D0437B9B0604D4ED2203210120A3
:1010B000FFF7FAFE3A4E10213000FFF775FF0028C7
:1010C0000FD13000FFF7B0FF002804D10223227AAD
:1010D00013432372F7BD10213000FFF765FF00288E
:1010E000F8D02B7B1A1C082B00D908226B7BD2B2BC
:1010F00059B2002901DA20210A435B0601D51023E9
:101100001A43202102706C7B2B680A4235D0DB0029
:101110000C4201D01F390B430527190A4370817017
:10112000190C1B0EC170037105302C8AE3B20193B8
:10113000E0239B00F15A00292BD1E1B2240A44702C
:101140000170841C0237F15A0131F152D30608D4E0
:10115000291D20002A7BFFF723F8297BCF1964186B
:10116000FFB26B7B9B0603D5AB7B01372370FFB2CD
:10117000B9B23000FFF748FFACE75B019BB20C420D
:1011800001D001210B4343701B0A837003270330F6
:10119000CBE70199441C01700137D4E7D800002047
:1011A000EE0E002070B505210500FFF7FDFE041EC0
:1011B00022D000F0FDF9422301262370E0703E3B6F
:1011C000000A2071052128006370A670FFF71CFF3C
:1011D00003212800FFF7E8FE00280DD0074C03216B
:1011E000227A237C467013404022837002702800CC
:1011F000FFF70AFF0023237270BDC046D80000200D
:1012000013B5040001291AD94378022B18D0032BF7
:101210000DD0012B13D1007801380B280FD8FFF720
:101220005BF880860E910E940E0E0E0E0E9E0378C5
:10123000032B04D180784B4B9873FFF755FD13BDFA
:10124000007801380B28FAD8FFF73CF806F92F5739
:10125000F9F9F9F95B5F6367E27842490F200A7395
:10126000A37801AC4B73694618405B065B0F0130F5
:101270000133C87023703F2313400133CB8068468D
:101280006B46920901324A71CA880533CA78063022
:10129000033122780088097822781B7880B2C9B29D
:1012A000D2B2DBB2FFF7B8FCC9E7A3782D4C04211A
:1012B0002370002B00D1023900220220FFF7F4FD39
:1012C0002078FFF71DFD2378002B05D000F070F982
:1012D000A0802548FFF766FF217800224B1E994128
:1012E00010000131FFF7E0FD217800224B1E9941EB
:1012F00001200131FFF7D8FDA1E7A278194B1A763A
:101300009DE7A278174B5A7499E7A278154B5A704B
:1013100095E7A278134B1A7491E7A278114B9A7053
:101320008DE7104B1A7BE2705B7BA37005E00D4BE1
:101330000E495869FEF7E4FFA07010212000FFF766
:1013400025FB7CE7074B1B7EEFE7064BDB691A0E9C
:10135000A2701A0CE2701A0A22716371EDE7014B58
:101360009B78E2E7D8000020EE0E002040420F00FC
:10137000F0B58DB001290AD94378023904930023CE
:10138000871C8CB20293029B049A934201D10DB048
:10139000F0BD002CFBD040213B7800931940F6D1E2
:1013A00007AD14222800FEF73FFF4E4B1B78002BA1
:1013B000EDD02022631E9BB20193009B134256D0B6
:1013C000019B032BE3D9BA787B7812021A43FB788E
:1013D0007E1D1B041A433B79053C1B061343012267
:1013E0001A4003928022DB086A732B600F25009B52
:1013F000A4B21D40291C082D00D9082107ABCAB290
:101400001973A9B20591A142C1D80099C90640D467
:10141000310008A8FEF7C4FE059B7619E41AA4B2B1
:10142000039B002B06D0002CB1D0327807AB013CD7
:101430009A73A4B200F0BCF807AB1882ED22032126
:101440000020FFF731FD00F0B3F8060007AD2800DB
:10145000FFF722FC002821DB039B002B2FD020224A
:101460006B7B280013436B73FFF716FE27E0019B8D
:10147000012B00D88BE70121BA787B781202134345
:101480001BB29AB252090B4003932A60FE1C033C24
:10149000ACE740215A7B0A435A73C1E7FFF746FC89
:1014A00000F086F810230F4A801B117A80B219428F
:1014B00002D10D4B9842C9D901230B431372E1B2FB
:1014C0008CB2002900D162E7019B019A1B1B9BB2E1
:1014D0009A4200D25BE70133FF18029B0133DBB273
:1014E00050E7C046D80000208C5B0000E0210020BF
:1014F0000222084B10B58900585207491A805A52E7
:10150000FFF730FB0548FFF7B7FB0548FFF7BCFBCB
:1015100010BDC046EE0E00208203000099100008A6
:10152000910F000810B500F043F80A4A0A4C1378EE
:10153000002B09D093880949C31A9BB28B4203D967
:1015400090802000FFF72EFE2000FFF76DFDFFF7D3
:10155000EDFB10BDD8000020EE0E00208C5B0000DB
:1015600002200C4A82B0D1690143D161D3690A4A91
:1015700003400193019B094B09499A621A680A408A
:101580001A601A681A60012219680A431A6002B0C8
:101590007047C04600100240FF07000000040040F2
:1015A000FFFC000010B501F085FB80B210BD00000B
:1015B000014B586A80B27047000400407047000039
:1015C0000230C38F024A1343C38700207047C046CE
:1015D00080BF00000230C38F024A1340C38700203F
:1015E0007047C0467F40000084B0039301230292FD
:1015F00000220191811CCB87831D5030CA87DA8776
:101600000280CB8F02480343CB87100004B07047A1
:1016100080BF0000F7B50D78914AAD0045192C88C0
:10162000030014400122C8780092032808D8FEF76E
:1016300053FE024B05488022920014430022009280
:101640001E00884A884F1443A4B22C800D7850366F
:10165000AC001C19208838402843104380B22080F9
:101660000D7B08783C00002D00D06FE0C000C01852
:10167000CD88019048786D086D00002829D0348805
:10168000019820188024E400001905800878800063
:1016900018180488640604D504882740734C27432F
:1016A00007800878C97880001B18714801290DD07F
:1016B00019880840202141400A4392B200981A80BC
:1016C000FEBDC022D200B8E78022FBE719880140A6
:1016D000F2E7378801983818664FC01905800878F6
:1016E0003588C000644EC018801940190D69002D5E
:1016F00019D10588614E2E40614D3543058008782B
:101700008000181805886D0404D505882C405D4DAF
:101710002C43048009785C4889005B1819880840CC
:10172000C0218901C7E73E2D06D801276E083D403C
:101730007619B6020680E2E71F276E093D406F4228
:101740007D41761B4E4DB6022E43F3E780001818FC
:1017500005883D404D4F3D43058008783588C000E1
:1017600040198025C018ED0040190D896D086D00E5
:10177000058035883E4E0878B4468026C000401962
:101780003C4DC01840194D89F6016D086D0005806B
:1017900008784D7880001818002D2DD10588354225
:1017A00004D00588374E2540354305800878384EEB
:1017B0008000181805886D0604D505882540354336
:1017C000ADB2058008788000181805882C402643A3
:1017D000B6B206800C782C48A4001C192588054058
:1017E000C02080016840104380B2208009786046A4
:1017F00089005B1819886AE70788264D374204D0AC
:10180000068826402E43B6B2068008788000181855
:101810000688760604D50688144F26403E43068087
:10182000087880001818068834402543ADB205803A
:101830000878CC7880001818012C0DD064460588F3
:10184000254020246C401443A4B2048009780E483B
:1018500089005B1819883AE7654604882C40F2E74E
:101860008F89FFFF8080FFFF8F8FFFFFC080000008
:10187000BF8FFFFF0404000006040000FF83FFFF8A
:101880000080FFFF80C000008FBFFFFF808100004D
:10189000C080FFFF80C0FFFFF0B50B780D7B9B0081
:1018A0004C78C3183F4A002D21D1002C10D01C8841
:1018B000640605D51C883C4D2C403C4D2C431C80B7
:1018C0000B783B499B00C01803880B401A433FE04C
:1018D0001C88640405D51C88334D2C40354D2C43A1
:1018E0001C800B7834499B00C0180388EDE78026E4
:1018F0002D4D2F4FF601002C2ED11C88344204D0E0
:101900001C882C4E2C4034431C800B782B4C9B00A5
:10191000C3181E88760604D51E882E402643B6B20C
:101920001E800B789B00C3181E8835402C43A4B240
:101930001C800C78204DA400041923882B401343ED
:101940009BB223800B789B00C01803881F403A434A
:1019500092B202800020F0BD1C88344205D01E885F
:10196000174C2E402643B6B21E800B789B00C3183E
:101970001E88740604D51E880C4C2E4026431E80FB
:101980000B780F4C9B00C3181E8835402C43A4B223
:101990001C800B789B00C3181C8827401743BFB2DC
:1019A0001F809EE78080FFFF8F8FFFFFC0800000B9
:1019B000BF8FFFFF80C000008FBFFFFFC080FFFF11
:1019C00080C0FFFF0B780B4A9B00C0184B78002BA0
:1019D00009D003880849194010234B4013439BB298
:1019E00003800020704703880449194080235B016D
:1019F000F3E7C0468080FFFFBF8FFFFF8FBFFFFF71
:101A00000B7B10B5002B1CD10B784A789B00C318B8
:101A1000002A18D01A88520605D51A88134C22407D
:101A2000134C22431A80CB78012B0AD00B78114A31
:101A30009B00C01803881A40202353400E4A1343CA
:101A40000380002010BD1A88520405D51A88074C5F
:101A500022400A4C22431A800B78094A9B00C01886
:101A600003881A40C0239B01E7E7C0468F8FFFFF22
:101A7000C0800000BF8FFFFF8080000080C000009A
:101A80008FBFFFFF002902D180234C30038000204C
:101A900070478022583003881202134303800020CD
:101AA00070470630C08F80B270470020704730B555
:101AB0008024E4001219013380185B08401A44188E
:101AC000002B00D130BD4A780D7812022A432280C3
:101AD000013B0231F3E70000F8B54C7805000E0039
:101AE0008A690B69087B012C58D19A4222D9D21AF3
:101AF0008A612F0071699CB2503700281ED1F2888C
:101B000023002800FFF7D3FF33783A88DB009B18C7
:101B10005B4AEB189B181C8033785A4A9B00ED18DF
:101B20002B881A4030235340574A002013439BB25E
:101B30002B80F8BD00238B611300DAE733789A001D
:101B4000AA181088DA00430617D53B889B184F4A1D
:101B50005B199B181C80728923002800FFF7A7FFE0
:101B600072783378002A10D19B00EB1848491A8804
:101B70000A4048490A431A80CEE73B889B18404AEE
:101B80005B199B181C803289E6E7012AC4D19B00AF
:101B9000EB183F491A880A403F49EBE79A4215D9AA
:101BA000D21A8A613178002814D12A005032108864
:101BB000364AC900AA1812188A18002B39D113887E
:101BC00036491940364B0B4313803AE000238B61B2
:101BD0001300E7E7002C17D12A0050321088284A5A
:101BE000C900AA1812185218002B05D111882B48C9
:101BF00008402B49014306E03E2B11D8012059082B
:101C000018400918890211807178327800292BD187
:101C10002900503108881D49D20069180918CBE7FE
:101C20001F201840444260415909091A89021C4882
:101C3000E0E73E2B0ED8012459081C4009198902FF
:101C400011803378174A9B00ED182B881A40C02367
:101C50009B0168E71F241C40590963425C41104BFB
:101C6000091B89021943EBE70129EAD12900503108
:101C70000988D20052180549AA185218A4E7C0468C
:101C800002040000BF8FFFFF8080FFFF06040000FA
:101C90008F8FFFFFC080000080C00000FF83FFFF28
:101CA0000080FFFF8FBFFFFFF0B580255C08ED00CF
:101CB000521926000D008018471A7A19002E07D1F4
:101CC000640000190919DB0701D503880B70F0BD0A
:101CD0001288013E92B22A70120A6A700235ECE74D
:101CE000F0B5040087B00125002831D02C4D435DAC
:101CF000DBB2002B04D18A2292008354FEF714FC3D
:101D0000032320686355FFF765FC002301261800B4
:101D100061688B421FD30023180099422CD82300FE
:101D20006A46103343CB43C203CB03C2A268E368C5
:101D300061682068FFF758FC0023621DD3770122F9
:101D400062551D00E369934202D1200000F0A4FB1C
:101D5000280007B0F0BD5A01A218170029373E70BD
:101D6000013F3B70D386F8709063D0639A1C520198
:101D700001331051DBB2CCE75A01A21816002A3603
:101D8000FF363070FC32013E3370F070D063106467
:101D90001A000A32520101331051DBB2BDE7C046CE
:101DA0002902000070B58A25AD00435D04000220C1
:101DB000012B09D0012320686355FFF76AFE2068D4
:101DC000FFF7FEFB0020605570BD70B58A25AD00A1
:101DD000435D04000220012B08D001236355631DDD
:101DE000D9772068FFF74EFE0020605570BD70B5B2
:101DF000072604000E40700149B2251800291EDA9A
:101E00000100012028316118293528700A614A78BB
:101E10000E70CB70002A00D0CE81022B01D100239E
:101E20000B718A25AD00635D0220012B06D00123D2
:101E300020686355FFF7EEFB0020605570BD010080
:101E40002931FF312A356118FF350020DDE770B5F3
:101E5000040007200840430149B2E218002913DAC0
:101E60002833E118012329328A251370AD00087048
:101E7000635D0220012B06D0012320686355FFF724
:101E80000BFD0020605570BD2933FF332A32E11865
:101E9000FF320023E8E7F8B5072421404C0106197A
:101EA0003700FC377B64330000252A332936FF33A3
:101EB000FF36BD643A641D70317021002931FF3155
:101EC00041180068FFF708FE2800F8BD07231940F5
:101ED0000A31490140184068704770B50724214015
:101EE0004D014419236400262300E2630122666445
:101EF000293328341A7021702900283141180068CC
:101F0000FFF7EAFD300070BDF7B504000068FFF789
:101F1000C8FD8027030400D5D9E02068FFF7C1FD84
:101F200043050CD52368AC490633DA8F20000A40FC
:101F3000DA87FEF734FB00212000FFF746FF206818
:101F4000FFF7AFFD430405D52368A4490633DA8FB4
:101F50000A40DA872068FFF7A4FD830405D52368CB
:101F60009F490633DA8F0A40DA872068FFF799FD28
:101F7000C3041CD5042123680233DA8F8A43DA872D
:101F8000DA8F49188A43DA8798239B00E25C012A9A
:101F900004D100212000E15400F092FA2000FEF765
:101FA0001DFB23688F490633DA8F0A40DA872068E1
:101FB000FFF777FD030515D5082220688A4D831C9D
:101FC000D98F0A43DA87811DCA8F2A40CA87042223
:101FD000D98F0A43DA87FFF764FDC30402D42000D7
:101FE000FEF7EAFA2068FFF75CFD8025284220D042
:101FF000982023688000991DCA8FAA43CA87225C53
:10200000002A00D0BBE104219A1CD58F5433294308
:10201000D1870821D58F2943D18701213C22215422
:102020001B8820009B08134099229200A35000F0C7
:1020300047FA2068FFF735FD830508D523686B490B
:102040000633DA8F20000A40DA87FEF7A1FA20680B
:10205000FFF727FDC30505D5236865490633DA8FE9
:102060000A40DA87F7BD0F26D18F89B20E4000D023
:10207000D0E010231940038800292FD15D4A134076
:102080008022120213430380030050331A88230076
:1020900028331B78DB00C018574B8018C018038802
:1020A000E26B9B059B0D6364D318E3632000FEF78E
:1020B00065FA631DDA7F002A09D0206C002806D15A
:1020C0008022D97F114322684C321180D877206852
:1020D000821DD38F1BB2002BC5DB1EE780269BB26F
:1020E00036011E4021D0030050331A8894235B0030
:1020F000E35C8C21DB00C3189B18404A89009B18C5
:1021000022001B8829329B059B0DFF32D361611889
:10211000D288FFF7C9FD22683949138820000B4097
:102120003B431380FEF716FAD1E71BB2002BCEDA41
:102130000388334A250013403B4303800300503398
:102140001A8894235B00E35C2935DB00C3189B18D5
:102150002A4AFF359B181B889B059B0DEB610DD010
:10216000696900290AD0EA88FFF79EFD6B69EA6970
:1021700031009B186B612000FEF7F5F921681F4ABA
:102180000B0050331B888A18D2182B69002B0FD1F3
:1021900013881C4818401C4B034313800B881B4AB0
:1021A0001A40C0239B015340194A13430B808EE70A
:1021B0003E2B06D8012558082B40C01880021080FD
:1021C000ECE71F2558092B405D426B41C01A0E4BAE
:1021D00080021843F3E7C046FFFBFFFFFFBFFFFF8E
:1021E000FFDFFFFFFFEFFFFFFFF7FFFFFFFDFFFF39
:1021F000FFFEFFFF0F8FFFFF020400000604000038
:102200008F0F0000FF83FFFF0080FFFF8FBFFFFFE6
:1022100080800000B300C218009313889BB2009323
:102220006B4600215B5E002B3CDA138856490500A3
:102230000B403B4313807301E3181A003532FF3221
:10224000117850350C3A002956D112782988D200DD
:1022500052184E49121852181588AD05AD0D08D008
:102260001A00FC331900FE32128E2B00096CFFF7A6
:102270001BFD710163181800FC30826C0193521928
:102280008264026C436C521902649C46002B02D09B
:10229000C06B854267D261182931FF31097820006F
:1022A000FEF761F9009B3B4200D110E72368B200C2
:1022B00099180A8836487601024080200002A61943
:1022C00002430A8031001A002831087850321288FF
:1022D000C0001B189B182F4A20009B181A88F36B0C
:1022E0009205920D72649A18336CF2630978002B90
:1022F00042D1FEF743F9EAE61278910041180988C5
:102300008C46D1006246520420D52A888218521881
:10231000204952181588AD05AD0D08D01A00FE32BF
:10232000528EFC3319002B00096CFFF7BDFC7301C2
:10233000E3182933FF331A78236892009A18138818
:1023400015490B4015490B43138092E72A888218E0
:1023500052180E4952181588AD05AD0DE7D01A0078
:10236000FE32928EDDE7019B20002933FF3319787E
:102370006346FFF790FD95E7FFF7AFFDA7E6200066
:10238000FEF71AF955E6C0468F0F0000060400005C
:102390000F8FFFFF020400008F8FFFFFC08000003F
:1023A00070B50400072563680D4001209D4220D8C8
:1023B0004BB2002B1EDA6B011900E31828312933C8
:1023C0006118187001238A268B700D70B600A25D0B
:1023D00002209A420DD0A3552068FFF7F3FA002D92
:1023E00005D18C239B00E1182068FFF75EFB0020DD
:1023F000A05570BD4B0119000022E31829312A3382
:10240000FF31FF3361181A70DCE770B504000F2349
:1024100062680B40012093421AD807250D406B01DA
:1024200049B2E218002914DA28332932E118107071
:102430000D7000268A258E70AD00635D0220012B91
:1024400006D0012320686355FFF7DAFA300066559D
:1024500070BD2933FF33E11800232A32FF32137095
:10246000E6E70020704710B50C060BD50724214085
:1024700049012831411898B2002A07D10A73C8804F
:10248000002010BD49012931FF31F3E701221B0C67
:102490000A7308814B81F3E7036801009A20012247
:1024A00010B5800098240A500020A4000855543329
:1024B00019880A431A80022219880A431A8010BD1B
:1024C00070470000F0B5040085B0002802D101205B
:1024D00005B0F0BD0368DB0733D423689B0700D544
:1024E00087E023681B0700D5C8E023685B0700D599
:1024F000EBE02368DB061AD56269BC4D0423012A90
:1025000000D057E1696B02260B436B636B6B1A4378
:102510006A6300F0CFFB07006B6B334200D142E1EE
:10252000F8216A6BA3698A43DB0013436B6323685A
:102530009B0600D566E1626A002A00D0A3E1002074
:10254000C6E70C21A94D6A680A40042A0BD06B68C3
:102550000B40082B0ED1C0226B6852021340802220
:102560005202934206D12B689B03B6D56368002BB9
:10257000B3D1ACE76368012B13D180232A685B02D7
:1025800013432B6000F096FB80260700B6022B68F1
:102590003342A2D100F08EFBC01B6428F7D9032080
:1025A00096E7002B15D12B68914A802613402B60AB
:1025B0002B68904AB60213402B6000F07BFB0700AB
:1025C0002B68334289D000F075FBC01B6428F7D913
:1025D000E5E7052B05D180232A68DB0213432B6036
:1025E000CBE72B68824A13402B602B68814A13404B
:1025F000C7E70C227D4D6B6813420BD06B6813400C
:10260000082B16D1C0226B6852021340802212029E
:1026100093420ED12B689B0703D5E368012B00D0B2
:1026200055E7F8212A6823698A43DB0013432B60AE
:1026300057E7E2680123002A0FD02A6802261343D5
:102640002B6000F037FB07002B683342E9D100F024
:1026500031FBC01B0228F7D9A1E72A6802269A435A
:102660002A6000F027FB07002B68334200D138E7CF
:1026700000F020FBC01B0228F6D990E7E269012395
:102680005A4D002A10D06A6A022613436B6200F08A
:1026900011FB07006B6A334200D026E700F00AFB0B
:1026A000C01B0228F6D97AE76A6A02269A436A6250
:1026B00000F000FB07006B6A334200D115E700F021
:1026C000F9FAC01B0228F6D969E780220021474D9C
:1026D0005205EB690091134208D1EB691343EB619A
:1026E000EB6913400393039B012300938027424E21
:1026F0007F0033683B4206D0A368012B13D12A6ABE
:1027000013432B6230E033683B43336000F0D2FA6E
:10271000019033683B42EFD100F0CCFA019BC01A24
:102720006428F6D93BE70122002B14D12B6A02273B
:1027300093432B622B6A033293432B6200F0BAFA65
:1027400006002B6A3B4225D000F0B4FA2B4B801BCD
:102750009842F6D923E7052B0BD1296A013B0B439D
:102760002B622B6A1A432A6200F0A4FA02270600A1
:102770000DE02B6A934304222B622B6A9343C0E73C
:1027800000F098FA1D4B801B984200D907E72B6A8E
:102790003B42F5D0009B012B00D0AAE6EB69184A1A
:1027A0001340EB61A5E600F085FAC01B022800D8B3
:1027B000B2E6F4E6053203D16A6B9A436A63AFE688
:1027C0006A6B0226134301226B636B6B93436B634B
:1027D00000F070FA07006B6B334200D1A7E600F0FF
:1027E00069FAC01B0228F6D9D9E6C046001002409B
:1027F000FFFFFEFFFFFFFBFF00700040881300009B
:10280000FFFFFFEF0C21534D6A680A408A4209D04E
:102810006B680B40082B0ED1C0226B68520213402C
:10282000934208D16B6BDB0300D484E6236A012B4F
:1028300000D04CE67FE6236A002B11D080266B6B1C
:10284000760233436B6300F035FA07006B6B33425B
:1028500000D070E600F02EFAC01B0228F6D99EE6E2
:102860006B6B3D4A802613406B6300F023FA070030
:1028700076026B6B334200D15DE600F01BFAC01BA1
:102880000228F6D98BE60C20324B59681D00014016
:10289000082944D01B6831490B402B60022A2FD1F4
:1028A00000F008FA80260700B6042B68334221D1D5
:1028B0000F22EB6A9343226B1343EB62A16AE36A34
:1028C0006A680B43264980240A4013436B608023C7
:1028D0002A685B0413432B6000F0ECF90600A404A3
:1028E0002B68234200D02AE600F0E4F9801B02287E
:1028F000F6D954E600F0DEF9C01B0228D5D94EE621
:1029000000F0D8F980240600A4042B68234200D1EB
:1029100015E600F0CFF9801B0228F6D93FE6012A20
:1029200000D1D4E5C0225868A16A5202DB6A024095
:102930008A4200D0CBE50F221340226B934200D095
:10294000C5E5F0239B031840E36AC01A431E984173
:10295000C0B2BDE500100240FFFFFEFFFFFFFFFE1B
:10296000FF7FC2FF30B51D4C89B0102221006846A0
:10297000FDF716FC210004AD102210312800FDF7F0
:102980000FFC0C20164A5368184008280CD00C285D
:1029900008D0043843425841124B40421840C018F6
:1029A00009B030BD1048FBE70F206C46D26A990C85
:1029B00001400240645CA95CC022802052021340A6
:1029C0004002834204D10948FDF79AFC6043E7E7DF
:1029D000934201D10448F7E70248F5E7E43D0008D7
:1029E0000010024000127A00006CDC020024F400A7
:1029F000F7B505000F00002801D10120FEBD01221E
:102A00003B4C236813408B421CD329688B0722D48C
:102A1000CB072FD4012322681A40BA4259D82B6819
:102A2000344C5B075CD4FFF79DFF6368324A1B069A
:102A30001B0FD35CD840314B1860002000F0FAF82F
:102A40000020DBE7236893430B4323602368134094
:102A50008B42D2D1D9E7274A4B0704D5E0235068EF
:102A6000DB0003435360F02053688343A8680343AB
:102A70005360CDE76A681F4E012A1AD133689B0361
:102A8000BBD5032173688B431343736000F012F9C5
:102A900001900C2372681A406B689B009A42B9D06F
:102AA00000F008F9019BC01A154B9842F1D9032098
:102AB000A4E7022A03D133689B01E2D49DE7032AED
:102AC00003D1736BDB03DCD497E733689B07D8D45F
:102AD00093E722689A43226022681A429FD08CE7CB
:102AE0006368084A1340EA68134363609BE7C04683
:102AF0000020024000100240E03E0008F8000020E4
:102B000088130000FFF8FFFFF0B5036885B00500EB
:102B1000DB0328D580220021404C5205E369009157
:102B2000134208D1E3691343E361E369134003935C
:102B3000039B012300938027394E7F0033683B427B
:102B400038D0C022236A92001340364E44D1236A03
:102B50001E406B681E43009B2662012B03D1E36974
:102B6000314A1340E3612A68D30706D503202B4975
:102B70000B6B8343A86803430B63930606D51020B1
:102B800026490B6B8343E86803430B63930306D525
:102B9000802022490B6B8343686903430B63002049
:102BA000530517D540211D4A136B8B4329690B43ED
:102BB00013630FE033683B43336000F07BF8019010
:102BC00033683B42BDD100F075F8019BC01A642800
:102BD000F6D9032005B0F0BD69680A409A42B6D024
:102BE0008023226A206A11005B0203432362236A66
:102BF0000E483140034023622162D307A7D500F07D
:102C000059F807000222236A1342A0D100F052F8BB
:102C1000074BC01B9842F5D9DBE7C04600100240C5
:102C200000700040FFFCFFFFFFFFFFEFFFFFFEFF14
:102C30008813000070B50500FA200D4B800019784C
:102C4000FDF75EFB0B4B01001868FDF759FB00F028
:102C500011F904000120002C09D1032D07D80238F6
:102C60002200290000F0DCF82000034B1D6070BD3D
:102C7000FC000020F8000020000100201023064A7C
:102C800010B5116800200B431360FFF7D3FFFDF769
:102C9000C3FB002010BDC04600200240034A044B85
:102CA00011681B785B1813607047C046F41500204C
:102CB000FC000020014B18687047C046F415002046
:102CC000F0B50B6887B0039300230191039ADA40B3
:102CD00001D107B0F0BD01229A4002920299039AF5
:102CE0000A40009200D188E0019A10215268160033
:102CF0008E43022E0ED107251D40AD000139A9409B
:102D0000DC08A4000419276A8F4301990969A940C6
:102D10000F43276203245F00BC40E4430568013E83
:102D20002540AC4603251540BD4061460D43056076
:102D3000012E0FD801998668CD682640BD403543E5
:102D400085604668029915098E4301210D409D401A
:102D500035434560C56801992C408D688021BD4090
:102D600049052C43C4600A4247D00121244C032664
:102D7000A5691E400D43A561A4699D080C400594FA
:102D8000059C0F241F49AD00B6006D18B44090217A
:102D9000AF68C905A7430024884208D01A49013406
:102DA000884204D019490434884200D1033CB4401D
:102DB00000993C430E00AC60154CCD4327683E4360
:102DC000D10301D43E002E4026606768009E3E433A
:102DD000910301D43E002E406660A768009E3E43EA
:102DE000D10201D43E002E40A660E668009F374322
:102DF000920201D42E403700E760013366E7C046F7
:102E00000010024000000140000400480008004893
:102E100000040140002A01D0816170478162FCE713
:102E200030B5FF2503242A00C3B21C40E400A240B1
:102E300089012940D243A14000280ADBC0240B4B62
:102E400080088000C018A40003591A4011430151A2
:102E500030BD0F200340083B05489B089B001B1812
:102E6000D86902401143D961F2E7C04600E100E0B1
:102E700000ED00E0094A431E012093420DD8C02115
:102E8000074A08485360036A09061B021B0A0B43E2
:102E9000036200200723906013607047FFFFFF006C
:102EA00010E000E000ED00E07047F8B504000120FC
:102EB000002C64D02518EB7F002B02D12000FFF7F7
:102EC000F3FF022622681368B3431360FFF7F2FE94
:102ED000070023685A68324244D101261A683243F7
:102EE0001A60FFF7E7FE070023685A68324247D0AE
:102EF000217E8022012949D119680A431A60617E26
:102F00004022012946D119680A431A60A17E202275
:102F1000012943D119680A431A60E17E1022012970
:102F200040D1196891431960217F082201293DD1C0
:102F300019680A431A60617F042201293AD119688D
:102F40000A431A60E168A26800200A4321690A4323
:102F500061690A43616801390A43DA6101236062E9
:102F6000EB770CE0FFF7A6FEC01B0A28B1D980233F
:102F7000626A9B021343636205230120EB77F8BD6D
:102F8000FFF798FEC01B0A28AED9F0E719689143F5
:102F90001960B4E7196891431960B7E7196891435C
:102FA0001960BAE719680A431A60BDE719689143C6
:102FB0001960C0E7196891431960C3E7704770B59D
:102FC000431CDB7F013B012B66D880240368012072
:102FD000A4001A59872602431A514A69E23CFF3C71
:102FE0001440A040C543B6009C592C409C51CC696C
:102FF000002C35D1103E9C59D2002C409C51CC68FD
:103000004E682404B6B2344390269A18B600945100
:103010008C680E682404B6B234439126B6009451ED
:1030200081228C699200002C2FD19C582C409C50FE
:1030300085220C699200002C2AD19C5825409D5075
:103040000A6A012A04D1872189005A58104358502E
:103050008021012089005A58824300205A5070BDB7
:10306000012CDDD18326B6009C59D20004439C512B
:103070000C684E682404B6B2344390269A18B60001
:1030800094518C68CE682404C5E79C580443CEE76D
:103090009C5804439C50D3E78023426ADB021343CD
:1030A00043620120DBE7F8B5461CF57F0400EDB272
:1030B000012D1CD102230268F3771368AB43136020
:1030C000FFF7F8FD070023685868284001D16062C7
:1030D000F8BDFFF7EFFDC01B0A28F4D98023626A10
:1030E0009B02134363620523F3770120F0E78023FB
:1030F000426A1B0313434362F7E7F8B5461CF37FAC
:103100000400022B20D10125026813682B431360B1
:10311000FFF7D0FD070023685A682A4206D0022133
:1031200000201A688A431A60F577F8BDFFF7C2FDE0
:10313000C01B0A28EFD98023626A9B021343636293
:103140000523F3770120F0E78023426A5B031343F2
:103150004362F7E710B504000120002C0FD02000D7
:10316000FFF7CBFF2000FFF729FF80230020226814
:103170001B0211680B43136060620134E07710BDDD
:10318000F0B5441CE67F0568013EAC68012E54D8BA
:1031900066014ED5A401A40F032C06D18023426AF8
:1031A0001B041343436201203DE00120A04018604E
:1031B00023008E68CF681833002E35D1086840058B
:1031C00038431B015851C2200E6924012B194000BD
:1031D0001E50097D012903D11E58FF31314319507A
:1031E000507911790002084391792C190904084398
:1031F000D1790906014320008D30FF3001605178FC
:103200001078090208439178D27809040143120624
:103210000A43C0218934FF342260012249005858F2
:10322000024300205A50F0BD48683E43C00030437E
:10323000C7E78023426A9B03B3E78023426ADB022D
:10324000AFE710B5421CD27F0300013A012A18D81B
:10325000CA0704D5802200688468224382608A07F6
:1032600005D58022186812028468224382600020FB
:103270004A0705D51A68802391681B040B439360A5
:1032800010BD8022416AD2020A4342620120F7E760
:10329000F7B5441CE47F013C012C00D977E00468B9
:1032A0000194019D0324002909D1EE68264208D12A
:1032B0008023426A9B031343436201205EE02E6930
:1032C000F4E7D826019D0C012C1904257600A75996
:1032D0002F40976053D1A7597F0D176002270F2504
:1032E000A6593E40B337FF37D660E6592E401661E7
:1032F000E659E459360A240C5461F6B2019C9661F1
:103300000A01A518B935FF352C681C700468A4188B
:10331000B934FF342468240A5C700468A418B934F2
:10332000FF342468240C9C700468A418B934FF345A
:103330002468240EDC700468A418BD34FF342468AB
:103340001C710468A418BD34FF342468240A5C711D
:103350000468A418BD34FF342468240C9C710468EC
:10336000A218BD32FF321268120EDA7102682023F1
:10337000002908D1D0680343D3600020FEBDA759BF
:10338000FF085760AAE711690B431361F5E7802333
:10339000426ADB028FE7431CDB7F013B012B05D830
:1033A0000268002053691943516170478023426AC3
:1033B000DB02134343620120F7E770477047704711
:1033C000F0B5036885B05E695A689F680192DA6853
:1033D000050002921A69002403929A690092012260
:1033E00016421FD0174205D09A60BB0700D4A6E052
:1033F000FDF7F2FC80235B001F4207D02A68936030
:10340000BB0500D4A8E02800FDF7EEFC80235B029A
:103410001F4207D02A689360BA0300D4ABE02800AB
:10342000FDF7E6FC330708D51023029A1A4204D0B0
:103430008022920014432A68D360730708D50823BA
:10344000029A1A4204D02A682800D360FDF7D4FCFF
:10345000B30706D52B68DB689B0702D02800FDF771
:10346000B1FC730608D51023039A1A4204D08022B7
:10347000D20014432A681361B30608D50823039ABF
:103480001A4204D02A6828001361FDF7BDFCF30638
:1034900006D52B681B699B0702D02800FDF797FC17
:1034A000B30308D51023019A1A4204D02A682800D1
:1034B0005360FDF7ADFCF30308D50823019A1A42C7
:1034C00004D02A6828005360FDF7A3FC33042CD5F0
:1034D000019B2A685B0726D5F30504D501230099D3
:1034E000194200D01C43B30504D5022300991942A8
:1034F00000D01C43730504D504230099194200D061
:103500001C4333050FD57023009919400B1E0AD0B8
:10351000302948D03BD8102941D0202941D07021F2
:1035200093698B43936104235360002C05D06B6A2D
:1035300028001C436C62FDF76DFC05B0F0BD7B07F5
:1035400004D43B0705D4FFF738FF53E78024240158
:1035500050E7802464014DE77B0503D580239B0160
:103560001C4353E73B0502D58023DB01F8E7280025
:10357000FFF724FF4AE77A0303D580231B021C438D
:1035800050E73A03FBD42800FFF719FF4AE7502918
:103590000BD060290BD04029C1D11C43BFE70823C1
:1035A000FBE71023F9E72023F7E78023F5E78023E3
:1035B0005B00F2E7406A7047431CDB7F013B012B55
:1035C00003D800234362180070478023426ADB025D
:1035D000134343620120F7E710B50223002813D0FC
:1035E000AD239B00C458002C01D00024C4500029F6
:1035F00002D0AC239B00C150A72301219B00C154E2
:103600000270FCF7FFFF0023180010BD0223002901
:1036100003D0AD239B00C15000231800704710B5A4
:10362000FDF732F8002010BDAD239B00C35810B544
:10363000002B01D1022010BD1B6898470028FAD04A
:10364000F8E7AD2310B59B00C3585B68984700208E
:1036500010BD0000AA239B0070B5C5180400280007
:1036600000F027FBA52301221F209B00E250104BF6
:10367000E25A163BE2501033E15C0840032811D8AF
:103680002900FCF729FE0B02070B200000F054FA7A
:10369000002070BD200000F079FAF9E7200000F06A
:1036A0000FF9F5E77F2320009943FDF72FF8EFE7A7
:1036B000AE02000070B504001500002930D1A5232A
:1036C0009B00C258032A23D102005532FF32D3682F
:1036D000106983420BD91B1AD36082B2984200D979
:1036E0009AB22900200000F00EFB002516E0AD2361
:1036F0009B00E3581B69002B06D0A7229200A25C16
:10370000032A01D120009847200000F004FBECE7D9
:103710000D00052A02D1E150FCF7F8FF280070BD2A
:10372000AD239B00C35802259B69002BF6D0A7222E
:103730009200825C032AF1D19847D6E7F8B50D00D4
:1037400004001100002D4BD1A5239B00C358022B70
:103750003FD1026A466AB24212D9921B026292B209
:1037600000F0C9FA2B002A0029002000FDF720F8FC
:10377000A8239B00E25C0020012A00D1E054F8BDA0
:10378000C76931003800FCF741FE0D1E0CD1BE4266
:103790000AD8A626B600A3599F4205D20A002000E7
:1037A00000F0A9FAA551DDE7AD239B00E358DB68E3
:1037B000002B06D0A7229200A25C032A01D1200090
:1037C000984780212000FCF7A1FF200000F0AFFA0D
:1037D000CEE704229343CBD18021FCF797FFC7E7C4
:1037E000AD239B00C35802205B69002BC7D0A722E2
:1037F0009200A25C032AC2D1290020009847002031
:10380000BDE7002270B5040011004023FCF74CFF17
:10381000230001254026FC33DD659E6680213300B0
:1038200000222000FCF740FFA72300219B00A56198
:103830006662E554083BE15010336160E150143397
:10384000E3588B4205D0AD239B00E35820005B6812
:103850009847002070BD017400207047A7239B008B
:10386000C15C034A81540422C25400207047C04600
:103870009D020000A7239B00C25C042A02D1024AD9
:10388000825CC254002070479D020000A72310B53F
:103890009B00C35C032B06D1AD239B00C358DB699F
:1038A000002B00D09847002010BD10B504008021E7
:1038B000FCF72CFF00212000FCF728FF10BD0000C2
:1038C00060220B7873B5134004000E00202B14D037
:1038D000402B12D0002B00D09CE04878092800D95A
:1038E00098E0FCF703FDF600140197000C01970027
:1038F000890013009700E000AA00AD239B00E35865
:1039000031009B6820009847002076BD6B469D1DC6
:1039100000232B804988080A0138062800D979E05D
:10392000FCF7DAFC0422307878555F00AC239B006A
:10393000E358207C1B6829009847298800290CD06F
:10394000F288002A09D00B1C914200D9131C0100F7
:103950009AB220002B8000F0C0F9F388002BD3D15D
:10396000200000F0D8F9CFE7AD23227C9B00E3587C
:10397000002A05D19B6A2800984702234370DCE7A0
:10398000DB6AF8E7C9B2052917D8AC2308009B0009
:10399000E358FCF7A1FC03080A0C0E105B68002B2F
:1039A00038D0207CC7E79B68F9E7DB68F7E71B693D
:1039B000F5E75B69F3E79B69F1E7AD239B00E3580B
:1039C0009B6B002B26D02A0020009847B5E7237C6C
:1039D000002B1FD1AD239B00E35828005B6B984759
:1039E000ABE7237C002B15D1AD239B00E3582800C7
:1039F0001B6B98470723C1E78B88002B0AD1CB8824
:103A0000002B07D14E887F2E04D8A725AD00635D1B
:103A1000032B03D12000FFF748FF75E7444BF1B2B9
:103A2000E1542000FCF7A4FE200000F074F902230A
:103A3000002E00D10123635566E789783D4D29703A
:103A40000129E7D8A7239B00E25C022A09D0032AB8
:103A500015D02000FFF729FF29782000FFF7F1FD9E
:103A600052E7002900D17BE7012103226160E25483
:103A70002000FFF7D9FD022800D071E7CAE700292E
:103A800006D102222000E2546160FFF7DAFD67E709
:103A90006168012900D163E7C9B22000FFF7D1FDB9
:103AA00029786160E4E7CA88012AB3D1A7239B0083
:103AB000E35C002BAED0022B06D9211D032BA9D12C
:103AC000200000F00AF91FE700232100A36008315D
:103AD000F6E7A7239B00E35C013B022B9AD8CB8837
:103AE000022B97D1013BE360A9239B00E358002BF5
:103AF00001D00323E360210002220C31E0E74B8870
:103B0000012B00D000E7A9229200A35028E7A723A9
:103B10009B00E35C013B022B00D97BE74B88012B28
:103B200000D0F1E6A92300229B00E25018E7C0462E
:103B30009E020000F815002060220B7870B513403B
:103B400004000D00202B03D0402B01D0002B19D1F5
:103B5000A7239B00E35C013B022B13D82B79012B9D
:103B600010D8AD239B00E35829009B68200098479C
:103B7000EB88002B04D1002802D1200000F0CBF804
:103B8000002070BD2000FFF790FEF9E70A780B00D7
:103B9000602170B50A400400202A17D0402A15D0B1
:103BA000002A0FD198885A78C1B2012A26D0002A5B
:103BB0003ED0032A06D1A7229200A25C022A2DD071
:103BC000032A0CD02000FFF770FE06E0AD22920021
:103BD000A2581900926820009047002070BD5A88B2
:103BE000002A07D14A0605D0DB88002B02D120002D
:103BF000FCF78CFD200000F08EF8EEE7A722920083
:103C0000A25C022A0AD0032ADCD15B88002BE4D113
:103C10004B06EFD02000FCF789FDEBE74B06D1D037
:103C20002000FCF773FD80212000FCF76FFDD4E736
:103C3000A7239B00E35C022B17D0032BC2D10F22DA
:103C400014230A405A43A21800061ED59269002A7E
:103C5000B8D07F250D4001355D437F2365190B40AA
:103C60001ED12B60022229000BE04B06AAD12100B5
:103C70005531FF31030601D54139FF3900230222B6
:103C80000B60200000F029F8A7E7FC32D26D002A73
:103C900000D197E77F250D405D435535FF35DCE7C3
:103CA0002000FCF753FD002801D00123D9E728604C
:103CB000D8E70B7803704B784370CA788B78120280
:103CC0009B1843804A790B7912029B188380CA792A
:103CD0008B7912029B18C38070471300A52210B580
:103CE0000224920084500A00C36103620021FCF7A1
:103CF0004FFD002010BD10B513000A000021FCF795
:103D000047FD002010BD10B513000A000021FCF78C
:103D10004FFD002010BDA52304229B0010B5C2500A
:103D200000231A001900FCF733FD002010BDA52365
:103D300005229B0010B5C25000231A001900FCF7A1
:103D400037FD002010BD0000134885461348016868
:103D5000090E134A914205D11248134901601348D4
:103D60001349016013481449144A002302E0D4584F
:103D7000C4500433C4188C42F9D3114A114C0023A7
:103D800001E013600432A242FBD3FDF717FCFCF7FD
:103D9000E3F9FCF7AAFBFEE700180020040000008E
:103DA0001F00000018100240010000000000014048
:103DB000000000000000002004010020F83E000880
:103DC00004010020FC150020FEE70000F8B5C04605
:103DD000F8BC08BC9E467047F8B5C046F8BC08BCA5
:043DE0009E46704744
:103DE40002030405060708090A0B0C0D0E0F101038
:103DF4000102030405060708090A0B0C0D0E0F1037
:103E04000002010212035000430041004E002D0045
:103E14005500530042000000FE030000080400089F
:103E240007000402E0070100000000000A06000188
:103E34000000004001000000320350004500410032
:103E44004B002D00530079007300740065006D0071
:103E5400200054006500630068006E0069006B0078
:103E6400200047006D0062004800000000000000D0
:103E74000000000100000002000000030000000038
:103E84000000010000000200000003000000040024
:103E94000000050000000600000007000000080004
:103EA4000000090000000A0000000B0000000C00E4
:103EB40000000D0000000E0000000F0000000000D4
:103EC400000010000000200000003000000040004E
:103ED40000005000000060000000700000000000BE
:0C3EE400000000000102030406070809AA
:043EF0003501000890
:043EF40009010008B8
:103EF800E1070008ED070008F9070008F9070008BE
:103F08000000000005080008000000001201000180
:103F180000000040720C0C00FF540A04000100006D
:103F28000403090409022E00010100806409040049
:103F380000040000000007058102100000070501C9
:103F48000210000007058202400000070502024037
:103F580000000000FD080008B1080008150A000864
:103F68000000000011080008150800086108000892
:103F780000000000000000000000000035080008F4
:103F88008109000875090008410800084D08000863
:103F98000064004000000000000000000000000075
:103FA8000000000000000000000000000000000009
:103FB80000000000000000000082000072120020D3
:103FC8008003000000000000000000000000000066
:103FD8000000000000000000000000000024F400C1
:103FE800FF000000FFFFFFFF00127A000100000041
:043FF80004000000C1
:0400000508003D4969
:00000001FF
